{
	"contracts/ecommerce.sol": {
		"ecommerce": {
			"abi": [
				{
					"inputs": [],
					"stateMutability": "nonpayable",
					"type": "constructor"
				},
				{
					"anonymous": false,
					"inputs": [
						{
							"indexed": false,
							"internalType": "uint256",
							"name": "Productid",
							"type": "uint256"
						},
						{
							"indexed": false,
							"internalType": "address",
							"name": "buyer",
							"type": "address"
						}
					],
					"name": "baught",
					"type": "event"
				},
				{
					"anonymous": false,
					"inputs": [
						{
							"indexed": false,
							"internalType": "uint256",
							"name": "Productid",
							"type": "uint256"
						}
					],
					"name": "delivered",
					"type": "event"
				},
				{
					"anonymous": false,
					"inputs": [
						{
							"indexed": false,
							"internalType": "string",
							"name": "title",
							"type": "string"
						},
						{
							"indexed": false,
							"internalType": "uint256",
							"name": "priductId",
							"type": "uint256"
						},
						{
							"indexed": false,
							"internalType": "address",
							"name": "seller",
							"type": "address"
						}
					],
					"name": "registered",
					"type": "event"
				},
				{
					"stateMutability": "payable",
					"type": "fallback"
				},
				{
					"inputs": [
						{
							"internalType": "uint256",
							"name": "_productId",
							"type": "uint256"
						}
					],
					"name": "buy",
					"outputs": [],
					"stateMutability": "payable",
					"type": "function"
				},
				{
					"inputs": [
						{
							"internalType": "uint256",
							"name": "_productId",
							"type": "uint256"
						}
					],
					"name": "delivery",
					"outputs": [],
					"stateMutability": "nonpayable",
					"type": "function"
				},
				{
					"inputs": [],
					"name": "destroy",
					"outputs": [],
					"stateMutability": "nonpayable",
					"type": "function"
				},
				{
					"inputs": [],
					"name": "manager",
					"outputs": [
						{
							"internalType": "address payable",
							"name": "",
							"type": "address"
						}
					],
					"stateMutability": "view",
					"type": "function"
				},
				{
					"inputs": [
						{
							"internalType": "uint256",
							"name": "",
							"type": "uint256"
						}
					],
					"name": "products",
					"outputs": [
						{
							"internalType": "string",
							"name": "title",
							"type": "string"
						},
						{
							"internalType": "string",
							"name": "description",
							"type": "string"
						},
						{
							"internalType": "address payable",
							"name": "seller",
							"type": "address"
						},
						{
							"internalType": "uint256",
							"name": "productId",
							"type": "uint256"
						},
						{
							"internalType": "uint256",
							"name": "price",
							"type": "uint256"
						},
						{
							"internalType": "address",
							"name": "buyer",
							"type": "address"
						},
						{
							"internalType": "bool",
							"name": "delivered",
							"type": "bool"
						}
					],
					"stateMutability": "view",
					"type": "function"
				},
				{
					"inputs": [
						{
							"internalType": "string",
							"name": "_title",
							"type": "string"
						},
						{
							"internalType": "string",
							"name": "_desc",
							"type": "string"
						},
						{
							"internalType": "uint256",
							"name": "_price",
							"type": "uint256"
						}
					],
					"name": "registerProducts",
					"outputs": [],
					"stateMutability": "nonpayable",
					"type": "function"
				}
			],
			"devdoc": {
				"kind": "dev",
				"methods": {},
				"version": 1
			},
			"evm": {
				"assembly": "    /* \"contracts/ecommerce.sol\":70:2600  contract ecommerce {... */\n  mstore(0x40, 0x80)\n    /* \"contracts/ecommerce.sol\":609:610  1 */\n  0x01\n    /* \"contracts/ecommerce.sol\":591:610  uint256 counter = 1 */\n  dup1\n  sstore\n    /* \"contracts/ecommerce.sol\":675:680  false */\n  0x00\n    /* \"contracts/ecommerce.sol\":658:680  bool destroyed = false */\n  0x02\n  exp(0x0100, 0x14)\n  dup2\n  sload\n  dup2\n  0xff\n  mul\n  not\n  and\n  swap1\n  dup4\n  iszero\n  iszero\n  mul\n  or\n  swap1\n  sstore\n  pop\n    /* \"contracts/ecommerce.sol\":798:860  constructor() {... */\n  callvalue\n  dup1\n  iszero\n  tag_1\n  jumpi\n  0x00\n  dup1\n  revert\ntag_1:\n  pop\n    /* \"contracts/ecommerce.sol\":841:851  msg.sender */\n  caller\n    /* \"contracts/ecommerce.sol\":823:830  manager */\n  0x02\n  0x00\n    /* \"contracts/ecommerce.sol\":823:852  manager = payable(msg.sender) */\n  0x0100\n  exp\n  dup2\n  sload\n  dup2\n  0xffffffffffffffffffffffffffffffffffffffff\n  mul\n  not\n  and\n  swap1\n  dup4\n  0xffffffffffffffffffffffffffffffffffffffff\n  and\n  mul\n  or\n  swap1\n  sstore\n  pop\n    /* \"contracts/ecommerce.sol\":70:2600  contract ecommerce {... */\n  dataSize(sub_0)\n  dup1\n  dataOffset(sub_0)\n  0x00\n  codecopy\n  0x00\n  return\nstop\n\nsub_0: assembly {\n        /* \"contracts/ecommerce.sol\":70:2600  contract ecommerce {... */\n      mstore(0x40, 0x80)\n      jumpi(tag_1, lt(calldatasize, 0x04))\n      shr(0xe0, calldataload(0x00))\n      dup1\n      0x1144fd72\n      eq\n      tag_3\n      jumpi\n      dup1\n      0x481c6a75\n      eq\n      tag_4\n      jumpi\n      dup1\n      0x4c900dc6\n      eq\n      tag_5\n      jumpi\n      dup1\n      0x7acc0b20\n      eq\n      tag_6\n      jumpi\n      dup1\n      0x83197ef0\n      eq\n      tag_7\n      jumpi\n      dup1\n      0xd96a094a\n      eq\n      tag_8\n      jumpi\n      jump(tag_2)\n    tag_1:\n    tag_2:\n        /* \"contracts/ecommerce.sol\":2558:2568  msg.sender */\n      caller\n        /* \"contracts/ecommerce.sol\":2550:2578  payable(msg.sender).transfer */\n      0xffffffffffffffffffffffffffffffffffffffff\n      and\n        /* \"contracts/ecommerce.sol\":2550:2589  payable(msg.sender).transfer(msg.value) */\n      0x08fc\n        /* \"contracts/ecommerce.sol\":2579:2588  msg.value */\n      callvalue\n        /* \"contracts/ecommerce.sol\":2550:2589  payable(msg.sender).transfer(msg.value) */\n      swap1\n      dup2\n      iszero\n      mul\n      swap1\n      mload(0x40)\n      0x00\n      mload(0x40)\n      dup1\n      dup4\n      sub\n      dup2\n      dup6\n      dup9\n      dup9\n      call\n      swap4\n      pop\n      pop\n      pop\n      pop\n      iszero\n      dup1\n      iszero\n      tag_12\n      jumpi\n      returndatasize\n      0x00\n      dup1\n      returndatacopy\n      revert(0x00, returndatasize)\n    tag_12:\n      stop\n        /* \"contracts/ecommerce.sol\":1896:2282  function delivery(uint256 _productId) public isDestoryed {... */\n    tag_3:\n      callvalue\n      dup1\n      iszero\n      tag_13\n      jumpi\n      0x00\n      dup1\n      revert\n    tag_13:\n      pop\n      tag_14\n      0x04\n      dup1\n      calldatasize\n      sub\n      dup2\n      add\n      swap1\n      tag_15\n      swap2\n      swap1\n      tag_16\n      jump\t// in\n    tag_15:\n      tag_17\n      jump\t// in\n    tag_14:\n      stop\n        /* \"contracts/ecommerce.sol\":619:649  address payable public manager */\n    tag_4:\n      callvalue\n      dup1\n      iszero\n      tag_18\n      jumpi\n      0x00\n      dup1\n      revert\n    tag_18:\n      pop\n      tag_19\n      tag_20\n      jump\t// in\n    tag_19:\n      mload(0x40)\n      tag_21\n      swap2\n      swap1\n      tag_22\n      jump\t// in\n    tag_21:\n      mload(0x40)\n      dup1\n      swap2\n      sub\n      swap1\n      return\n        /* \"contracts/ecommerce.sol\":868:1454  function registerProducts(... */\n    tag_5:\n      callvalue\n      dup1\n      iszero\n      tag_23\n      jumpi\n      0x00\n      dup1\n      revert\n    tag_23:\n      pop\n      tag_24\n      0x04\n      dup1\n      calldatasize\n      sub\n      dup2\n      add\n      swap1\n      tag_25\n      swap2\n      swap1\n      tag_26\n      jump\t// in\n    tag_25:\n      tag_27\n      jump\t// in\n    tag_24:\n      stop\n        /* \"contracts/ecommerce.sol\":350:375  Product[] public products */\n    tag_6:\n      callvalue\n      dup1\n      iszero\n      tag_28\n      jumpi\n      0x00\n      dup1\n      revert\n    tag_28:\n      pop\n      tag_29\n      0x04\n      dup1\n      calldatasize\n      sub\n      dup2\n      add\n      swap1\n      tag_30\n      swap2\n      swap1\n      tag_16\n      jump\t// in\n    tag_30:\n      tag_31\n      jump\t// in\n    tag_29:\n      mload(0x40)\n      tag_32\n      swap8\n      swap7\n      swap6\n      swap5\n      swap4\n      swap3\n      swap2\n      swap1\n      tag_33\n      jump\t// in\n    tag_32:\n      mload(0x40)\n      dup1\n      swap2\n      sub\n      swap1\n      return\n        /* \"contracts/ecommerce.sol\":2290:2503  function destroy() public {... */\n    tag_7:\n      callvalue\n      dup1\n      iszero\n      tag_34\n      jumpi\n      0x00\n      dup1\n      revert\n    tag_34:\n      pop\n      tag_35\n      tag_36\n      jump\t// in\n    tag_35:\n      stop\n        /* \"contracts/ecommerce.sol\":1462:1888  function buy(uint256 _productId) public payable isDestoryed {... */\n    tag_8:\n      tag_37\n      0x04\n      dup1\n      calldatasize\n      sub\n      dup2\n      add\n      swap1\n      tag_38\n      swap2\n      swap1\n      tag_16\n      jump\t// in\n    tag_38:\n      tag_39\n      jump\t// in\n    tag_37:\n      stop\n        /* \"contracts/ecommerce.sol\":1896:2282  function delivery(uint256 _productId) public isDestoryed {... */\n    tag_17:\n        /* \"contracts/ecommerce.sol\":732:741  destroyed */\n      0x02\n      0x14\n      swap1\n      sload\n      swap1\n      0x0100\n      exp\n      swap1\n      div\n      0xff\n      and\n        /* \"contracts/ecommerce.sol\":731:741  !destroyed */\n      iszero\n        /* \"contracts/ecommerce.sol\":723:770  require(!destroyed, \"Contract does not exists\") */\n      tag_41\n      jumpi\n      mload(0x40)\n      0x08c379a000000000000000000000000000000000000000000000000000000000\n      dup2\n      mstore\n      0x04\n      add\n      tag_42\n      swap1\n      tag_43\n      jump\t// in\n    tag_42:\n      mload(0x40)\n      dup1\n      swap2\n      sub\n      swap1\n      revert\n    tag_41:\n        /* \"contracts/ecommerce.sol\":2020:2030  msg.sender */\n      caller\n        /* \"contracts/ecommerce.sol\":1986:2030  products[_productId - 1].buyer == msg.sender */\n      0xffffffffffffffffffffffffffffffffffffffff\n      and\n        /* \"contracts/ecommerce.sol\":1986:1994  products */\n      0x00\n        /* \"contracts/ecommerce.sol\":2008:2009  1 */\n      0x01\n        /* \"contracts/ecommerce.sol\":1995:2005  _productId */\n      dup4\n        /* \"contracts/ecommerce.sol\":1995:2009  _productId - 1 */\n      tag_45\n      swap2\n      swap1\n      tag_46\n      jump\t// in\n    tag_45:\n        /* \"contracts/ecommerce.sol\":1986:2010  products[_productId - 1] */\n      dup2\n      sload\n      dup2\n      lt\n      tag_47\n      jumpi\n      tag_48\n      tag_49\n      jump\t// in\n    tag_48:\n    tag_47:\n      swap1\n      0x00\n      mstore\n      keccak256(0x00, 0x20)\n      swap1\n      0x06\n      mul\n      add\n        /* \"contracts/ecommerce.sol\":1986:2016  products[_productId - 1].buyer */\n      0x05\n      add\n      0x00\n      swap1\n      sload\n      swap1\n      0x0100\n      exp\n      swap1\n      div\n      0xffffffffffffffffffffffffffffffffffffffff\n      and\n        /* \"contracts/ecommerce.sol\":1986:2030  products[_productId - 1].buyer == msg.sender */\n      0xffffffffffffffffffffffffffffffffffffffff\n      and\n      eq\n        /* \"contracts/ecommerce.sol\":1964:2078  require(... */\n      tag_51\n      jumpi\n      mload(0x40)\n      0x08c379a000000000000000000000000000000000000000000000000000000000\n      dup2\n      mstore\n      0x04\n      add\n      tag_52\n      swap1\n      tag_53\n      jump\t// in\n    tag_52:\n      mload(0x40)\n      dup1\n      swap2\n      sub\n      swap1\n      revert\n    tag_51:\n        /* \"contracts/ecommerce.sol\":2126:2130  true */\n      0x01\n        /* \"contracts/ecommerce.sol\":2089:2097  products */\n      0x00\n        /* \"contracts/ecommerce.sol\":2111:2112  1 */\n      0x01\n        /* \"contracts/ecommerce.sol\":2098:2108  _productId */\n      dup4\n        /* \"contracts/ecommerce.sol\":2098:2112  _productId - 1 */\n      tag_54\n      swap2\n      swap1\n      tag_46\n      jump\t// in\n    tag_54:\n        /* \"contracts/ecommerce.sol\":2089:2113  products[_productId - 1] */\n      dup2\n      sload\n      dup2\n      lt\n      tag_55\n      jumpi\n      tag_56\n      tag_49\n      jump\t// in\n    tag_56:\n    tag_55:\n      swap1\n      0x00\n      mstore\n      keccak256(0x00, 0x20)\n      swap1\n      0x06\n      mul\n      add\n        /* \"contracts/ecommerce.sol\":2089:2123  products[_productId - 1].delivered */\n      0x05\n      add\n      0x14\n        /* \"contracts/ecommerce.sol\":2089:2130  products[_productId - 1].delivered = true */\n      0x0100\n      exp\n      dup2\n      sload\n      dup2\n      0xff\n      mul\n      not\n      and\n      swap1\n      dup4\n      iszero\n      iszero\n      mul\n      or\n      swap1\n      sstore\n      pop\n        /* \"contracts/ecommerce.sol\":2141:2149  products */\n      0x00\n        /* \"contracts/ecommerce.sol\":2163:2164  1 */\n      0x01\n        /* \"contracts/ecommerce.sol\":2150:2160  _productId */\n      dup3\n        /* \"contracts/ecommerce.sol\":2150:2164  _productId - 1 */\n      tag_58\n      swap2\n      swap1\n      tag_46\n      jump\t// in\n    tag_58:\n        /* \"contracts/ecommerce.sol\":2141:2165  products[_productId - 1] */\n      dup2\n      sload\n      dup2\n      lt\n      tag_59\n      jumpi\n      tag_60\n      tag_49\n      jump\t// in\n    tag_60:\n    tag_59:\n      swap1\n      0x00\n      mstore\n      keccak256(0x00, 0x20)\n      swap1\n      0x06\n      mul\n      add\n        /* \"contracts/ecommerce.sol\":2141:2172  products[_productId - 1].seller */\n      0x02\n      add\n      0x00\n      swap1\n      sload\n      swap1\n      0x0100\n      exp\n      swap1\n      div\n      0xffffffffffffffffffffffffffffffffffffffff\n      and\n        /* \"contracts/ecommerce.sol\":2141:2181  products[_productId - 1].seller.transfer */\n      0xffffffffffffffffffffffffffffffffffffffff\n      and\n        /* \"contracts/ecommerce.sol\":2141:2237  products[_productId - 1].seller.transfer(... */\n      0x08fc\n        /* \"contracts/ecommerce.sol\":2196:2204  products */\n      0x00\n        /* \"contracts/ecommerce.sol\":2218:2219  1 */\n      0x01\n        /* \"contracts/ecommerce.sol\":2205:2215  _productId */\n      dup5\n        /* \"contracts/ecommerce.sol\":2205:2219  _productId - 1 */\n      tag_62\n      swap2\n      swap1\n      tag_46\n      jump\t// in\n    tag_62:\n        /* \"contracts/ecommerce.sol\":2196:2220  products[_productId - 1] */\n      dup2\n      sload\n      dup2\n      lt\n      tag_63\n      jumpi\n      tag_64\n      tag_49\n      jump\t// in\n    tag_64:\n    tag_63:\n      swap1\n      0x00\n      mstore\n      keccak256(0x00, 0x20)\n      swap1\n      0x06\n      mul\n      add\n        /* \"contracts/ecommerce.sol\":2196:2226  products[_productId - 1].price */\n      0x04\n      add\n      sload\n        /* \"contracts/ecommerce.sol\":2141:2237  products[_productId - 1].seller.transfer(... */\n      swap1\n      dup2\n      iszero\n      mul\n      swap1\n      mload(0x40)\n      0x00\n      mload(0x40)\n      dup1\n      dup4\n      sub\n      dup2\n      dup6\n      dup9\n      dup9\n      call\n      swap4\n      pop\n      pop\n      pop\n      pop\n      iszero\n      dup1\n      iszero\n      tag_67\n      jumpi\n      returndatasize\n      0x00\n      dup1\n      returndatacopy\n      revert(0x00, returndatasize)\n    tag_67:\n      pop\n        /* \"contracts/ecommerce.sol\":2253:2274  delivered(_productId) */\n      0x4b5e4108167a669a2da8b1edeb1bf605987224cec90eeca47f7f235104539f21\n        /* \"contracts/ecommerce.sol\":2263:2273  _productId */\n      dup2\n        /* \"contracts/ecommerce.sol\":2253:2274  delivered(_productId) */\n      mload(0x40)\n      tag_68\n      swap2\n      swap1\n      tag_69\n      jump\t// in\n    tag_68:\n      mload(0x40)\n      dup1\n      swap2\n      sub\n      swap1\n      log1\n        /* \"contracts/ecommerce.sol\":1896:2282  function delivery(uint256 _productId) public isDestoryed {... */\n      pop\n      jump\t// out\n        /* \"contracts/ecommerce.sol\":619:649  address payable public manager */\n    tag_20:\n      0x02\n      0x00\n      swap1\n      sload\n      swap1\n      0x0100\n      exp\n      swap1\n      div\n      0xffffffffffffffffffffffffffffffffffffffff\n      and\n      dup2\n      jump\t// out\n        /* \"contracts/ecommerce.sol\":868:1454  function registerProducts(... */\n    tag_27:\n        /* \"contracts/ecommerce.sol\":732:741  destroyed */\n      0x02\n      0x14\n      swap1\n      sload\n      swap1\n      0x0100\n      exp\n      swap1\n      div\n      0xff\n      and\n        /* \"contracts/ecommerce.sol\":731:741  !destroyed */\n      iszero\n        /* \"contracts/ecommerce.sol\":723:770  require(!destroyed, \"Contract does not exists\") */\n      tag_71\n      jumpi\n      mload(0x40)\n      0x08c379a000000000000000000000000000000000000000000000000000000000\n      dup2\n      mstore\n      0x04\n      add\n      tag_72\n      swap1\n      tag_43\n      jump\t// in\n    tag_72:\n      mload(0x40)\n      dup1\n      swap2\n      sub\n      swap1\n      revert\n    tag_71:\n        /* \"contracts/ecommerce.sol\":1034:1035  0 */\n      0x00\n        /* \"contracts/ecommerce.sol\":1025:1031  _price */\n      dup2\n        /* \"contracts/ecommerce.sol\":1025:1035  _price > 0 */\n      gt\n        /* \"contracts/ecommerce.sol\":1017:1065  require(_price > 0, \"Product price cannot be 0\") */\n      tag_74\n      jumpi\n      mload(0x40)\n      0x08c379a000000000000000000000000000000000000000000000000000000000\n      dup2\n      mstore\n      0x04\n      add\n      tag_75\n      swap1\n      tag_76\n      jump\t// in\n    tag_75:\n      mload(0x40)\n      dup1\n      swap2\n      sub\n      swap1\n      revert\n    tag_74:\n        /* \"contracts/ecommerce.sol\":1076:1102  Product memory tempProduct */\n      tag_77\n      tag_78\n      jump\t// in\n    tag_77:\n        /* \"contracts/ecommerce.sol\":1133:1139  _title */\n      dup4\n        /* \"contracts/ecommerce.sol\":1113:1124  tempProduct */\n      dup2\n        /* \"contracts/ecommerce.sol\":1113:1130  tempProduct.title */\n      0x00\n      add\n        /* \"contracts/ecommerce.sol\":1113:1139  tempProduct.title = _title */\n      dup2\n      swap1\n      mstore\n      pop\n        /* \"contracts/ecommerce.sol\":1176:1181  _desc */\n      dup3\n        /* \"contracts/ecommerce.sol\":1150:1161  tempProduct */\n      dup2\n        /* \"contracts/ecommerce.sol\":1150:1173  tempProduct.description */\n      0x20\n      add\n        /* \"contracts/ecommerce.sol\":1150:1181  tempProduct.description = _desc */\n      dup2\n      swap1\n      mstore\n      pop\n        /* \"contracts/ecommerce.sol\":1221:1227  10**18 */\n      0x0de0b6b3a7640000\n        /* \"contracts/ecommerce.sol\":1212:1218  _price */\n      dup3\n        /* \"contracts/ecommerce.sol\":1212:1227  _price * 10**18 */\n      tag_79\n      swap2\n      swap1\n      tag_80\n      jump\t// in\n    tag_79:\n        /* \"contracts/ecommerce.sol\":1192:1203  tempProduct */\n      dup2\n        /* \"contracts/ecommerce.sol\":1192:1209  tempProduct.price */\n      0x80\n      add\n        /* \"contracts/ecommerce.sol\":1192:1227  tempProduct.price = _price * 10**18 */\n      dup2\n      dup2\n      mstore\n      pop\n      pop\n        /* \"contracts/ecommerce.sol\":1267:1277  msg.sender */\n      caller\n        /* \"contracts/ecommerce.sol\":1238:1249  tempProduct */\n      dup2\n        /* \"contracts/ecommerce.sol\":1238:1256  tempProduct.seller */\n      0x40\n      add\n        /* \"contracts/ecommerce.sol\":1238:1278  tempProduct.seller = payable(msg.sender) */\n      swap1\n      0xffffffffffffffffffffffffffffffffffffffff\n      and\n      swap1\n      dup2\n      0xffffffffffffffffffffffffffffffffffffffff\n      and\n      dup2\n      mstore\n      pop\n      pop\n        /* \"contracts/ecommerce.sol\":1313:1320  counter */\n      sload(0x01)\n        /* \"contracts/ecommerce.sol\":1289:1300  tempProduct */\n      dup2\n        /* \"contracts/ecommerce.sol\":1289:1310  tempProduct.productId */\n      0x60\n      add\n        /* \"contracts/ecommerce.sol\":1289:1320  tempProduct.productId = counter */\n      dup2\n      dup2\n      mstore\n      pop\n      pop\n        /* \"contracts/ecommerce.sol\":1331:1339  products */\n      0x00\n        /* \"contracts/ecommerce.sol\":1345:1356  tempProduct */\n      dup2\n        /* \"contracts/ecommerce.sol\":1331:1357  products.push(tempProduct) */\n      swap1\n      dup1\n      0x01\n      dup2\n      sload\n      add\n      dup1\n      dup3\n      sstore\n      dup1\n      swap2\n      pop\n      pop\n      0x01\n      swap1\n      sub\n      swap1\n      0x00\n      mstore\n      keccak256(0x00, 0x20)\n      swap1\n      0x06\n      mul\n      add\n      0x00\n      swap1\n      swap2\n      swap1\n      swap2\n      swap1\n      swap2\n      pop\n      0x00\n      dup3\n      add\n      mload\n      dup2\n      0x00\n      add\n      swap1\n      dup2\n      tag_82\n      swap2\n      swap1\n      tag_83\n      jump\t// in\n    tag_82:\n      pop\n      0x20\n      dup3\n      add\n      mload\n      dup2\n      0x01\n      add\n      swap1\n      dup2\n      tag_84\n      swap2\n      swap1\n      tag_83\n      jump\t// in\n    tag_84:\n      pop\n      0x40\n      dup3\n      add\n      mload\n      dup2\n      0x02\n      add\n      exp(0x0100, 0x00)\n      dup2\n      sload\n      dup2\n      0xffffffffffffffffffffffffffffffffffffffff\n      mul\n      not\n      and\n      swap1\n      dup4\n      0xffffffffffffffffffffffffffffffffffffffff\n      and\n      mul\n      or\n      swap1\n      sstore\n      pop\n      0x60\n      dup3\n      add\n      mload\n      dup2\n      0x03\n      add\n      sstore\n      0x80\n      dup3\n      add\n      mload\n      dup2\n      0x04\n      add\n      sstore\n      0xa0\n      dup3\n      add\n      mload\n      dup2\n      0x05\n      add\n      exp(0x0100, 0x00)\n      dup2\n      sload\n      dup2\n      0xffffffffffffffffffffffffffffffffffffffff\n      mul\n      not\n      and\n      swap1\n      dup4\n      0xffffffffffffffffffffffffffffffffffffffff\n      and\n      mul\n      or\n      swap1\n      sstore\n      pop\n      0xc0\n      dup3\n      add\n      mload\n      dup2\n      0x05\n      add\n      exp(0x0100, 0x14)\n      dup2\n      sload\n      dup2\n      0xff\n      mul\n      not\n      and\n      swap1\n      dup4\n      iszero\n      iszero\n      mul\n      or\n      swap1\n      sstore\n      pop\n      pop\n      pop\n        /* \"contracts/ecommerce.sol\":1368:1375  counter */\n      0x01\n      0x00\n        /* \"contracts/ecommerce.sol\":1368:1377  counter++ */\n      dup2\n      sload\n      dup1\n      swap3\n      swap2\n      swap1\n      tag_85\n      swap1\n      tag_86\n      jump\t// in\n    tag_85:\n      swap2\n      swap1\n      pop\n      sstore\n      pop\n        /* \"contracts/ecommerce.sol\":1393:1446  registered(_title, tempProduct.productId, msg.sender) */\n      0x2f2d57060110e728629fcdcfd43a3b0f571b51ca1899668910d777e935601e3e\n        /* \"contracts/ecommerce.sol\":1404:1410  _title */\n      dup5\n        /* \"contracts/ecommerce.sol\":1412:1423  tempProduct */\n      dup3\n        /* \"contracts/ecommerce.sol\":1412:1433  tempProduct.productId */\n      0x60\n      add\n      mload\n        /* \"contracts/ecommerce.sol\":1435:1445  msg.sender */\n      caller\n        /* \"contracts/ecommerce.sol\":1393:1446  registered(_title, tempProduct.productId, msg.sender) */\n      mload(0x40)\n      tag_87\n      swap4\n      swap3\n      swap2\n      swap1\n      tag_88\n      jump\t// in\n    tag_87:\n      mload(0x40)\n      dup1\n      swap2\n      sub\n      swap1\n      log1\n        /* \"contracts/ecommerce.sol\":1006:1454  {... */\n      pop\n        /* \"contracts/ecommerce.sol\":868:1454  function registerProducts(... */\n      pop\n      pop\n      pop\n      jump\t// out\n        /* \"contracts/ecommerce.sol\":350:375  Product[] public products */\n    tag_31:\n      0x00\n      dup2\n      dup2\n      sload\n      dup2\n      lt\n      tag_89\n      jumpi\n      0x00\n      dup1\n      revert\n    tag_89:\n      swap1\n      0x00\n      mstore\n      keccak256(0x00, 0x20)\n      swap1\n      0x06\n      mul\n      add\n      0x00\n      swap2\n      pop\n      swap1\n      pop\n      dup1\n      0x00\n      add\n      dup1\n      sload\n      tag_91\n      swap1\n      tag_92\n      jump\t// in\n    tag_91:\n      dup1\n      0x1f\n      add\n      0x20\n      dup1\n      swap2\n      div\n      mul\n      0x20\n      add\n      mload(0x40)\n      swap1\n      dup2\n      add\n      0x40\n      mstore\n      dup1\n      swap3\n      swap2\n      swap1\n      dup2\n      dup2\n      mstore\n      0x20\n      add\n      dup3\n      dup1\n      sload\n      tag_93\n      swap1\n      tag_92\n      jump\t// in\n    tag_93:\n      dup1\n      iszero\n      tag_94\n      jumpi\n      dup1\n      0x1f\n      lt\n      tag_95\n      jumpi\n      0x0100\n      dup1\n      dup4\n      sload\n      div\n      mul\n      dup4\n      mstore\n      swap2\n      0x20\n      add\n      swap2\n      jump(tag_94)\n    tag_95:\n      dup3\n      add\n      swap2\n      swap1\n      0x00\n      mstore\n      keccak256(0x00, 0x20)\n      swap1\n    tag_96:\n      dup2\n      sload\n      dup2\n      mstore\n      swap1\n      0x01\n      add\n      swap1\n      0x20\n      add\n      dup1\n      dup4\n      gt\n      tag_96\n      jumpi\n      dup3\n      swap1\n      sub\n      0x1f\n      and\n      dup3\n      add\n      swap2\n    tag_94:\n      pop\n      pop\n      pop\n      pop\n      pop\n      swap1\n      dup1\n      0x01\n      add\n      dup1\n      sload\n      tag_97\n      swap1\n      tag_92\n      jump\t// in\n    tag_97:\n      dup1\n      0x1f\n      add\n      0x20\n      dup1\n      swap2\n      div\n      mul\n      0x20\n      add\n      mload(0x40)\n      swap1\n      dup2\n      add\n      0x40\n      mstore\n      dup1\n      swap3\n      swap2\n      swap1\n      dup2\n      dup2\n      mstore\n      0x20\n      add\n      dup3\n      dup1\n      sload\n      tag_98\n      swap1\n      tag_92\n      jump\t// in\n    tag_98:\n      dup1\n      iszero\n      tag_99\n      jumpi\n      dup1\n      0x1f\n      lt\n      tag_100\n      jumpi\n      0x0100\n      dup1\n      dup4\n      sload\n      div\n      mul\n      dup4\n      mstore\n      swap2\n      0x20\n      add\n      swap2\n      jump(tag_99)\n    tag_100:\n      dup3\n      add\n      swap2\n      swap1\n      0x00\n      mstore\n      keccak256(0x00, 0x20)\n      swap1\n    tag_101:\n      dup2\n      sload\n      dup2\n      mstore\n      swap1\n      0x01\n      add\n      swap1\n      0x20\n      add\n      dup1\n      dup4\n      gt\n      tag_101\n      jumpi\n      dup3\n      swap1\n      sub\n      0x1f\n      and\n      dup3\n      add\n      swap2\n    tag_99:\n      pop\n      pop\n      pop\n      pop\n      pop\n      swap1\n      dup1\n      0x02\n      add\n      0x00\n      swap1\n      sload\n      swap1\n      0x0100\n      exp\n      swap1\n      div\n      0xffffffffffffffffffffffffffffffffffffffff\n      and\n      swap1\n      dup1\n      0x03\n      add\n      sload\n      swap1\n      dup1\n      0x04\n      add\n      sload\n      swap1\n      dup1\n      0x05\n      add\n      0x00\n      swap1\n      sload\n      swap1\n      0x0100\n      exp\n      swap1\n      div\n      0xffffffffffffffffffffffffffffffffffffffff\n      and\n      swap1\n      dup1\n      0x05\n      add\n      0x14\n      swap1\n      sload\n      swap1\n      0x0100\n      exp\n      swap1\n      div\n      0xff\n      and\n      swap1\n      pop\n      dup8\n      jump\t// out\n        /* \"contracts/ecommerce.sol\":2290:2503  function destroy() public {... */\n    tag_36:\n        /* \"contracts/ecommerce.sol\":2346:2356  msg.sender */\n      caller\n        /* \"contracts/ecommerce.sol\":2335:2356  manager == msg.sender */\n      0xffffffffffffffffffffffffffffffffffffffff\n      and\n        /* \"contracts/ecommerce.sol\":2335:2342  manager */\n      0x02\n      0x00\n      swap1\n      sload\n      swap1\n      0x0100\n      exp\n      swap1\n      div\n      0xffffffffffffffffffffffffffffffffffffffff\n      and\n        /* \"contracts/ecommerce.sol\":2335:2356  manager == msg.sender */\n      0xffffffffffffffffffffffffffffffffffffffff\n      and\n      eq\n        /* \"contracts/ecommerce.sol\":2327:2386  require(manager == msg.sender, \"Only manager can do this!\") */\n      tag_103\n      jumpi\n      mload(0x40)\n      0x08c379a000000000000000000000000000000000000000000000000000000000\n      dup2\n      mstore\n      0x04\n      add\n      tag_104\n      swap1\n      tag_105\n      jump\t// in\n    tag_104:\n      mload(0x40)\n      dup1\n      swap2\n      sub\n      swap1\n      revert\n    tag_103:\n        /* \"contracts/ecommerce.sol\":2397:2404  manager */\n      0x02\n      0x00\n      swap1\n      sload\n      swap1\n      0x0100\n      exp\n      swap1\n      div\n      0xffffffffffffffffffffffffffffffffffffffff\n      and\n        /* \"contracts/ecommerce.sol\":2397:2413  manager.transfer */\n      0xffffffffffffffffffffffffffffffffffffffff\n      and\n        /* \"contracts/ecommerce.sol\":2397:2436  manager.transfer(address(this).balance) */\n      0x08fc\n        /* \"contracts/ecommerce.sol\":2414:2435  address(this).balance */\n      selfbalance\n        /* \"contracts/ecommerce.sol\":2397:2436  manager.transfer(address(this).balance) */\n      swap1\n      dup2\n      iszero\n      mul\n      swap1\n      mload(0x40)\n      0x00\n      mload(0x40)\n      dup1\n      dup4\n      sub\n      dup2\n      dup6\n      dup9\n      dup9\n      call\n      swap4\n      pop\n      pop\n      pop\n      pop\n      iszero\n      dup1\n      iszero\n      tag_107\n      jumpi\n      returndatasize\n      0x00\n      dup1\n      returndatacopy\n      revert(0x00, returndatasize)\n    tag_107:\n      pop\n        /* \"contracts/ecommerce.sol\":2460:2467  manager */\n      0x02\n      0x00\n      swap1\n      sload\n      swap1\n      0x0100\n      exp\n      swap1\n      div\n      0xffffffffffffffffffffffffffffffffffffffff\n      and\n        /* \"contracts/ecommerce.sol\":2447:2468  selfdestruct(manager) */\n      0xffffffffffffffffffffffffffffffffffffffff\n      and\n      selfdestruct\n        /* \"contracts/ecommerce.sol\":1462:1888  function buy(uint256 _productId) public payable isDestoryed {... */\n    tag_39:\n        /* \"contracts/ecommerce.sol\":732:741  destroyed */\n      0x02\n      0x14\n      swap1\n      sload\n      swap1\n      0x0100\n      exp\n      swap1\n      div\n      0xff\n      and\n        /* \"contracts/ecommerce.sol\":731:741  !destroyed */\n      iszero\n        /* \"contracts/ecommerce.sol\":723:770  require(!destroyed, \"Contract does not exists\") */\n      tag_109\n      jumpi\n      mload(0x40)\n      0x08c379a000000000000000000000000000000000000000000000000000000000\n      dup2\n      mstore\n      0x04\n      add\n      tag_110\n      swap1\n      tag_43\n      jump\t// in\n    tag_110:\n      mload(0x40)\n      dup1\n      swap2\n      sub\n      swap1\n      revert\n    tag_109:\n        /* \"contracts/ecommerce.sol\":1589:1598  msg.value */\n      callvalue\n        /* \"contracts/ecommerce.sol\":1555:1563  products */\n      0x00\n        /* \"contracts/ecommerce.sol\":1577:1578  1 */\n      0x01\n        /* \"contracts/ecommerce.sol\":1564:1574  _productId */\n      dup4\n        /* \"contracts/ecommerce.sol\":1564:1578  _productId - 1 */\n      tag_112\n      swap2\n      swap1\n      tag_46\n      jump\t// in\n    tag_112:\n        /* \"contracts/ecommerce.sol\":1555:1579  products[_productId - 1] */\n      dup2\n      sload\n      dup2\n      lt\n      tag_113\n      jumpi\n      tag_114\n      tag_49\n      jump\t// in\n    tag_114:\n    tag_113:\n      swap1\n      0x00\n      mstore\n      keccak256(0x00, 0x20)\n      swap1\n      0x06\n      mul\n      add\n        /* \"contracts/ecommerce.sol\":1555:1585  products[_productId - 1].price */\n      0x04\n      add\n      sload\n        /* \"contracts/ecommerce.sol\":1555:1598  products[_productId - 1].price == msg.value */\n      eq\n        /* \"contracts/ecommerce.sol\":1533:1652  require(... */\n      tag_116\n      jumpi\n      mload(0x40)\n      0x08c379a000000000000000000000000000000000000000000000000000000000\n      dup2\n      mstore\n      0x04\n      add\n      tag_117\n      swap1\n      tag_118\n      jump\t// in\n    tag_117:\n      mload(0x40)\n      dup1\n      swap2\n      sub\n      swap1\n      revert\n    tag_116:\n        /* \"contracts/ecommerce.sol\":1720:1730  msg.sender */\n      caller\n        /* \"contracts/ecommerce.sol\":1685:1730  products[_productId - 1].seller != msg.sender */\n      0xffffffffffffffffffffffffffffffffffffffff\n      and\n        /* \"contracts/ecommerce.sol\":1685:1693  products */\n      0x00\n        /* \"contracts/ecommerce.sol\":1707:1708  1 */\n      0x01\n        /* \"contracts/ecommerce.sol\":1694:1704  _productId */\n      dup4\n        /* \"contracts/ecommerce.sol\":1694:1708  _productId - 1 */\n      tag_119\n      swap2\n      swap1\n      tag_46\n      jump\t// in\n    tag_119:\n        /* \"contracts/ecommerce.sol\":1685:1709  products[_productId - 1] */\n      dup2\n      sload\n      dup2\n      lt\n      tag_120\n      jumpi\n      tag_121\n      tag_49\n      jump\t// in\n    tag_121:\n    tag_120:\n      swap1\n      0x00\n      mstore\n      keccak256(0x00, 0x20)\n      swap1\n      0x06\n      mul\n      add\n        /* \"contracts/ecommerce.sol\":1685:1716  products[_productId - 1].seller */\n      0x02\n      add\n      0x00\n      swap1\n      sload\n      swap1\n      0x0100\n      exp\n      swap1\n      div\n      0xffffffffffffffffffffffffffffffffffffffff\n      and\n        /* \"contracts/ecommerce.sol\":1685:1730  products[_productId - 1].seller != msg.sender */\n      0xffffffffffffffffffffffffffffffffffffffff\n      and\n      sub\n        /* \"contracts/ecommerce.sol\":1663:1780  require(... */\n      tag_123\n      jumpi\n      mload(0x40)\n      0x08c379a000000000000000000000000000000000000000000000000000000000\n      dup2\n      mstore\n      0x04\n      add\n      tag_124\n      swap1\n      tag_125\n      jump\t// in\n    tag_124:\n      mload(0x40)\n      dup1\n      swap2\n      sub\n      swap1\n      revert\n    tag_123:\n        /* \"contracts/ecommerce.sol\":1824:1834  msg.sender */\n      caller\n        /* \"contracts/ecommerce.sol\":1791:1799  products */\n      0x00\n        /* \"contracts/ecommerce.sol\":1813:1814  1 */\n      0x01\n        /* \"contracts/ecommerce.sol\":1800:1810  _productId */\n      dup4\n        /* \"contracts/ecommerce.sol\":1800:1814  _productId - 1 */\n      tag_126\n      swap2\n      swap1\n      tag_46\n      jump\t// in\n    tag_126:\n        /* \"contracts/ecommerce.sol\":1791:1815  products[_productId - 1] */\n      dup2\n      sload\n      dup2\n      lt\n      tag_127\n      jumpi\n      tag_128\n      tag_49\n      jump\t// in\n    tag_128:\n    tag_127:\n      swap1\n      0x00\n      mstore\n      keccak256(0x00, 0x20)\n      swap1\n      0x06\n      mul\n      add\n        /* \"contracts/ecommerce.sol\":1791:1821  products[_productId - 1].buyer */\n      0x05\n      add\n      0x00\n        /* \"contracts/ecommerce.sol\":1791:1834  products[_productId - 1].buyer = msg.sender */\n      0x0100\n      exp\n      dup2\n      sload\n      dup2\n      0xffffffffffffffffffffffffffffffffffffffff\n      mul\n      not\n      and\n      swap1\n      dup4\n      0xffffffffffffffffffffffffffffffffffffffff\n      and\n      mul\n      or\n      swap1\n      sstore\n      pop\n        /* \"contracts/ecommerce.sol\":1850:1880  baught(_productId, msg.sender) */\n      0xb575b1c878dc377bd63ce2baed968bf73f501ef259eaa44a369ecddf6a3a6241\n        /* \"contracts/ecommerce.sol\":1857:1867  _productId */\n      dup2\n        /* \"contracts/ecommerce.sol\":1869:1879  msg.sender */\n      caller\n        /* \"contracts/ecommerce.sol\":1850:1880  baught(_productId, msg.sender) */\n      mload(0x40)\n      tag_130\n      swap3\n      swap2\n      swap1\n      tag_131\n      jump\t// in\n    tag_130:\n      mload(0x40)\n      dup1\n      swap2\n      sub\n      swap1\n      log1\n        /* \"contracts/ecommerce.sol\":1462:1888  function buy(uint256 _productId) public payable isDestoryed {... */\n      pop\n      jump\t// out\n    tag_78:\n      mload(0x40)\n      dup1\n      0xe0\n      add\n      0x40\n      mstore\n      dup1\n      0x60\n      dup2\n      mstore\n      0x20\n      add\n      0x60\n      dup2\n      mstore\n      0x20\n      add\n      and(0xffffffffffffffffffffffffffffffffffffffff, 0x00)\n      dup2\n      mstore\n      0x20\n      add\n      0x00\n      dup2\n      mstore\n      0x20\n      add\n      0x00\n      dup2\n      mstore\n      0x20\n      add\n      and(0xffffffffffffffffffffffffffffffffffffffff, 0x00)\n      dup2\n      mstore\n      0x20\n      add\n      iszero(iszero(0x00))\n      dup2\n      mstore\n      pop\n      swap1\n      jump\t// out\n        /* \"#utility.yul\":7:82   */\n    tag_132:\n        /* \"#utility.yul\":40:46   */\n      0x00\n        /* \"#utility.yul\":73:75   */\n      0x40\n        /* \"#utility.yul\":67:76   */\n      mload\n        /* \"#utility.yul\":57:76   */\n      swap1\n      pop\n        /* \"#utility.yul\":7:82   */\n      swap1\n      jump\t// out\n        /* \"#utility.yul\":88:205   */\n    tag_133:\n        /* \"#utility.yul\":197:198   */\n      0x00\n        /* \"#utility.yul\":194:195   */\n      dup1\n        /* \"#utility.yul\":187:199   */\n      revert\n        /* \"#utility.yul\":211:328   */\n    tag_134:\n        /* \"#utility.yul\":320:321   */\n      0x00\n        /* \"#utility.yul\":317:318   */\n      dup1\n        /* \"#utility.yul\":310:322   */\n      revert\n        /* \"#utility.yul\":334:411   */\n    tag_135:\n        /* \"#utility.yul\":371:378   */\n      0x00\n        /* \"#utility.yul\":400:405   */\n      dup2\n        /* \"#utility.yul\":389:405   */\n      swap1\n      pop\n        /* \"#utility.yul\":334:411   */\n      swap2\n      swap1\n      pop\n      jump\t// out\n        /* \"#utility.yul\":417:539   */\n    tag_136:\n        /* \"#utility.yul\":490:514   */\n      tag_195\n        /* \"#utility.yul\":508:513   */\n      dup2\n        /* \"#utility.yul\":490:514   */\n      tag_135\n      jump\t// in\n    tag_195:\n        /* \"#utility.yul\":483:488   */\n      dup2\n        /* \"#utility.yul\":480:515   */\n      eq\n        /* \"#utility.yul\":470:533   */\n      tag_196\n      jumpi\n        /* \"#utility.yul\":529:530   */\n      0x00\n        /* \"#utility.yul\":526:527   */\n      dup1\n        /* \"#utility.yul\":519:531   */\n      revert\n        /* \"#utility.yul\":470:533   */\n    tag_196:\n        /* \"#utility.yul\":417:539   */\n      pop\n      jump\t// out\n        /* \"#utility.yul\":545:684   */\n    tag_137:\n        /* \"#utility.yul\":591:596   */\n      0x00\n        /* \"#utility.yul\":629:635   */\n      dup2\n        /* \"#utility.yul\":616:636   */\n      calldataload\n        /* \"#utility.yul\":607:636   */\n      swap1\n      pop\n        /* \"#utility.yul\":645:678   */\n      tag_198\n        /* \"#utility.yul\":672:677   */\n      dup2\n        /* \"#utility.yul\":645:678   */\n      tag_136\n      jump\t// in\n    tag_198:\n        /* \"#utility.yul\":545:684   */\n      swap3\n      swap2\n      pop\n      pop\n      jump\t// out\n        /* \"#utility.yul\":690:1019   */\n    tag_16:\n        /* \"#utility.yul\":749:755   */\n      0x00\n        /* \"#utility.yul\":798:800   */\n      0x20\n        /* \"#utility.yul\":786:795   */\n      dup3\n        /* \"#utility.yul\":777:784   */\n      dup5\n        /* \"#utility.yul\":773:796   */\n      sub\n        /* \"#utility.yul\":769:801   */\n      slt\n        /* \"#utility.yul\":766:885   */\n      iszero\n      tag_200\n      jumpi\n        /* \"#utility.yul\":804:883   */\n      tag_201\n      tag_133\n      jump\t// in\n    tag_201:\n        /* \"#utility.yul\":766:885   */\n    tag_200:\n        /* \"#utility.yul\":924:925   */\n      0x00\n        /* \"#utility.yul\":949:1002   */\n      tag_202\n        /* \"#utility.yul\":994:1001   */\n      dup5\n        /* \"#utility.yul\":985:991   */\n      dup3\n        /* \"#utility.yul\":974:983   */\n      dup6\n        /* \"#utility.yul\":970:992   */\n      add\n        /* \"#utility.yul\":949:1002   */\n      tag_137\n      jump\t// in\n    tag_202:\n        /* \"#utility.yul\":939:1002   */\n      swap2\n      pop\n        /* \"#utility.yul\":895:1012   */\n      pop\n        /* \"#utility.yul\":690:1019   */\n      swap3\n      swap2\n      pop\n      pop\n      jump\t// out\n        /* \"#utility.yul\":1025:1151   */\n    tag_138:\n        /* \"#utility.yul\":1062:1069   */\n      0x00\n        /* \"#utility.yul\":1102:1144   */\n      0xffffffffffffffffffffffffffffffffffffffff\n        /* \"#utility.yul\":1095:1100   */\n      dup3\n        /* \"#utility.yul\":1091:1145   */\n      and\n        /* \"#utility.yul\":1080:1145   */\n      swap1\n      pop\n        /* \"#utility.yul\":1025:1151   */\n      swap2\n      swap1\n      pop\n      jump\t// out\n        /* \"#utility.yul\":1157:1261   */\n    tag_139:\n        /* \"#utility.yul\":1202:1209   */\n      0x00\n        /* \"#utility.yul\":1231:1255   */\n      tag_205\n        /* \"#utility.yul\":1249:1254   */\n      dup3\n        /* \"#utility.yul\":1231:1255   */\n      tag_138\n      jump\t// in\n    tag_205:\n        /* \"#utility.yul\":1220:1255   */\n      swap1\n      pop\n        /* \"#utility.yul\":1157:1261   */\n      swap2\n      swap1\n      pop\n      jump\t// out\n        /* \"#utility.yul\":1267:1409   */\n    tag_140:\n        /* \"#utility.yul\":1370:1402   */\n      tag_207\n        /* \"#utility.yul\":1396:1401   */\n      dup2\n        /* \"#utility.yul\":1370:1402   */\n      tag_139\n      jump\t// in\n    tag_207:\n        /* \"#utility.yul\":1365:1368   */\n      dup3\n        /* \"#utility.yul\":1358:1403   */\n      mstore\n        /* \"#utility.yul\":1267:1409   */\n      pop\n      pop\n      jump\t// out\n        /* \"#utility.yul\":1415:1669   */\n    tag_22:\n        /* \"#utility.yul\":1524:1528   */\n      0x00\n        /* \"#utility.yul\":1562:1564   */\n      0x20\n        /* \"#utility.yul\":1551:1560   */\n      dup3\n        /* \"#utility.yul\":1547:1565   */\n      add\n        /* \"#utility.yul\":1539:1565   */\n      swap1\n      pop\n        /* \"#utility.yul\":1575:1662   */\n      tag_209\n        /* \"#utility.yul\":1659:1660   */\n      0x00\n        /* \"#utility.yul\":1648:1657   */\n      dup4\n        /* \"#utility.yul\":1644:1661   */\n      add\n        /* \"#utility.yul\":1635:1641   */\n      dup5\n        /* \"#utility.yul\":1575:1662   */\n      tag_140\n      jump\t// in\n    tag_209:\n        /* \"#utility.yul\":1415:1669   */\n      swap3\n      swap2\n      pop\n      pop\n      jump\t// out\n        /* \"#utility.yul\":1675:1792   */\n    tag_141:\n        /* \"#utility.yul\":1784:1785   */\n      0x00\n        /* \"#utility.yul\":1781:1782   */\n      dup1\n        /* \"#utility.yul\":1774:1786   */\n      revert\n        /* \"#utility.yul\":1798:1915   */\n    tag_142:\n        /* \"#utility.yul\":1907:1908   */\n      0x00\n        /* \"#utility.yul\":1904:1905   */\n      dup1\n        /* \"#utility.yul\":1897:1909   */\n      revert\n        /* \"#utility.yul\":1921:2023   */\n    tag_143:\n        /* \"#utility.yul\":1962:1968   */\n      0x00\n        /* \"#utility.yul\":2013:2015   */\n      0x1f\n        /* \"#utility.yul\":2009:2016   */\n      not\n        /* \"#utility.yul\":2004:2006   */\n      0x1f\n        /* \"#utility.yul\":1997:2002   */\n      dup4\n        /* \"#utility.yul\":1993:2007   */\n      add\n        /* \"#utility.yul\":1989:2017   */\n      and\n        /* \"#utility.yul\":1979:2017   */\n      swap1\n      pop\n        /* \"#utility.yul\":1921:2023   */\n      swap2\n      swap1\n      pop\n      jump\t// out\n        /* \"#utility.yul\":2029:2209   */\n    tag_144:\n        /* \"#utility.yul\":2077:2154   */\n      0x4e487b7100000000000000000000000000000000000000000000000000000000\n        /* \"#utility.yul\":2074:2075   */\n      0x00\n        /* \"#utility.yul\":2067:2155   */\n      mstore\n        /* \"#utility.yul\":2174:2178   */\n      0x41\n        /* \"#utility.yul\":2171:2172   */\n      0x04\n        /* \"#utility.yul\":2164:2179   */\n      mstore\n        /* \"#utility.yul\":2198:2202   */\n      0x24\n        /* \"#utility.yul\":2195:2196   */\n      0x00\n        /* \"#utility.yul\":2188:2203   */\n      revert\n        /* \"#utility.yul\":2215:2496   */\n    tag_145:\n        /* \"#utility.yul\":2298:2325   */\n      tag_215\n        /* \"#utility.yul\":2320:2324   */\n      dup3\n        /* \"#utility.yul\":2298:2325   */\n      tag_143\n      jump\t// in\n    tag_215:\n        /* \"#utility.yul\":2290:2296   */\n      dup2\n        /* \"#utility.yul\":2286:2326   */\n      add\n        /* \"#utility.yul\":2428:2434   */\n      dup2\n        /* \"#utility.yul\":2416:2426   */\n      dup2\n        /* \"#utility.yul\":2413:2435   */\n      lt\n        /* \"#utility.yul\":2392:2410   */\n      0xffffffffffffffff\n        /* \"#utility.yul\":2380:2390   */\n      dup3\n        /* \"#utility.yul\":2377:2411   */\n      gt\n        /* \"#utility.yul\":2374:2436   */\n      or\n        /* \"#utility.yul\":2371:2459   */\n      iszero\n      tag_216\n      jumpi\n        /* \"#utility.yul\":2439:2457   */\n      tag_217\n      tag_144\n      jump\t// in\n    tag_217:\n        /* \"#utility.yul\":2371:2459   */\n    tag_216:\n        /* \"#utility.yul\":2479:2489   */\n      dup1\n        /* \"#utility.yul\":2475:2477   */\n      0x40\n        /* \"#utility.yul\":2468:2490   */\n      mstore\n        /* \"#utility.yul\":2258:2496   */\n      pop\n        /* \"#utility.yul\":2215:2496   */\n      pop\n      pop\n      jump\t// out\n        /* \"#utility.yul\":2502:2631   */\n    tag_146:\n        /* \"#utility.yul\":2536:2542   */\n      0x00\n        /* \"#utility.yul\":2563:2583   */\n      tag_219\n      tag_132\n      jump\t// in\n    tag_219:\n        /* \"#utility.yul\":2553:2583   */\n      swap1\n      pop\n        /* \"#utility.yul\":2592:2625   */\n      tag_220\n        /* \"#utility.yul\":2620:2624   */\n      dup3\n        /* \"#utility.yul\":2612:2618   */\n      dup3\n        /* \"#utility.yul\":2592:2625   */\n      tag_145\n      jump\t// in\n    tag_220:\n        /* \"#utility.yul\":2502:2631   */\n      swap2\n      swap1\n      pop\n      jump\t// out\n        /* \"#utility.yul\":2637:2945   */\n    tag_147:\n        /* \"#utility.yul\":2699:2703   */\n      0x00\n        /* \"#utility.yul\":2789:2807   */\n      0xffffffffffffffff\n        /* \"#utility.yul\":2781:2787   */\n      dup3\n        /* \"#utility.yul\":2778:2808   */\n      gt\n        /* \"#utility.yul\":2775:2831   */\n      iszero\n      tag_222\n      jumpi\n        /* \"#utility.yul\":2811:2829   */\n      tag_223\n      tag_144\n      jump\t// in\n    tag_223:\n        /* \"#utility.yul\":2775:2831   */\n    tag_222:\n        /* \"#utility.yul\":2849:2878   */\n      tag_224\n        /* \"#utility.yul\":2871:2877   */\n      dup3\n        /* \"#utility.yul\":2849:2878   */\n      tag_143\n      jump\t// in\n    tag_224:\n        /* \"#utility.yul\":2841:2878   */\n      swap1\n      pop\n        /* \"#utility.yul\":2933:2937   */\n      0x20\n        /* \"#utility.yul\":2927:2931   */\n      dup2\n        /* \"#utility.yul\":2923:2938   */\n      add\n        /* \"#utility.yul\":2915:2938   */\n      swap1\n      pop\n        /* \"#utility.yul\":2637:2945   */\n      swap2\n      swap1\n      pop\n      jump\t// out\n        /* \"#utility.yul\":2951:3105   */\n    tag_148:\n        /* \"#utility.yul\":3035:3041   */\n      dup3\n        /* \"#utility.yul\":3030:3033   */\n      dup2\n        /* \"#utility.yul\":3025:3028   */\n      dup4\n        /* \"#utility.yul\":3012:3042   */\n      calldatacopy\n        /* \"#utility.yul\":3097:3098   */\n      0x00\n        /* \"#utility.yul\":3088:3094   */\n      dup4\n        /* \"#utility.yul\":3083:3086   */\n      dup4\n        /* \"#utility.yul\":3079:3095   */\n      add\n        /* \"#utility.yul\":3072:3099   */\n      mstore\n        /* \"#utility.yul\":2951:3105   */\n      pop\n      pop\n      pop\n      jump\t// out\n        /* \"#utility.yul\":3111:3523   */\n    tag_149:\n        /* \"#utility.yul\":3189:3194   */\n      0x00\n        /* \"#utility.yul\":3214:3280   */\n      tag_227\n        /* \"#utility.yul\":3230:3279   */\n      tag_228\n        /* \"#utility.yul\":3272:3278   */\n      dup5\n        /* \"#utility.yul\":3230:3279   */\n      tag_147\n      jump\t// in\n    tag_228:\n        /* \"#utility.yul\":3214:3280   */\n      tag_146\n      jump\t// in\n    tag_227:\n        /* \"#utility.yul\":3205:3280   */\n      swap1\n      pop\n        /* \"#utility.yul\":3303:3309   */\n      dup3\n        /* \"#utility.yul\":3296:3301   */\n      dup2\n        /* \"#utility.yul\":3289:3310   */\n      mstore\n        /* \"#utility.yul\":3341:3345   */\n      0x20\n        /* \"#utility.yul\":3334:3339   */\n      dup2\n        /* \"#utility.yul\":3330:3346   */\n      add\n        /* \"#utility.yul\":3379:3382   */\n      dup5\n        /* \"#utility.yul\":3370:3376   */\n      dup5\n        /* \"#utility.yul\":3365:3368   */\n      dup5\n        /* \"#utility.yul\":3361:3377   */\n      add\n        /* \"#utility.yul\":3358:3383   */\n      gt\n        /* \"#utility.yul\":3355:3467   */\n      iszero\n      tag_229\n      jumpi\n        /* \"#utility.yul\":3386:3465   */\n      tag_230\n      tag_142\n      jump\t// in\n    tag_230:\n        /* \"#utility.yul\":3355:3467   */\n    tag_229:\n        /* \"#utility.yul\":3476:3517   */\n      tag_231\n        /* \"#utility.yul\":3510:3516   */\n      dup5\n        /* \"#utility.yul\":3505:3508   */\n      dup3\n        /* \"#utility.yul\":3500:3503   */\n      dup6\n        /* \"#utility.yul\":3476:3517   */\n      tag_148\n      jump\t// in\n    tag_231:\n        /* \"#utility.yul\":3195:3523   */\n      pop\n        /* \"#utility.yul\":3111:3523   */\n      swap4\n      swap3\n      pop\n      pop\n      pop\n      jump\t// out\n        /* \"#utility.yul\":3543:3883   */\n    tag_150:\n        /* \"#utility.yul\":3599:3604   */\n      0x00\n        /* \"#utility.yul\":3648:3651   */\n      dup3\n        /* \"#utility.yul\":3641:3645   */\n      0x1f\n        /* \"#utility.yul\":3633:3639   */\n      dup4\n        /* \"#utility.yul\":3629:3646   */\n      add\n        /* \"#utility.yul\":3625:3652   */\n      slt\n        /* \"#utility.yul\":3615:3737   */\n      tag_233\n      jumpi\n        /* \"#utility.yul\":3656:3735   */\n      tag_234\n      tag_141\n      jump\t// in\n    tag_234:\n        /* \"#utility.yul\":3615:3737   */\n    tag_233:\n        /* \"#utility.yul\":3773:3779   */\n      dup2\n        /* \"#utility.yul\":3760:3780   */\n      calldataload\n        /* \"#utility.yul\":3798:3877   */\n      tag_235\n        /* \"#utility.yul\":3873:3876   */\n      dup5\n        /* \"#utility.yul\":3865:3871   */\n      dup3\n        /* \"#utility.yul\":3858:3862   */\n      0x20\n        /* \"#utility.yul\":3850:3856   */\n      dup7\n        /* \"#utility.yul\":3846:3863   */\n      add\n        /* \"#utility.yul\":3798:3877   */\n      tag_149\n      jump\t// in\n    tag_235:\n        /* \"#utility.yul\":3789:3877   */\n      swap2\n      pop\n        /* \"#utility.yul\":3605:3883   */\n      pop\n        /* \"#utility.yul\":3543:3883   */\n      swap3\n      swap2\n      pop\n      pop\n      jump\t// out\n        /* \"#utility.yul\":3889:4868   */\n    tag_26:\n        /* \"#utility.yul\":3986:3992   */\n      0x00\n        /* \"#utility.yul\":3994:4000   */\n      dup1\n        /* \"#utility.yul\":4002:4008   */\n      0x00\n        /* \"#utility.yul\":4051:4053   */\n      0x60\n        /* \"#utility.yul\":4039:4048   */\n      dup5\n        /* \"#utility.yul\":4030:4037   */\n      dup7\n        /* \"#utility.yul\":4026:4049   */\n      sub\n        /* \"#utility.yul\":4022:4054   */\n      slt\n        /* \"#utility.yul\":4019:4138   */\n      iszero\n      tag_237\n      jumpi\n        /* \"#utility.yul\":4057:4136   */\n      tag_238\n      tag_133\n      jump\t// in\n    tag_238:\n        /* \"#utility.yul\":4019:4138   */\n    tag_237:\n        /* \"#utility.yul\":4205:4206   */\n      0x00\n        /* \"#utility.yul\":4194:4203   */\n      dup5\n        /* \"#utility.yul\":4190:4207   */\n      add\n        /* \"#utility.yul\":4177:4208   */\n      calldataload\n        /* \"#utility.yul\":4235:4253   */\n      0xffffffffffffffff\n        /* \"#utility.yul\":4227:4233   */\n      dup2\n        /* \"#utility.yul\":4224:4254   */\n      gt\n        /* \"#utility.yul\":4221:4338   */\n      iszero\n      tag_239\n      jumpi\n        /* \"#utility.yul\":4257:4336   */\n      tag_240\n      tag_134\n      jump\t// in\n    tag_240:\n        /* \"#utility.yul\":4221:4338   */\n    tag_239:\n        /* \"#utility.yul\":4362:4425   */\n      tag_241\n        /* \"#utility.yul\":4417:4424   */\n      dup7\n        /* \"#utility.yul\":4408:4414   */\n      dup3\n        /* \"#utility.yul\":4397:4406   */\n      dup8\n        /* \"#utility.yul\":4393:4415   */\n      add\n        /* \"#utility.yul\":4362:4425   */\n      tag_150\n      jump\t// in\n    tag_241:\n        /* \"#utility.yul\":4352:4425   */\n      swap4\n      pop\n        /* \"#utility.yul\":4148:4435   */\n      pop\n        /* \"#utility.yul\":4502:4504   */\n      0x20\n        /* \"#utility.yul\":4491:4500   */\n      dup5\n        /* \"#utility.yul\":4487:4505   */\n      add\n        /* \"#utility.yul\":4474:4506   */\n      calldataload\n        /* \"#utility.yul\":4533:4551   */\n      0xffffffffffffffff\n        /* \"#utility.yul\":4525:4531   */\n      dup2\n        /* \"#utility.yul\":4522:4552   */\n      gt\n        /* \"#utility.yul\":4519:4636   */\n      iszero\n      tag_242\n      jumpi\n        /* \"#utility.yul\":4555:4634   */\n      tag_243\n      tag_134\n      jump\t// in\n    tag_243:\n        /* \"#utility.yul\":4519:4636   */\n    tag_242:\n        /* \"#utility.yul\":4660:4723   */\n      tag_244\n        /* \"#utility.yul\":4715:4722   */\n      dup7\n        /* \"#utility.yul\":4706:4712   */\n      dup3\n        /* \"#utility.yul\":4695:4704   */\n      dup8\n        /* \"#utility.yul\":4691:4713   */\n      add\n        /* \"#utility.yul\":4660:4723   */\n      tag_150\n      jump\t// in\n    tag_244:\n        /* \"#utility.yul\":4650:4723   */\n      swap3\n      pop\n        /* \"#utility.yul\":4445:4733   */\n      pop\n        /* \"#utility.yul\":4772:4774   */\n      0x40\n        /* \"#utility.yul\":4798:4851   */\n      tag_245\n        /* \"#utility.yul\":4843:4850   */\n      dup7\n        /* \"#utility.yul\":4834:4840   */\n      dup3\n        /* \"#utility.yul\":4823:4832   */\n      dup8\n        /* \"#utility.yul\":4819:4841   */\n      add\n        /* \"#utility.yul\":4798:4851   */\n      tag_137\n      jump\t// in\n    tag_245:\n        /* \"#utility.yul\":4788:4851   */\n      swap2\n      pop\n        /* \"#utility.yul\":4743:4861   */\n      pop\n        /* \"#utility.yul\":3889:4868   */\n      swap3\n      pop\n      swap3\n      pop\n      swap3\n      jump\t// out\n        /* \"#utility.yul\":4874:4973   */\n    tag_151:\n        /* \"#utility.yul\":4926:4932   */\n      0x00\n        /* \"#utility.yul\":4960:4965   */\n      dup2\n        /* \"#utility.yul\":4954:4966   */\n      mload\n        /* \"#utility.yul\":4944:4966   */\n      swap1\n      pop\n        /* \"#utility.yul\":4874:4973   */\n      swap2\n      swap1\n      pop\n      jump\t// out\n        /* \"#utility.yul\":4979:5148   */\n    tag_152:\n        /* \"#utility.yul\":5063:5074   */\n      0x00\n        /* \"#utility.yul\":5097:5103   */\n      dup3\n        /* \"#utility.yul\":5092:5095   */\n      dup3\n        /* \"#utility.yul\":5085:5104   */\n      mstore\n        /* \"#utility.yul\":5137:5141   */\n      0x20\n        /* \"#utility.yul\":5132:5135   */\n      dup3\n        /* \"#utility.yul\":5128:5142   */\n      add\n        /* \"#utility.yul\":5113:5142   */\n      swap1\n      pop\n        /* \"#utility.yul\":4979:5148   */\n      swap3\n      swap2\n      pop\n      pop\n      jump\t// out\n        /* \"#utility.yul\":5154:5461   */\n    tag_153:\n        /* \"#utility.yul\":5222:5223   */\n      0x00\n        /* \"#utility.yul\":5232:5345   */\n    tag_249:\n        /* \"#utility.yul\":5246:5252   */\n      dup4\n        /* \"#utility.yul\":5243:5244   */\n      dup2\n        /* \"#utility.yul\":5240:5253   */\n      lt\n        /* \"#utility.yul\":5232:5345   */\n      iszero\n      tag_251\n      jumpi\n        /* \"#utility.yul\":5331:5332   */\n      dup1\n        /* \"#utility.yul\":5326:5329   */\n      dup3\n        /* \"#utility.yul\":5322:5333   */\n      add\n        /* \"#utility.yul\":5316:5334   */\n      mload\n        /* \"#utility.yul\":5312:5313   */\n      dup2\n        /* \"#utility.yul\":5307:5310   */\n      dup5\n        /* \"#utility.yul\":5303:5314   */\n      add\n        /* \"#utility.yul\":5296:5335   */\n      mstore\n        /* \"#utility.yul\":5268:5270   */\n      0x20\n        /* \"#utility.yul\":5265:5266   */\n      dup2\n        /* \"#utility.yul\":5261:5271   */\n      add\n        /* \"#utility.yul\":5256:5271   */\n      swap1\n      pop\n        /* \"#utility.yul\":5232:5345   */\n      jump(tag_249)\n    tag_251:\n        /* \"#utility.yul\":5363:5369   */\n      dup4\n        /* \"#utility.yul\":5360:5361   */\n      dup2\n        /* \"#utility.yul\":5357:5370   */\n      gt\n        /* \"#utility.yul\":5354:5455   */\n      iszero\n      tag_252\n      jumpi\n        /* \"#utility.yul\":5443:5444   */\n      0x00\n        /* \"#utility.yul\":5434:5440   */\n      dup5\n        /* \"#utility.yul\":5429:5432   */\n      dup5\n        /* \"#utility.yul\":5425:5441   */\n      add\n        /* \"#utility.yul\":5418:5445   */\n      mstore\n        /* \"#utility.yul\":5354:5455   */\n    tag_252:\n        /* \"#utility.yul\":5203:5461   */\n      pop\n        /* \"#utility.yul\":5154:5461   */\n      pop\n      pop\n      pop\n      jump\t// out\n        /* \"#utility.yul\":5467:5831   */\n    tag_154:\n        /* \"#utility.yul\":5555:5558   */\n      0x00\n        /* \"#utility.yul\":5583:5622   */\n      tag_254\n        /* \"#utility.yul\":5616:5621   */\n      dup3\n        /* \"#utility.yul\":5583:5622   */\n      tag_151\n      jump\t// in\n    tag_254:\n        /* \"#utility.yul\":5638:5709   */\n      tag_255\n        /* \"#utility.yul\":5702:5708   */\n      dup2\n        /* \"#utility.yul\":5697:5700   */\n      dup6\n        /* \"#utility.yul\":5638:5709   */\n      tag_152\n      jump\t// in\n    tag_255:\n        /* \"#utility.yul\":5631:5709   */\n      swap4\n      pop\n        /* \"#utility.yul\":5718:5770   */\n      tag_256\n        /* \"#utility.yul\":5763:5769   */\n      dup2\n        /* \"#utility.yul\":5758:5761   */\n      dup6\n        /* \"#utility.yul\":5751:5755   */\n      0x20\n        /* \"#utility.yul\":5744:5749   */\n      dup7\n        /* \"#utility.yul\":5740:5756   */\n      add\n        /* \"#utility.yul\":5718:5770   */\n      tag_153\n      jump\t// in\n    tag_256:\n        /* \"#utility.yul\":5795:5824   */\n      tag_257\n        /* \"#utility.yul\":5817:5823   */\n      dup2\n        /* \"#utility.yul\":5795:5824   */\n      tag_143\n      jump\t// in\n    tag_257:\n        /* \"#utility.yul\":5790:5793   */\n      dup5\n        /* \"#utility.yul\":5786:5825   */\n      add\n        /* \"#utility.yul\":5779:5825   */\n      swap2\n      pop\n        /* \"#utility.yul\":5559:5831   */\n      pop\n        /* \"#utility.yul\":5467:5831   */\n      swap3\n      swap2\n      pop\n      pop\n      jump\t// out\n        /* \"#utility.yul\":5837:5955   */\n    tag_155:\n        /* \"#utility.yul\":5924:5948   */\n      tag_259\n        /* \"#utility.yul\":5942:5947   */\n      dup2\n        /* \"#utility.yul\":5924:5948   */\n      tag_135\n      jump\t// in\n    tag_259:\n        /* \"#utility.yul\":5919:5922   */\n      dup3\n        /* \"#utility.yul\":5912:5949   */\n      mstore\n        /* \"#utility.yul\":5837:5955   */\n      pop\n      pop\n      jump\t// out\n        /* \"#utility.yul\":5961:6057   */\n    tag_156:\n        /* \"#utility.yul\":5998:6005   */\n      0x00\n        /* \"#utility.yul\":6027:6051   */\n      tag_261\n        /* \"#utility.yul\":6045:6050   */\n      dup3\n        /* \"#utility.yul\":6027:6051   */\n      tag_138\n      jump\t// in\n    tag_261:\n        /* \"#utility.yul\":6016:6051   */\n      swap1\n      pop\n        /* \"#utility.yul\":5961:6057   */\n      swap2\n      swap1\n      pop\n      jump\t// out\n        /* \"#utility.yul\":6063:6181   */\n    tag_157:\n        /* \"#utility.yul\":6150:6174   */\n      tag_263\n        /* \"#utility.yul\":6168:6173   */\n      dup2\n        /* \"#utility.yul\":6150:6174   */\n      tag_156\n      jump\t// in\n    tag_263:\n        /* \"#utility.yul\":6145:6148   */\n      dup3\n        /* \"#utility.yul\":6138:6175   */\n      mstore\n        /* \"#utility.yul\":6063:6181   */\n      pop\n      pop\n      jump\t// out\n        /* \"#utility.yul\":6187:6277   */\n    tag_158:\n        /* \"#utility.yul\":6221:6228   */\n      0x00\n        /* \"#utility.yul\":6264:6269   */\n      dup2\n        /* \"#utility.yul\":6257:6270   */\n      iszero\n        /* \"#utility.yul\":6250:6271   */\n      iszero\n        /* \"#utility.yul\":6239:6271   */\n      swap1\n      pop\n        /* \"#utility.yul\":6187:6277   */\n      swap2\n      swap1\n      pop\n      jump\t// out\n        /* \"#utility.yul\":6283:6392   */\n    tag_159:\n        /* \"#utility.yul\":6364:6385   */\n      tag_266\n        /* \"#utility.yul\":6379:6384   */\n      dup2\n        /* \"#utility.yul\":6364:6385   */\n      tag_158\n      jump\t// in\n    tag_266:\n        /* \"#utility.yul\":6359:6362   */\n      dup3\n        /* \"#utility.yul\":6352:6386   */\n      mstore\n        /* \"#utility.yul\":6283:6392   */\n      pop\n      pop\n      jump\t// out\n        /* \"#utility.yul\":6398:7486   */\n    tag_33:\n        /* \"#utility.yul\":6709:6713   */\n      0x00\n        /* \"#utility.yul\":6747:6750   */\n      0xe0\n        /* \"#utility.yul\":6736:6745   */\n      dup3\n        /* \"#utility.yul\":6732:6751   */\n      add\n        /* \"#utility.yul\":6724:6751   */\n      swap1\n      pop\n        /* \"#utility.yul\":6797:6806   */\n      dup2\n        /* \"#utility.yul\":6791:6795   */\n      dup2\n        /* \"#utility.yul\":6787:6807   */\n      sub\n        /* \"#utility.yul\":6783:6784   */\n      0x00\n        /* \"#utility.yul\":6772:6781   */\n      dup4\n        /* \"#utility.yul\":6768:6785   */\n      add\n        /* \"#utility.yul\":6761:6808   */\n      mstore\n        /* \"#utility.yul\":6825:6903   */\n      tag_268\n        /* \"#utility.yul\":6898:6902   */\n      dup2\n        /* \"#utility.yul\":6889:6895   */\n      dup11\n        /* \"#utility.yul\":6825:6903   */\n      tag_154\n      jump\t// in\n    tag_268:\n        /* \"#utility.yul\":6817:6903   */\n      swap1\n      pop\n        /* \"#utility.yul\":6950:6959   */\n      dup2\n        /* \"#utility.yul\":6944:6948   */\n      dup2\n        /* \"#utility.yul\":6940:6960   */\n      sub\n        /* \"#utility.yul\":6935:6937   */\n      0x20\n        /* \"#utility.yul\":6924:6933   */\n      dup4\n        /* \"#utility.yul\":6920:6938   */\n      add\n        /* \"#utility.yul\":6913:6961   */\n      mstore\n        /* \"#utility.yul\":6978:7056   */\n      tag_269\n        /* \"#utility.yul\":7051:7055   */\n      dup2\n        /* \"#utility.yul\":7042:7048   */\n      dup10\n        /* \"#utility.yul\":6978:7056   */\n      tag_154\n      jump\t// in\n    tag_269:\n        /* \"#utility.yul\":6970:7056   */\n      swap1\n      pop\n        /* \"#utility.yul\":7066:7154   */\n      tag_270\n        /* \"#utility.yul\":7150:7152   */\n      0x40\n        /* \"#utility.yul\":7139:7148   */\n      dup4\n        /* \"#utility.yul\":7135:7153   */\n      add\n        /* \"#utility.yul\":7126:7132   */\n      dup9\n        /* \"#utility.yul\":7066:7154   */\n      tag_140\n      jump\t// in\n    tag_270:\n        /* \"#utility.yul\":7164:7236   */\n      tag_271\n        /* \"#utility.yul\":7232:7234   */\n      0x60\n        /* \"#utility.yul\":7221:7230   */\n      dup4\n        /* \"#utility.yul\":7217:7235   */\n      add\n        /* \"#utility.yul\":7208:7214   */\n      dup8\n        /* \"#utility.yul\":7164:7236   */\n      tag_155\n      jump\t// in\n    tag_271:\n        /* \"#utility.yul\":7246:7319   */\n      tag_272\n        /* \"#utility.yul\":7314:7317   */\n      0x80\n        /* \"#utility.yul\":7303:7312   */\n      dup4\n        /* \"#utility.yul\":7299:7318   */\n      add\n        /* \"#utility.yul\":7290:7296   */\n      dup7\n        /* \"#utility.yul\":7246:7319   */\n      tag_155\n      jump\t// in\n    tag_272:\n        /* \"#utility.yul\":7329:7402   */\n      tag_273\n        /* \"#utility.yul\":7397:7400   */\n      0xa0\n        /* \"#utility.yul\":7386:7395   */\n      dup4\n        /* \"#utility.yul\":7382:7401   */\n      add\n        /* \"#utility.yul\":7373:7379   */\n      dup6\n        /* \"#utility.yul\":7329:7402   */\n      tag_157\n      jump\t// in\n    tag_273:\n        /* \"#utility.yul\":7412:7479   */\n      tag_274\n        /* \"#utility.yul\":7474:7477   */\n      0xc0\n        /* \"#utility.yul\":7463:7472   */\n      dup4\n        /* \"#utility.yul\":7459:7478   */\n      add\n        /* \"#utility.yul\":7450:7456   */\n      dup5\n        /* \"#utility.yul\":7412:7479   */\n      tag_159\n      jump\t// in\n    tag_274:\n        /* \"#utility.yul\":6398:7486   */\n      swap9\n      swap8\n      pop\n      pop\n      pop\n      pop\n      pop\n      pop\n      pop\n      pop\n      jump\t// out\n        /* \"#utility.yul\":7492:7666   */\n    tag_160:\n        /* \"#utility.yul\":7632:7658   */\n      0x436f6e747261637420646f6573206e6f74206578697374730000000000000000\n        /* \"#utility.yul\":7628:7629   */\n      0x00\n        /* \"#utility.yul\":7620:7626   */\n      dup3\n        /* \"#utility.yul\":7616:7630   */\n      add\n        /* \"#utility.yul\":7609:7659   */\n      mstore\n        /* \"#utility.yul\":7492:7666   */\n      pop\n      jump\t// out\n        /* \"#utility.yul\":7672:8038   */\n    tag_161:\n        /* \"#utility.yul\":7814:7817   */\n      0x00\n        /* \"#utility.yul\":7835:7902   */\n      tag_277\n        /* \"#utility.yul\":7899:7901   */\n      0x18\n        /* \"#utility.yul\":7894:7897   */\n      dup4\n        /* \"#utility.yul\":7835:7902   */\n      tag_152\n      jump\t// in\n    tag_277:\n        /* \"#utility.yul\":7828:7902   */\n      swap2\n      pop\n        /* \"#utility.yul\":7911:8004   */\n      tag_278\n        /* \"#utility.yul\":8000:8003   */\n      dup3\n        /* \"#utility.yul\":7911:8004   */\n      tag_160\n      jump\t// in\n    tag_278:\n        /* \"#utility.yul\":8029:8031   */\n      0x20\n        /* \"#utility.yul\":8024:8027   */\n      dup3\n        /* \"#utility.yul\":8020:8032   */\n      add\n        /* \"#utility.yul\":8013:8032   */\n      swap1\n      pop\n        /* \"#utility.yul\":7672:8038   */\n      swap2\n      swap1\n      pop\n      jump\t// out\n        /* \"#utility.yul\":8044:8463   */\n    tag_43:\n        /* \"#utility.yul\":8210:8214   */\n      0x00\n        /* \"#utility.yul\":8248:8250   */\n      0x20\n        /* \"#utility.yul\":8237:8246   */\n      dup3\n        /* \"#utility.yul\":8233:8251   */\n      add\n        /* \"#utility.yul\":8225:8251   */\n      swap1\n      pop\n        /* \"#utility.yul\":8297:8306   */\n      dup2\n        /* \"#utility.yul\":8291:8295   */\n      dup2\n        /* \"#utility.yul\":8287:8307   */\n      sub\n        /* \"#utility.yul\":8283:8284   */\n      0x00\n        /* \"#utility.yul\":8272:8281   */\n      dup4\n        /* \"#utility.yul\":8268:8285   */\n      add\n        /* \"#utility.yul\":8261:8308   */\n      mstore\n        /* \"#utility.yul\":8325:8456   */\n      tag_280\n        /* \"#utility.yul\":8451:8455   */\n      dup2\n        /* \"#utility.yul\":8325:8456   */\n      tag_161\n      jump\t// in\n    tag_280:\n        /* \"#utility.yul\":8317:8456   */\n      swap1\n      pop\n        /* \"#utility.yul\":8044:8463   */\n      swap2\n      swap1\n      pop\n      jump\t// out\n        /* \"#utility.yul\":8469:8649   */\n    tag_162:\n        /* \"#utility.yul\":8517:8594   */\n      0x4e487b7100000000000000000000000000000000000000000000000000000000\n        /* \"#utility.yul\":8514:8515   */\n      0x00\n        /* \"#utility.yul\":8507:8595   */\n      mstore\n        /* \"#utility.yul\":8614:8618   */\n      0x11\n        /* \"#utility.yul\":8611:8612   */\n      0x04\n        /* \"#utility.yul\":8604:8619   */\n      mstore\n        /* \"#utility.yul\":8638:8642   */\n      0x24\n        /* \"#utility.yul\":8635:8636   */\n      0x00\n        /* \"#utility.yul\":8628:8643   */\n      revert\n        /* \"#utility.yul\":8655:8846   */\n    tag_46:\n        /* \"#utility.yul\":8695:8699   */\n      0x00\n        /* \"#utility.yul\":8715:8735   */\n      tag_283\n        /* \"#utility.yul\":8733:8734   */\n      dup3\n        /* \"#utility.yul\":8715:8735   */\n      tag_135\n      jump\t// in\n    tag_283:\n        /* \"#utility.yul\":8710:8735   */\n      swap2\n      pop\n        /* \"#utility.yul\":8749:8769   */\n      tag_284\n        /* \"#utility.yul\":8767:8768   */\n      dup4\n        /* \"#utility.yul\":8749:8769   */\n      tag_135\n      jump\t// in\n    tag_284:\n        /* \"#utility.yul\":8744:8769   */\n      swap3\n      pop\n        /* \"#utility.yul\":8788:8789   */\n      dup3\n        /* \"#utility.yul\":8785:8786   */\n      dup3\n        /* \"#utility.yul\":8782:8790   */\n      lt\n        /* \"#utility.yul\":8779:8813   */\n      iszero\n      tag_285\n      jumpi\n        /* \"#utility.yul\":8793:8811   */\n      tag_286\n      tag_162\n      jump\t// in\n    tag_286:\n        /* \"#utility.yul\":8779:8813   */\n    tag_285:\n        /* \"#utility.yul\":8838:8839   */\n      dup3\n        /* \"#utility.yul\":8835:8836   */\n      dup3\n        /* \"#utility.yul\":8831:8840   */\n      sub\n        /* \"#utility.yul\":8823:8840   */\n      swap1\n      pop\n        /* \"#utility.yul\":8655:8846   */\n      swap3\n      swap2\n      pop\n      pop\n      jump\t// out\n        /* \"#utility.yul\":8852:9032   */\n    tag_49:\n        /* \"#utility.yul\":8900:8977   */\n      0x4e487b7100000000000000000000000000000000000000000000000000000000\n        /* \"#utility.yul\":8897:8898   */\n      0x00\n        /* \"#utility.yul\":8890:8978   */\n      mstore\n        /* \"#utility.yul\":8997:9001   */\n      0x32\n        /* \"#utility.yul\":8994:8995   */\n      0x04\n        /* \"#utility.yul\":8987:9002   */\n      mstore\n        /* \"#utility.yul\":9021:9025   */\n      0x24\n        /* \"#utility.yul\":9018:9019   */\n      0x00\n        /* \"#utility.yul\":9011:9026   */\n      revert\n        /* \"#utility.yul\":9038:9208   */\n    tag_163:\n        /* \"#utility.yul\":9178:9200   */\n      0x4f6e6c792062757965722063616e20747261636b000000000000000000000000\n        /* \"#utility.yul\":9174:9175   */\n      0x00\n        /* \"#utility.yul\":9166:9172   */\n      dup3\n        /* \"#utility.yul\":9162:9176   */\n      add\n        /* \"#utility.yul\":9155:9201   */\n      mstore\n        /* \"#utility.yul\":9038:9208   */\n      pop\n      jump\t// out\n        /* \"#utility.yul\":9214:9580   */\n    tag_164:\n        /* \"#utility.yul\":9356:9359   */\n      0x00\n        /* \"#utility.yul\":9377:9444   */\n      tag_290\n        /* \"#utility.yul\":9441:9443   */\n      0x14\n        /* \"#utility.yul\":9436:9439   */\n      dup4\n        /* \"#utility.yul\":9377:9444   */\n      tag_152\n      jump\t// in\n    tag_290:\n        /* \"#utility.yul\":9370:9444   */\n      swap2\n      pop\n        /* \"#utility.yul\":9453:9546   */\n      tag_291\n        /* \"#utility.yul\":9542:9545   */\n      dup3\n        /* \"#utility.yul\":9453:9546   */\n      tag_163\n      jump\t// in\n    tag_291:\n        /* \"#utility.yul\":9571:9573   */\n      0x20\n        /* \"#utility.yul\":9566:9569   */\n      dup3\n        /* \"#utility.yul\":9562:9574   */\n      add\n        /* \"#utility.yul\":9555:9574   */\n      swap1\n      pop\n        /* \"#utility.yul\":9214:9580   */\n      swap2\n      swap1\n      pop\n      jump\t// out\n        /* \"#utility.yul\":9586:10005   */\n    tag_53:\n        /* \"#utility.yul\":9752:9756   */\n      0x00\n        /* \"#utility.yul\":9790:9792   */\n      0x20\n        /* \"#utility.yul\":9779:9788   */\n      dup3\n        /* \"#utility.yul\":9775:9793   */\n      add\n        /* \"#utility.yul\":9767:9793   */\n      swap1\n      pop\n        /* \"#utility.yul\":9839:9848   */\n      dup2\n        /* \"#utility.yul\":9833:9837   */\n      dup2\n        /* \"#utility.yul\":9829:9849   */\n      sub\n        /* \"#utility.yul\":9825:9826   */\n      0x00\n        /* \"#utility.yul\":9814:9823   */\n      dup4\n        /* \"#utility.yul\":9810:9827   */\n      add\n        /* \"#utility.yul\":9803:9850   */\n      mstore\n        /* \"#utility.yul\":9867:9998   */\n      tag_293\n        /* \"#utility.yul\":9993:9997   */\n      dup2\n        /* \"#utility.yul\":9867:9998   */\n      tag_164\n      jump\t// in\n    tag_293:\n        /* \"#utility.yul\":9859:9998   */\n      swap1\n      pop\n        /* \"#utility.yul\":9586:10005   */\n      swap2\n      swap1\n      pop\n      jump\t// out\n        /* \"#utility.yul\":10011:10233   */\n    tag_69:\n        /* \"#utility.yul\":10104:10108   */\n      0x00\n        /* \"#utility.yul\":10142:10144   */\n      0x20\n        /* \"#utility.yul\":10131:10140   */\n      dup3\n        /* \"#utility.yul\":10127:10145   */\n      add\n        /* \"#utility.yul\":10119:10145   */\n      swap1\n      pop\n        /* \"#utility.yul\":10155:10226   */\n      tag_295\n        /* \"#utility.yul\":10223:10224   */\n      0x00\n        /* \"#utility.yul\":10212:10221   */\n      dup4\n        /* \"#utility.yul\":10208:10225   */\n      add\n        /* \"#utility.yul\":10199:10205   */\n      dup5\n        /* \"#utility.yul\":10155:10226   */\n      tag_155\n      jump\t// in\n    tag_295:\n        /* \"#utility.yul\":10011:10233   */\n      swap3\n      swap2\n      pop\n      pop\n      jump\t// out\n        /* \"#utility.yul\":10239:10414   */\n    tag_165:\n        /* \"#utility.yul\":10379:10406   */\n      0x50726f647563742070726963652063616e6e6f74206265203000000000000000\n        /* \"#utility.yul\":10375:10376   */\n      0x00\n        /* \"#utility.yul\":10367:10373   */\n      dup3\n        /* \"#utility.yul\":10363:10377   */\n      add\n        /* \"#utility.yul\":10356:10407   */\n      mstore\n        /* \"#utility.yul\":10239:10414   */\n      pop\n      jump\t// out\n        /* \"#utility.yul\":10420:10786   */\n    tag_166:\n        /* \"#utility.yul\":10562:10565   */\n      0x00\n        /* \"#utility.yul\":10583:10650   */\n      tag_298\n        /* \"#utility.yul\":10647:10649   */\n      0x19\n        /* \"#utility.yul\":10642:10645   */\n      dup4\n        /* \"#utility.yul\":10583:10650   */\n      tag_152\n      jump\t// in\n    tag_298:\n        /* \"#utility.yul\":10576:10650   */\n      swap2\n      pop\n        /* \"#utility.yul\":10659:10752   */\n      tag_299\n        /* \"#utility.yul\":10748:10751   */\n      dup3\n        /* \"#utility.yul\":10659:10752   */\n      tag_165\n      jump\t// in\n    tag_299:\n        /* \"#utility.yul\":10777:10779   */\n      0x20\n        /* \"#utility.yul\":10772:10775   */\n      dup3\n        /* \"#utility.yul\":10768:10780   */\n      add\n        /* \"#utility.yul\":10761:10780   */\n      swap1\n      pop\n        /* \"#utility.yul\":10420:10786   */\n      swap2\n      swap1\n      pop\n      jump\t// out\n        /* \"#utility.yul\":10792:11211   */\n    tag_76:\n        /* \"#utility.yul\":10958:10962   */\n      0x00\n        /* \"#utility.yul\":10996:10998   */\n      0x20\n        /* \"#utility.yul\":10985:10994   */\n      dup3\n        /* \"#utility.yul\":10981:10999   */\n      add\n        /* \"#utility.yul\":10973:10999   */\n      swap1\n      pop\n        /* \"#utility.yul\":11045:11054   */\n      dup2\n        /* \"#utility.yul\":11039:11043   */\n      dup2\n        /* \"#utility.yul\":11035:11055   */\n      sub\n        /* \"#utility.yul\":11031:11032   */\n      0x00\n        /* \"#utility.yul\":11020:11029   */\n      dup4\n        /* \"#utility.yul\":11016:11033   */\n      add\n        /* \"#utility.yul\":11009:11056   */\n      mstore\n        /* \"#utility.yul\":11073:11204   */\n      tag_301\n        /* \"#utility.yul\":11199:11203   */\n      dup2\n        /* \"#utility.yul\":11073:11204   */\n      tag_166\n      jump\t// in\n    tag_301:\n        /* \"#utility.yul\":11065:11204   */\n      swap1\n      pop\n        /* \"#utility.yul\":10792:11211   */\n      swap2\n      swap1\n      pop\n      jump\t// out\n        /* \"#utility.yul\":11217:11565   */\n    tag_80:\n        /* \"#utility.yul\":11257:11264   */\n      0x00\n        /* \"#utility.yul\":11280:11300   */\n      tag_303\n        /* \"#utility.yul\":11298:11299   */\n      dup3\n        /* \"#utility.yul\":11280:11300   */\n      tag_135\n      jump\t// in\n    tag_303:\n        /* \"#utility.yul\":11275:11300   */\n      swap2\n      pop\n        /* \"#utility.yul\":11314:11334   */\n      tag_304\n        /* \"#utility.yul\":11332:11333   */\n      dup4\n        /* \"#utility.yul\":11314:11334   */\n      tag_135\n      jump\t// in\n    tag_304:\n        /* \"#utility.yul\":11309:11334   */\n      swap3\n      pop\n        /* \"#utility.yul\":11502:11503   */\n      dup2\n        /* \"#utility.yul\":11434:11500   */\n      0xffffffffffffffffffffffffffffffffffffffffffffffffffffffffffffffff\n        /* \"#utility.yul\":11430:11504   */\n      div\n        /* \"#utility.yul\":11427:11428   */\n      dup4\n        /* \"#utility.yul\":11424:11505   */\n      gt\n        /* \"#utility.yul\":11419:11420   */\n      dup3\n        /* \"#utility.yul\":11412:11421   */\n      iszero\n        /* \"#utility.yul\":11405:11422   */\n      iszero\n        /* \"#utility.yul\":11401:11506   */\n      and\n        /* \"#utility.yul\":11398:11529   */\n      iszero\n      tag_305\n      jumpi\n        /* \"#utility.yul\":11509:11527   */\n      tag_306\n      tag_162\n      jump\t// in\n    tag_306:\n        /* \"#utility.yul\":11398:11529   */\n    tag_305:\n        /* \"#utility.yul\":11557:11558   */\n      dup3\n        /* \"#utility.yul\":11554:11555   */\n      dup3\n        /* \"#utility.yul\":11550:11559   */\n      mul\n        /* \"#utility.yul\":11539:11559   */\n      swap1\n      pop\n        /* \"#utility.yul\":11217:11565   */\n      swap3\n      swap2\n      pop\n      pop\n      jump\t// out\n        /* \"#utility.yul\":11571:11751   */\n    tag_167:\n        /* \"#utility.yul\":11619:11696   */\n      0x4e487b7100000000000000000000000000000000000000000000000000000000\n        /* \"#utility.yul\":11616:11617   */\n      0x00\n        /* \"#utility.yul\":11609:11697   */\n      mstore\n        /* \"#utility.yul\":11716:11720   */\n      0x22\n        /* \"#utility.yul\":11713:11714   */\n      0x04\n        /* \"#utility.yul\":11706:11721   */\n      mstore\n        /* \"#utility.yul\":11740:11744   */\n      0x24\n        /* \"#utility.yul\":11737:11738   */\n      0x00\n        /* \"#utility.yul\":11730:11745   */\n      revert\n        /* \"#utility.yul\":11757:12077   */\n    tag_92:\n        /* \"#utility.yul\":11801:11807   */\n      0x00\n        /* \"#utility.yul\":11838:11839   */\n      0x02\n        /* \"#utility.yul\":11832:11836   */\n      dup3\n        /* \"#utility.yul\":11828:11840   */\n      div\n        /* \"#utility.yul\":11818:11840   */\n      swap1\n      pop\n        /* \"#utility.yul\":11885:11886   */\n      0x01\n        /* \"#utility.yul\":11879:11883   */\n      dup3\n        /* \"#utility.yul\":11875:11887   */\n      and\n        /* \"#utility.yul\":11906:11924   */\n      dup1\n        /* \"#utility.yul\":11896:11977   */\n      tag_309\n      jumpi\n        /* \"#utility.yul\":11962:11966   */\n      0x7f\n        /* \"#utility.yul\":11954:11960   */\n      dup3\n        /* \"#utility.yul\":11950:11967   */\n      and\n        /* \"#utility.yul\":11940:11967   */\n      swap2\n      pop\n        /* \"#utility.yul\":11896:11977   */\n    tag_309:\n        /* \"#utility.yul\":12024:12026   */\n      0x20\n        /* \"#utility.yul\":12016:12022   */\n      dup3\n        /* \"#utility.yul\":12013:12027   */\n      lt\n        /* \"#utility.yul\":11993:12011   */\n      dup2\n        /* \"#utility.yul\":11990:12028   */\n      sub\n        /* \"#utility.yul\":11987:12071   */\n      tag_310\n      jumpi\n        /* \"#utility.yul\":12043:12061   */\n      tag_311\n      tag_167\n      jump\t// in\n    tag_311:\n        /* \"#utility.yul\":11987:12071   */\n    tag_310:\n        /* \"#utility.yul\":11808:12077   */\n      pop\n        /* \"#utility.yul\":11757:12077   */\n      swap2\n      swap1\n      pop\n      jump\t// out\n        /* \"#utility.yul\":12083:12224   */\n    tag_168:\n        /* \"#utility.yul\":12132:12136   */\n      0x00\n        /* \"#utility.yul\":12155:12158   */\n      dup2\n        /* \"#utility.yul\":12147:12158   */\n      swap1\n      pop\n        /* \"#utility.yul\":12178:12181   */\n      dup2\n        /* \"#utility.yul\":12175:12176   */\n      0x00\n        /* \"#utility.yul\":12168:12182   */\n      mstore\n        /* \"#utility.yul\":12212:12216   */\n      0x20\n        /* \"#utility.yul\":12209:12210   */\n      0x00\n        /* \"#utility.yul\":12199:12217   */\n      keccak256\n        /* \"#utility.yul\":12191:12217   */\n      swap1\n      pop\n        /* \"#utility.yul\":12083:12224   */\n      swap2\n      swap1\n      pop\n      jump\t// out\n        /* \"#utility.yul\":12230:12323   */\n    tag_169:\n        /* \"#utility.yul\":12267:12273   */\n      0x00\n        /* \"#utility.yul\":12314:12316   */\n      0x20\n        /* \"#utility.yul\":12309:12311   */\n      0x1f\n        /* \"#utility.yul\":12302:12307   */\n      dup4\n        /* \"#utility.yul\":12298:12312   */\n      add\n        /* \"#utility.yul\":12294:12317   */\n      div\n        /* \"#utility.yul\":12284:12317   */\n      swap1\n      pop\n        /* \"#utility.yul\":12230:12323   */\n      swap2\n      swap1\n      pop\n      jump\t// out\n        /* \"#utility.yul\":12329:12436   */\n    tag_170:\n        /* \"#utility.yul\":12373:12381   */\n      0x00\n        /* \"#utility.yul\":12423:12428   */\n      dup3\n        /* \"#utility.yul\":12417:12421   */\n      dup3\n        /* \"#utility.yul\":12413:12429   */\n      shl\n        /* \"#utility.yul\":12392:12429   */\n      swap1\n      pop\n        /* \"#utility.yul\":12329:12436   */\n      swap3\n      swap2\n      pop\n      pop\n      jump\t// out\n        /* \"#utility.yul\":12442:12835   */\n    tag_171:\n        /* \"#utility.yul\":12511:12517   */\n      0x00\n        /* \"#utility.yul\":12561:12562   */\n      0x08\n        /* \"#utility.yul\":12549:12559   */\n      dup4\n        /* \"#utility.yul\":12545:12563   */\n      mul\n        /* \"#utility.yul\":12584:12681   */\n      tag_316\n        /* \"#utility.yul\":12614:12680   */\n      0xffffffffffffffffffffffffffffffffffffffffffffffffffffffffffffffff\n        /* \"#utility.yul\":12603:12612   */\n      dup3\n        /* \"#utility.yul\":12584:12681   */\n      tag_170\n      jump\t// in\n    tag_316:\n        /* \"#utility.yul\":12702:12741   */\n      tag_317\n        /* \"#utility.yul\":12732:12740   */\n      dup7\n        /* \"#utility.yul\":12721:12730   */\n      dup4\n        /* \"#utility.yul\":12702:12741   */\n      tag_170\n      jump\t// in\n    tag_317:\n        /* \"#utility.yul\":12690:12741   */\n      swap6\n      pop\n        /* \"#utility.yul\":12774:12778   */\n      dup1\n        /* \"#utility.yul\":12770:12779   */\n      not\n        /* \"#utility.yul\":12763:12768   */\n      dup5\n        /* \"#utility.yul\":12759:12780   */\n      and\n        /* \"#utility.yul\":12750:12780   */\n      swap4\n      pop\n        /* \"#utility.yul\":12823:12827   */\n      dup1\n        /* \"#utility.yul\":12813:12821   */\n      dup7\n        /* \"#utility.yul\":12809:12828   */\n      and\n        /* \"#utility.yul\":12802:12807   */\n      dup5\n        /* \"#utility.yul\":12799:12829   */\n      or\n        /* \"#utility.yul\":12789:12829   */\n      swap3\n      pop\n        /* \"#utility.yul\":12518:12835   */\n      pop\n      pop\n        /* \"#utility.yul\":12442:12835   */\n      swap4\n      swap3\n      pop\n      pop\n      pop\n      jump\t// out\n        /* \"#utility.yul\":12841:12901   */\n    tag_172:\n        /* \"#utility.yul\":12869:12872   */\n      0x00\n        /* \"#utility.yul\":12890:12895   */\n      dup2\n        /* \"#utility.yul\":12883:12895   */\n      swap1\n      pop\n        /* \"#utility.yul\":12841:12901   */\n      swap2\n      swap1\n      pop\n      jump\t// out\n        /* \"#utility.yul\":12907:13049   */\n    tag_173:\n        /* \"#utility.yul\":12957:12966   */\n      0x00\n        /* \"#utility.yul\":12990:13043   */\n      tag_320\n        /* \"#utility.yul\":13008:13042   */\n      tag_321\n        /* \"#utility.yul\":13017:13041   */\n      tag_322\n        /* \"#utility.yul\":13035:13040   */\n      dup5\n        /* \"#utility.yul\":13017:13041   */\n      tag_135\n      jump\t// in\n    tag_322:\n        /* \"#utility.yul\":13008:13042   */\n      tag_172\n      jump\t// in\n    tag_321:\n        /* \"#utility.yul\":12990:13043   */\n      tag_135\n      jump\t// in\n    tag_320:\n        /* \"#utility.yul\":12977:13043   */\n      swap1\n      pop\n        /* \"#utility.yul\":12907:13049   */\n      swap2\n      swap1\n      pop\n      jump\t// out\n        /* \"#utility.yul\":13055:13130   */\n    tag_174:\n        /* \"#utility.yul\":13098:13101   */\n      0x00\n        /* \"#utility.yul\":13119:13124   */\n      dup2\n        /* \"#utility.yul\":13112:13124   */\n      swap1\n      pop\n        /* \"#utility.yul\":13055:13130   */\n      swap2\n      swap1\n      pop\n      jump\t// out\n        /* \"#utility.yul\":13136:13405   */\n    tag_175:\n        /* \"#utility.yul\":13246:13285   */\n      tag_325\n        /* \"#utility.yul\":13277:13284   */\n      dup4\n        /* \"#utility.yul\":13246:13285   */\n      tag_173\n      jump\t// in\n    tag_325:\n        /* \"#utility.yul\":13307:13398   */\n      tag_326\n        /* \"#utility.yul\":13356:13397   */\n      tag_327\n        /* \"#utility.yul\":13380:13396   */\n      dup3\n        /* \"#utility.yul\":13356:13397   */\n      tag_174\n      jump\t// in\n    tag_327:\n        /* \"#utility.yul\":13348:13354   */\n      dup5\n        /* \"#utility.yul\":13341:13345   */\n      dup5\n        /* \"#utility.yul\":13335:13346   */\n      sload\n        /* \"#utility.yul\":13307:13398   */\n      tag_171\n      jump\t// in\n    tag_326:\n        /* \"#utility.yul\":13301:13305   */\n      dup3\n        /* \"#utility.yul\":13294:13399   */\n      sstore\n        /* \"#utility.yul\":13212:13405   */\n      pop\n        /* \"#utility.yul\":13136:13405   */\n      pop\n      pop\n      pop\n      jump\t// out\n        /* \"#utility.yul\":13411:13484   */\n    tag_176:\n        /* \"#utility.yul\":13456:13459   */\n      0x00\n        /* \"#utility.yul\":13411:13484   */\n      swap1\n      jump\t// out\n        /* \"#utility.yul\":13490:13679   */\n    tag_177:\n        /* \"#utility.yul\":13567:13599   */\n      tag_330\n      tag_176\n      jump\t// in\n    tag_330:\n        /* \"#utility.yul\":13608:13673   */\n      tag_331\n        /* \"#utility.yul\":13666:13672   */\n      dup2\n        /* \"#utility.yul\":13658:13664   */\n      dup5\n        /* \"#utility.yul\":13652:13656   */\n      dup5\n        /* \"#utility.yul\":13608:13673   */\n      tag_175\n      jump\t// in\n    tag_331:\n        /* \"#utility.yul\":13543:13679   */\n      pop\n        /* \"#utility.yul\":13490:13679   */\n      pop\n      pop\n      jump\t// out\n        /* \"#utility.yul\":13685:13871   */\n    tag_178:\n        /* \"#utility.yul\":13745:13865   */\n    tag_333:\n        /* \"#utility.yul\":13762:13765   */\n      dup2\n        /* \"#utility.yul\":13755:13760   */\n      dup2\n        /* \"#utility.yul\":13752:13766   */\n      lt\n        /* \"#utility.yul\":13745:13865   */\n      iszero\n      tag_335\n      jumpi\n        /* \"#utility.yul\":13816:13855   */\n      tag_336\n        /* \"#utility.yul\":13853:13854   */\n      0x00\n        /* \"#utility.yul\":13846:13851   */\n      dup3\n        /* \"#utility.yul\":13816:13855   */\n      tag_177\n      jump\t// in\n    tag_336:\n        /* \"#utility.yul\":13789:13790   */\n      0x01\n        /* \"#utility.yul\":13782:13787   */\n      dup2\n        /* \"#utility.yul\":13778:13791   */\n      add\n        /* \"#utility.yul\":13769:13791   */\n      swap1\n      pop\n        /* \"#utility.yul\":13745:13865   */\n      jump(tag_333)\n    tag_335:\n        /* \"#utility.yul\":13685:13871   */\n      pop\n      pop\n      jump\t// out\n        /* \"#utility.yul\":13877:14420   */\n    tag_179:\n        /* \"#utility.yul\":13978:13980   */\n      0x1f\n        /* \"#utility.yul\":13973:13976   */\n      dup3\n        /* \"#utility.yul\":13970:13981   */\n      gt\n        /* \"#utility.yul\":13967:14413   */\n      iszero\n      tag_338\n      jumpi\n        /* \"#utility.yul\":14012:14050   */\n      tag_339\n        /* \"#utility.yul\":14044:14049   */\n      dup2\n        /* \"#utility.yul\":14012:14050   */\n      tag_168\n      jump\t// in\n    tag_339:\n        /* \"#utility.yul\":14096:14125   */\n      tag_340\n        /* \"#utility.yul\":14114:14124   */\n      dup5\n        /* \"#utility.yul\":14096:14125   */\n      tag_169\n      jump\t// in\n    tag_340:\n        /* \"#utility.yul\":14086:14094   */\n      dup2\n        /* \"#utility.yul\":14082:14126   */\n      add\n        /* \"#utility.yul\":14279:14281   */\n      0x20\n        /* \"#utility.yul\":14267:14277   */\n      dup6\n        /* \"#utility.yul\":14264:14282   */\n      lt\n        /* \"#utility.yul\":14261:14310   */\n      iszero\n      tag_341\n      jumpi\n        /* \"#utility.yul\":14300:14308   */\n      dup2\n        /* \"#utility.yul\":14285:14308   */\n      swap1\n      pop\n        /* \"#utility.yul\":14261:14310   */\n    tag_341:\n        /* \"#utility.yul\":14323:14403   */\n      tag_342\n        /* \"#utility.yul\":14379:14401   */\n      tag_343\n        /* \"#utility.yul\":14397:14400   */\n      dup6\n        /* \"#utility.yul\":14379:14401   */\n      tag_169\n      jump\t// in\n    tag_343:\n        /* \"#utility.yul\":14369:14377   */\n      dup4\n        /* \"#utility.yul\":14365:14402   */\n      add\n        /* \"#utility.yul\":14352:14363   */\n      dup3\n        /* \"#utility.yul\":14323:14403   */\n      tag_178\n      jump\t// in\n    tag_342:\n        /* \"#utility.yul\":13982:14413   */\n      pop\n      pop\n        /* \"#utility.yul\":13967:14413   */\n    tag_338:\n        /* \"#utility.yul\":13877:14420   */\n      pop\n      pop\n      pop\n      jump\t// out\n        /* \"#utility.yul\":14426:14543   */\n    tag_180:\n        /* \"#utility.yul\":14480:14488   */\n      0x00\n        /* \"#utility.yul\":14530:14535   */\n      dup3\n        /* \"#utility.yul\":14524:14528   */\n      dup3\n        /* \"#utility.yul\":14520:14536   */\n      shr\n        /* \"#utility.yul\":14499:14536   */\n      swap1\n      pop\n        /* \"#utility.yul\":14426:14543   */\n      swap3\n      swap2\n      pop\n      pop\n      jump\t// out\n        /* \"#utility.yul\":14549:14718   */\n    tag_181:\n        /* \"#utility.yul\":14593:14599   */\n      0x00\n        /* \"#utility.yul\":14626:14677   */\n      tag_346\n        /* \"#utility.yul\":14674:14675   */\n      0x00\n        /* \"#utility.yul\":14670:14676   */\n      not\n        /* \"#utility.yul\":14662:14667   */\n      dup5\n        /* \"#utility.yul\":14659:14660   */\n      0x08\n        /* \"#utility.yul\":14655:14668   */\n      mul\n        /* \"#utility.yul\":14626:14677   */\n      tag_180\n      jump\t// in\n    tag_346:\n        /* \"#utility.yul\":14622:14678   */\n      not\n        /* \"#utility.yul\":14707:14711   */\n      dup1\n        /* \"#utility.yul\":14701:14705   */\n      dup4\n        /* \"#utility.yul\":14697:14712   */\n      and\n        /* \"#utility.yul\":14687:14712   */\n      swap2\n      pop\n        /* \"#utility.yul\":14600:14718   */\n      pop\n        /* \"#utility.yul\":14549:14718   */\n      swap3\n      swap2\n      pop\n      pop\n      jump\t// out\n        /* \"#utility.yul\":14723:15018   */\n    tag_182:\n        /* \"#utility.yul\":14799:14803   */\n      0x00\n        /* \"#utility.yul\":14945:14974   */\n      tag_348\n        /* \"#utility.yul\":14970:14973   */\n      dup4\n        /* \"#utility.yul\":14964:14968   */\n      dup4\n        /* \"#utility.yul\":14945:14974   */\n      tag_181\n      jump\t// in\n    tag_348:\n        /* \"#utility.yul\":14937:14974   */\n      swap2\n      pop\n        /* \"#utility.yul\":15007:15010   */\n      dup3\n        /* \"#utility.yul\":15004:15005   */\n      0x02\n        /* \"#utility.yul\":15000:15011   */\n      mul\n        /* \"#utility.yul\":14994:14998   */\n      dup3\n        /* \"#utility.yul\":14991:15012   */\n      or\n        /* \"#utility.yul\":14983:15012   */\n      swap1\n      pop\n        /* \"#utility.yul\":14723:15018   */\n      swap3\n      swap2\n      pop\n      pop\n      jump\t// out\n        /* \"#utility.yul\":15023:16418   */\n    tag_83:\n        /* \"#utility.yul\":15140:15177   */\n      tag_350\n        /* \"#utility.yul\":15173:15176   */\n      dup3\n        /* \"#utility.yul\":15140:15177   */\n      tag_151\n      jump\t// in\n    tag_350:\n        /* \"#utility.yul\":15242:15260   */\n      0xffffffffffffffff\n        /* \"#utility.yul\":15234:15240   */\n      dup2\n        /* \"#utility.yul\":15231:15261   */\n      gt\n        /* \"#utility.yul\":15228:15284   */\n      iszero\n      tag_351\n      jumpi\n        /* \"#utility.yul\":15264:15282   */\n      tag_352\n      tag_144\n      jump\t// in\n    tag_352:\n        /* \"#utility.yul\":15228:15284   */\n    tag_351:\n        /* \"#utility.yul\":15308:15346   */\n      tag_353\n        /* \"#utility.yul\":15340:15344   */\n      dup3\n        /* \"#utility.yul\":15334:15345   */\n      sload\n        /* \"#utility.yul\":15308:15346   */\n      tag_92\n      jump\t// in\n    tag_353:\n        /* \"#utility.yul\":15393:15460   */\n      tag_354\n        /* \"#utility.yul\":15453:15459   */\n      dup3\n        /* \"#utility.yul\":15445:15451   */\n      dup3\n        /* \"#utility.yul\":15439:15443   */\n      dup6\n        /* \"#utility.yul\":15393:15460   */\n      tag_179\n      jump\t// in\n    tag_354:\n        /* \"#utility.yul\":15487:15488   */\n      0x00\n        /* \"#utility.yul\":15511:15515   */\n      0x20\n        /* \"#utility.yul\":15498:15515   */\n      swap1\n      pop\n        /* \"#utility.yul\":15543:15545   */\n      0x1f\n        /* \"#utility.yul\":15535:15541   */\n      dup4\n        /* \"#utility.yul\":15532:15546   */\n      gt\n        /* \"#utility.yul\":15560:15561   */\n      0x01\n        /* \"#utility.yul\":15555:16173   */\n      dup2\n      eq\n      tag_356\n      jumpi\n        /* \"#utility.yul\":16217:16218   */\n      0x00\n        /* \"#utility.yul\":16234:16240   */\n      dup5\n        /* \"#utility.yul\":16231:16308   */\n      iszero\n      tag_357\n      jumpi\n        /* \"#utility.yul\":16283:16292   */\n      dup3\n        /* \"#utility.yul\":16278:16281   */\n      dup8\n        /* \"#utility.yul\":16274:16293   */\n      add\n        /* \"#utility.yul\":16268:16294   */\n      mload\n        /* \"#utility.yul\":16259:16294   */\n      swap1\n      pop\n        /* \"#utility.yul\":16231:16308   */\n    tag_357:\n        /* \"#utility.yul\":16334:16401   */\n      tag_358\n        /* \"#utility.yul\":16394:16400   */\n      dup6\n        /* \"#utility.yul\":16387:16392   */\n      dup3\n        /* \"#utility.yul\":16334:16401   */\n      tag_182\n      jump\t// in\n    tag_358:\n        /* \"#utility.yul\":16328:16332   */\n      dup7\n        /* \"#utility.yul\":16321:16402   */\n      sstore\n        /* \"#utility.yul\":16190:16412   */\n      pop\n        /* \"#utility.yul\":15525:16412   */\n      jump(tag_355)\n        /* \"#utility.yul\":15555:16173   */\n    tag_356:\n        /* \"#utility.yul\":15607:15611   */\n      0x1f\n        /* \"#utility.yul\":15603:15612   */\n      not\n        /* \"#utility.yul\":15595:15601   */\n      dup5\n        /* \"#utility.yul\":15591:15613   */\n      and\n        /* \"#utility.yul\":15641:15678   */\n      tag_359\n        /* \"#utility.yul\":15673:15677   */\n      dup7\n        /* \"#utility.yul\":15641:15678   */\n      tag_168\n      jump\t// in\n    tag_359:\n        /* \"#utility.yul\":15700:15701   */\n      0x00\n        /* \"#utility.yul\":15714:15922   */\n    tag_360:\n        /* \"#utility.yul\":15728:15735   */\n      dup3\n        /* \"#utility.yul\":15725:15726   */\n      dup2\n        /* \"#utility.yul\":15722:15736   */\n      lt\n        /* \"#utility.yul\":15714:15922   */\n      iszero\n      tag_362\n      jumpi\n        /* \"#utility.yul\":15807:15816   */\n      dup5\n        /* \"#utility.yul\":15802:15805   */\n      dup10\n        /* \"#utility.yul\":15798:15817   */\n      add\n        /* \"#utility.yul\":15792:15818   */\n      mload\n        /* \"#utility.yul\":15784:15790   */\n      dup3\n        /* \"#utility.yul\":15777:15819   */\n      sstore\n        /* \"#utility.yul\":15858:15859   */\n      0x01\n        /* \"#utility.yul\":15850:15856   */\n      dup3\n        /* \"#utility.yul\":15846:15860   */\n      add\n        /* \"#utility.yul\":15836:15860   */\n      swap2\n      pop\n        /* \"#utility.yul\":15905:15907   */\n      0x20\n        /* \"#utility.yul\":15894:15903   */\n      dup6\n        /* \"#utility.yul\":15890:15908   */\n      add\n        /* \"#utility.yul\":15877:15908   */\n      swap5\n      pop\n        /* \"#utility.yul\":15751:15755   */\n      0x20\n        /* \"#utility.yul\":15748:15749   */\n      dup2\n        /* \"#utility.yul\":15744:15756   */\n      add\n        /* \"#utility.yul\":15739:15756   */\n      swap1\n      pop\n        /* \"#utility.yul\":15714:15922   */\n      jump(tag_360)\n    tag_362:\n        /* \"#utility.yul\":15950:15956   */\n      dup7\n        /* \"#utility.yul\":15941:15948   */\n      dup4\n        /* \"#utility.yul\":15938:15957   */\n      lt\n        /* \"#utility.yul\":15935:16114   */\n      iszero\n      tag_363\n      jumpi\n        /* \"#utility.yul\":16008:16017   */\n      dup5\n        /* \"#utility.yul\":16003:16006   */\n      dup10\n        /* \"#utility.yul\":15999:16018   */\n      add\n        /* \"#utility.yul\":15993:16019   */\n      mload\n        /* \"#utility.yul\":16051:16099   */\n      tag_364\n        /* \"#utility.yul\":16093:16097   */\n      0x1f\n        /* \"#utility.yul\":16085:16091   */\n      dup10\n        /* \"#utility.yul\":16081:16098   */\n      and\n        /* \"#utility.yul\":16070:16079   */\n      dup3\n        /* \"#utility.yul\":16051:16099   */\n      tag_181\n      jump\t// in\n    tag_364:\n        /* \"#utility.yul\":16043:16049   */\n      dup4\n        /* \"#utility.yul\":16036:16100   */\n      sstore\n        /* \"#utility.yul\":15958:16114   */\n      pop\n        /* \"#utility.yul\":15935:16114   */\n    tag_363:\n        /* \"#utility.yul\":16160:16161   */\n      0x01\n        /* \"#utility.yul\":16156:16157   */\n      0x02\n        /* \"#utility.yul\":16148:16154   */\n      dup9\n        /* \"#utility.yul\":16144:16158   */\n      mul\n        /* \"#utility.yul\":16140:16162   */\n      add\n        /* \"#utility.yul\":16134:16138   */\n      dup9\n        /* \"#utility.yul\":16127:16163   */\n      sstore\n        /* \"#utility.yul\":15562:16173   */\n      pop\n      pop\n      pop\n        /* \"#utility.yul\":15525:16412   */\n    tag_355:\n      pop\n        /* \"#utility.yul\":15115:16418   */\n      pop\n      pop\n      pop\n        /* \"#utility.yul\":15023:16418   */\n      pop\n      pop\n      jump\t// out\n        /* \"#utility.yul\":16424:16657   */\n    tag_86:\n        /* \"#utility.yul\":16463:16466   */\n      0x00\n        /* \"#utility.yul\":16486:16510   */\n      tag_366\n        /* \"#utility.yul\":16504:16509   */\n      dup3\n        /* \"#utility.yul\":16486:16510   */\n      tag_135\n      jump\t// in\n    tag_366:\n        /* \"#utility.yul\":16477:16510   */\n      swap2\n      pop\n        /* \"#utility.yul\":16532:16598   */\n      0xffffffffffffffffffffffffffffffffffffffffffffffffffffffffffffffff\n        /* \"#utility.yul\":16525:16530   */\n      dup3\n        /* \"#utility.yul\":16522:16599   */\n      sub\n        /* \"#utility.yul\":16519:16622   */\n      tag_367\n      jumpi\n        /* \"#utility.yul\":16602:16620   */\n      tag_368\n      tag_162\n      jump\t// in\n    tag_368:\n        /* \"#utility.yul\":16519:16622   */\n    tag_367:\n        /* \"#utility.yul\":16649:16650   */\n      0x01\n        /* \"#utility.yul\":16642:16647   */\n      dup3\n        /* \"#utility.yul\":16638:16651   */\n      add\n        /* \"#utility.yul\":16631:16651   */\n      swap1\n      pop\n        /* \"#utility.yul\":16424:16657   */\n      swap2\n      swap1\n      pop\n      jump\t// out\n        /* \"#utility.yul\":16663:17196   */\n    tag_88:\n        /* \"#utility.yul\":16832:16836   */\n      0x00\n        /* \"#utility.yul\":16870:16872   */\n      0x60\n        /* \"#utility.yul\":16859:16868   */\n      dup3\n        /* \"#utility.yul\":16855:16873   */\n      add\n        /* \"#utility.yul\":16847:16873   */\n      swap1\n      pop\n        /* \"#utility.yul\":16919:16928   */\n      dup2\n        /* \"#utility.yul\":16913:16917   */\n      dup2\n        /* \"#utility.yul\":16909:16929   */\n      sub\n        /* \"#utility.yul\":16905:16906   */\n      0x00\n        /* \"#utility.yul\":16894:16903   */\n      dup4\n        /* \"#utility.yul\":16890:16907   */\n      add\n        /* \"#utility.yul\":16883:16930   */\n      mstore\n        /* \"#utility.yul\":16947:17025   */\n      tag_370\n        /* \"#utility.yul\":17020:17024   */\n      dup2\n        /* \"#utility.yul\":17011:17017   */\n      dup7\n        /* \"#utility.yul\":16947:17025   */\n      tag_154\n      jump\t// in\n    tag_370:\n        /* \"#utility.yul\":16939:17025   */\n      swap1\n      pop\n        /* \"#utility.yul\":17035:17107   */\n      tag_371\n        /* \"#utility.yul\":17103:17105   */\n      0x20\n        /* \"#utility.yul\":17092:17101   */\n      dup4\n        /* \"#utility.yul\":17088:17106   */\n      add\n        /* \"#utility.yul\":17079:17085   */\n      dup6\n        /* \"#utility.yul\":17035:17107   */\n      tag_155\n      jump\t// in\n    tag_371:\n        /* \"#utility.yul\":17117:17189   */\n      tag_372\n        /* \"#utility.yul\":17185:17187   */\n      0x40\n        /* \"#utility.yul\":17174:17183   */\n      dup4\n        /* \"#utility.yul\":17170:17188   */\n      add\n        /* \"#utility.yul\":17161:17167   */\n      dup5\n        /* \"#utility.yul\":17117:17189   */\n      tag_157\n      jump\t// in\n    tag_372:\n        /* \"#utility.yul\":16663:17196   */\n      swap5\n      swap4\n      pop\n      pop\n      pop\n      pop\n      jump\t// out\n        /* \"#utility.yul\":17202:17377   */\n    tag_183:\n        /* \"#utility.yul\":17342:17369   */\n      0x4f6e6c79206d616e616765722063616e20646f20746869732100000000000000\n        /* \"#utility.yul\":17338:17339   */\n      0x00\n        /* \"#utility.yul\":17330:17336   */\n      dup3\n        /* \"#utility.yul\":17326:17340   */\n      add\n        /* \"#utility.yul\":17319:17370   */\n      mstore\n        /* \"#utility.yul\":17202:17377   */\n      pop\n      jump\t// out\n        /* \"#utility.yul\":17383:17749   */\n    tag_184:\n        /* \"#utility.yul\":17525:17528   */\n      0x00\n        /* \"#utility.yul\":17546:17613   */\n      tag_375\n        /* \"#utility.yul\":17610:17612   */\n      0x19\n        /* \"#utility.yul\":17605:17608   */\n      dup4\n        /* \"#utility.yul\":17546:17613   */\n      tag_152\n      jump\t// in\n    tag_375:\n        /* \"#utility.yul\":17539:17613   */\n      swap2\n      pop\n        /* \"#utility.yul\":17622:17715   */\n      tag_376\n        /* \"#utility.yul\":17711:17714   */\n      dup3\n        /* \"#utility.yul\":17622:17715   */\n      tag_183\n      jump\t// in\n    tag_376:\n        /* \"#utility.yul\":17740:17742   */\n      0x20\n        /* \"#utility.yul\":17735:17738   */\n      dup3\n        /* \"#utility.yul\":17731:17743   */\n      add\n        /* \"#utility.yul\":17724:17743   */\n      swap1\n      pop\n        /* \"#utility.yul\":17383:17749   */\n      swap2\n      swap1\n      pop\n      jump\t// out\n        /* \"#utility.yul\":17755:18174   */\n    tag_105:\n        /* \"#utility.yul\":17921:17925   */\n      0x00\n        /* \"#utility.yul\":17959:17961   */\n      0x20\n        /* \"#utility.yul\":17948:17957   */\n      dup3\n        /* \"#utility.yul\":17944:17962   */\n      add\n        /* \"#utility.yul\":17936:17962   */\n      swap1\n      pop\n        /* \"#utility.yul\":18008:18017   */\n      dup2\n        /* \"#utility.yul\":18002:18006   */\n      dup2\n        /* \"#utility.yul\":17998:18018   */\n      sub\n        /* \"#utility.yul\":17994:17995   */\n      0x00\n        /* \"#utility.yul\":17983:17992   */\n      dup4\n        /* \"#utility.yul\":17979:17996   */\n      add\n        /* \"#utility.yul\":17972:18019   */\n      mstore\n        /* \"#utility.yul\":18036:18167   */\n      tag_378\n        /* \"#utility.yul\":18162:18166   */\n      dup2\n        /* \"#utility.yul\":18036:18167   */\n      tag_184\n      jump\t// in\n    tag_378:\n        /* \"#utility.yul\":18028:18167   */\n      swap1\n      pop\n        /* \"#utility.yul\":17755:18174   */\n      swap2\n      swap1\n      pop\n      jump\t// out\n        /* \"#utility.yul\":18180:18356   */\n    tag_185:\n        /* \"#utility.yul\":18320:18348   */\n      0x706c656173652050617920746865206578616374207072696365000000000000\n        /* \"#utility.yul\":18316:18317   */\n      0x00\n        /* \"#utility.yul\":18308:18314   */\n      dup3\n        /* \"#utility.yul\":18304:18318   */\n      add\n        /* \"#utility.yul\":18297:18349   */\n      mstore\n        /* \"#utility.yul\":18180:18356   */\n      pop\n      jump\t// out\n        /* \"#utility.yul\":18362:18728   */\n    tag_186:\n        /* \"#utility.yul\":18504:18507   */\n      0x00\n        /* \"#utility.yul\":18525:18592   */\n      tag_381\n        /* \"#utility.yul\":18589:18591   */\n      0x1a\n        /* \"#utility.yul\":18584:18587   */\n      dup4\n        /* \"#utility.yul\":18525:18592   */\n      tag_152\n      jump\t// in\n    tag_381:\n        /* \"#utility.yul\":18518:18592   */\n      swap2\n      pop\n        /* \"#utility.yul\":18601:18694   */\n      tag_382\n        /* \"#utility.yul\":18690:18693   */\n      dup3\n        /* \"#utility.yul\":18601:18694   */\n      tag_185\n      jump\t// in\n    tag_382:\n        /* \"#utility.yul\":18719:18721   */\n      0x20\n        /* \"#utility.yul\":18714:18717   */\n      dup3\n        /* \"#utility.yul\":18710:18722   */\n      add\n        /* \"#utility.yul\":18703:18722   */\n      swap1\n      pop\n        /* \"#utility.yul\":18362:18728   */\n      swap2\n      swap1\n      pop\n      jump\t// out\n        /* \"#utility.yul\":18734:19153   */\n    tag_118:\n        /* \"#utility.yul\":18900:18904   */\n      0x00\n        /* \"#utility.yul\":18938:18940   */\n      0x20\n        /* \"#utility.yul\":18927:18936   */\n      dup3\n        /* \"#utility.yul\":18923:18941   */\n      add\n        /* \"#utility.yul\":18915:18941   */\n      swap1\n      pop\n        /* \"#utility.yul\":18987:18996   */\n      dup2\n        /* \"#utility.yul\":18981:18985   */\n      dup2\n        /* \"#utility.yul\":18977:18997   */\n      sub\n        /* \"#utility.yul\":18973:18974   */\n      0x00\n        /* \"#utility.yul\":18962:18971   */\n      dup4\n        /* \"#utility.yul\":18958:18975   */\n      add\n        /* \"#utility.yul\":18951:18998   */\n      mstore\n        /* \"#utility.yul\":19015:19146   */\n      tag_384\n        /* \"#utility.yul\":19141:19145   */\n      dup2\n        /* \"#utility.yul\":19015:19146   */\n      tag_186\n      jump\t// in\n    tag_384:\n        /* \"#utility.yul\":19007:19146   */\n      swap1\n      pop\n        /* \"#utility.yul\":18734:19153   */\n      swap2\n      swap1\n      pop\n      jump\t// out\n        /* \"#utility.yul\":19159:19331   */\n    tag_187:\n        /* \"#utility.yul\":19299:19323   */\n      0x53656c6c65722063616e6e6f7420626520627579657200000000000000000000\n        /* \"#utility.yul\":19295:19296   */\n      0x00\n        /* \"#utility.yul\":19287:19293   */\n      dup3\n        /* \"#utility.yul\":19283:19297   */\n      add\n        /* \"#utility.yul\":19276:19324   */\n      mstore\n        /* \"#utility.yul\":19159:19331   */\n      pop\n      jump\t// out\n        /* \"#utility.yul\":19337:19703   */\n    tag_188:\n        /* \"#utility.yul\":19479:19482   */\n      0x00\n        /* \"#utility.yul\":19500:19567   */\n      tag_387\n        /* \"#utility.yul\":19564:19566   */\n      0x16\n        /* \"#utility.yul\":19559:19562   */\n      dup4\n        /* \"#utility.yul\":19500:19567   */\n      tag_152\n      jump\t// in\n    tag_387:\n        /* \"#utility.yul\":19493:19567   */\n      swap2\n      pop\n        /* \"#utility.yul\":19576:19669   */\n      tag_388\n        /* \"#utility.yul\":19665:19668   */\n      dup3\n        /* \"#utility.yul\":19576:19669   */\n      tag_187\n      jump\t// in\n    tag_388:\n        /* \"#utility.yul\":19694:19696   */\n      0x20\n        /* \"#utility.yul\":19689:19692   */\n      dup3\n        /* \"#utility.yul\":19685:19697   */\n      add\n        /* \"#utility.yul\":19678:19697   */\n      swap1\n      pop\n        /* \"#utility.yul\":19337:19703   */\n      swap2\n      swap1\n      pop\n      jump\t// out\n        /* \"#utility.yul\":19709:20128   */\n    tag_125:\n        /* \"#utility.yul\":19875:19879   */\n      0x00\n        /* \"#utility.yul\":19913:19915   */\n      0x20\n        /* \"#utility.yul\":19902:19911   */\n      dup3\n        /* \"#utility.yul\":19898:19916   */\n      add\n        /* \"#utility.yul\":19890:19916   */\n      swap1\n      pop\n        /* \"#utility.yul\":19962:19971   */\n      dup2\n        /* \"#utility.yul\":19956:19960   */\n      dup2\n        /* \"#utility.yul\":19952:19972   */\n      sub\n        /* \"#utility.yul\":19948:19949   */\n      0x00\n        /* \"#utility.yul\":19937:19946   */\n      dup4\n        /* \"#utility.yul\":19933:19950   */\n      add\n        /* \"#utility.yul\":19926:19973   */\n      mstore\n        /* \"#utility.yul\":19990:20121   */\n      tag_390\n        /* \"#utility.yul\":20116:20120   */\n      dup2\n        /* \"#utility.yul\":19990:20121   */\n      tag_188\n      jump\t// in\n    tag_390:\n        /* \"#utility.yul\":19982:20121   */\n      swap1\n      pop\n        /* \"#utility.yul\":19709:20128   */\n      swap2\n      swap1\n      pop\n      jump\t// out\n        /* \"#utility.yul\":20134:20466   */\n    tag_131:\n        /* \"#utility.yul\":20255:20259   */\n      0x00\n        /* \"#utility.yul\":20293:20295   */\n      0x40\n        /* \"#utility.yul\":20282:20291   */\n      dup3\n        /* \"#utility.yul\":20278:20296   */\n      add\n        /* \"#utility.yul\":20270:20296   */\n      swap1\n      pop\n        /* \"#utility.yul\":20306:20377   */\n      tag_392\n        /* \"#utility.yul\":20374:20375   */\n      0x00\n        /* \"#utility.yul\":20363:20372   */\n      dup4\n        /* \"#utility.yul\":20359:20376   */\n      add\n        /* \"#utility.yul\":20350:20356   */\n      dup6\n        /* \"#utility.yul\":20306:20377   */\n      tag_155\n      jump\t// in\n    tag_392:\n        /* \"#utility.yul\":20387:20459   */\n      tag_393\n        /* \"#utility.yul\":20455:20457   */\n      0x20\n        /* \"#utility.yul\":20444:20453   */\n      dup4\n        /* \"#utility.yul\":20440:20458   */\n      add\n        /* \"#utility.yul\":20431:20437   */\n      dup5\n        /* \"#utility.yul\":20387:20459   */\n      tag_157\n      jump\t// in\n    tag_393:\n        /* \"#utility.yul\":20134:20466   */\n      swap4\n      swap3\n      pop\n      pop\n      pop\n      jump\t// out\n\n    auxdata: 0xa2646970667358221220c6d7d8ff1c31979d0b2588bba53c20e048598de3fa7893a5106e65420724a72664736f6c634300080f0033\n}\n",
				"bytecode": {
					"linkReferences": {},
					"object": "6080604052600180556000600260146101000a81548160ff02191690831515021790555034801561002f57600080fd5b5033600260006101000a81548173ffffffffffffffffffffffffffffffffffffffff021916908373ffffffffffffffffffffffffffffffffffffffff160217905550611760806100806000396000f3fe6080604052600436106100595760003560e01c80631144fd72146100a2578063481c6a75146100cb5780634c900dc6146100f65780637acc0b201461011f57806383197ef014610162578063d96a094a146101795761005a565b5b3373ffffffffffffffffffffffffffffffffffffffff166108fc349081150290604051600060405180830381858888f193505050501580156100a0573d6000803e3d6000fd5b005b3480156100ae57600080fd5b506100c960048036038101906100c49190610c64565b610195565b005b3480156100d757600080fd5b506100e06103f1565b6040516100ed9190610cd2565b60405180910390f35b34801561010257600080fd5b5061011d60048036038101906101189190610e33565b610417565b005b34801561012b57600080fd5b5061014660048036038101906101419190610c64565b61069e565b6040516101599796959493929190610f91565b60405180910390f35b34801561016e57600080fd5b5061017761084d565b005b610193600480360381019061018e9190610c64565b610981565b005b600260149054906101000a900460ff16156101e5576040517f08c379a00000000000000000000000000000000000000000000000000000000081526004016101dc9061105a565b60405180910390fd5b3373ffffffffffffffffffffffffffffffffffffffff16600060018361020b91906110a9565b8154811061021c5761021b6110dd565b5b906000526020600020906006020160050160009054906101000a900473ffffffffffffffffffffffffffffffffffffffff1673ffffffffffffffffffffffffffffffffffffffff16146102a4576040517f08c379a000000000000000000000000000000000000000000000000000000000815260040161029b90611158565b60405180910390fd5b600160006001836102b591906110a9565b815481106102c6576102c56110dd565b5b906000526020600020906006020160050160146101000a81548160ff02191690831515021790555060006001826102fd91906110a9565b8154811061030e5761030d6110dd565b5b906000526020600020906006020160020160009054906101000a900473ffffffffffffffffffffffffffffffffffffffff1673ffffffffffffffffffffffffffffffffffffffff166108fc600060018461036891906110a9565b81548110610379576103786110dd565b5b9060005260206000209060060201600401549081150290604051600060405180830381858888f193505050501580156103b6573d6000803e3d6000fd5b507f4b5e4108167a669a2da8b1edeb1bf605987224cec90eeca47f7f235104539f21816040516103e69190611178565b60405180910390a150565b600260009054906101000a900473ffffffffffffffffffffffffffffffffffffffff1681565b600260149054906101000a900460ff1615610467576040517f08c379a000000000000000000000000000000000000000000000000000000000815260040161045e9061105a565b60405180910390fd5b600081116104aa576040517f08c379a00000000000000000000000000000000000000000000000000000000081526004016104a1906111df565b60405180910390fd5b6104b2610baf565b838160000181905250828160200181905250670de0b6b3a7640000826104d891906111ff565b81608001818152505033816040019073ffffffffffffffffffffffffffffffffffffffff16908173ffffffffffffffffffffffffffffffffffffffff1681525050600154816060018181525050600081908060018154018082558091505060019003906000526020600020906006020160009091909190915060008201518160000190816105669190611465565b50602082015181600101908161057c9190611465565b5060408201518160020160006101000a81548173ffffffffffffffffffffffffffffffffffffffff021916908373ffffffffffffffffffffffffffffffffffffffff160217905550606082015181600301556080820151816004015560a08201518160050160006101000a81548173ffffffffffffffffffffffffffffffffffffffff021916908373ffffffffffffffffffffffffffffffffffffffff16021790555060c08201518160050160146101000a81548160ff02191690831515021790555050506001600081548092919061065490611537565b91905055507f2f2d57060110e728629fcdcfd43a3b0f571b51ca1899668910d777e935601e3e848260600151336040516106909392919061157f565b60405180910390a150505050565b600081815481106106ae57600080fd5b90600052602060002090600602016000915090508060000180546106d190611288565b80601f01602080910402602001604051908101604052809291908181526020018280546106fd90611288565b801561074a5780601f1061071f5761010080835404028352916020019161074a565b820191906000526020600020905b81548152906001019060200180831161072d57829003601f168201915b50505050509080600101805461075f90611288565b80601f016020809104026020016040519081016040528092919081815260200182805461078b90611288565b80156107d85780601f106107ad576101008083540402835291602001916107d8565b820191906000526020600020905b8154815290600101906020018083116107bb57829003601f168201915b5050505050908060020160009054906101000a900473ffffffffffffffffffffffffffffffffffffffff16908060030154908060040154908060050160009054906101000a900473ffffffffffffffffffffffffffffffffffffffff16908060050160149054906101000a900460ff16905087565b3373ffffffffffffffffffffffffffffffffffffffff16600260009054906101000a900473ffffffffffffffffffffffffffffffffffffffff1673ffffffffffffffffffffffffffffffffffffffff16146108dd576040517f08c379a00000000000000000000000000000000000000000000000000000000081526004016108d490611609565b60405180910390fd5b600260009054906101000a900473ffffffffffffffffffffffffffffffffffffffff1673ffffffffffffffffffffffffffffffffffffffff166108fc479081150290604051600060405180830381858888f19350505050158015610945573d6000803e3d6000fd5b50600260009054906101000a900473ffffffffffffffffffffffffffffffffffffffff1673ffffffffffffffffffffffffffffffffffffffff16ff5b600260149054906101000a900460ff16156109d1576040517f08c379a00000000000000000000000000000000000000000000000000000000081526004016109c89061105a565b60405180910390fd5b3460006001836109e191906110a9565b815481106109f2576109f16110dd565b5b90600052602060002090600602016004015414610a44576040517f08c379a0000000000000000000000000000000000000000000000000000000008152600401610a3b90611675565b60405180910390fd5b3373ffffffffffffffffffffffffffffffffffffffff166000600183610a6a91906110a9565b81548110610a7b57610a7a6110dd565b5b906000526020600020906006020160020160009054906101000a900473ffffffffffffffffffffffffffffffffffffffff1673ffffffffffffffffffffffffffffffffffffffff1603610b03576040517f08c379a0000000000000000000000000000000000000000000000000000000008152600401610afa906116e1565b60405180910390fd5b336000600183610b1391906110a9565b81548110610b2457610b236110dd565b5b906000526020600020906006020160050160006101000a81548173ffffffffffffffffffffffffffffffffffffffff021916908373ffffffffffffffffffffffffffffffffffffffff1602179055507fb575b1c878dc377bd63ce2baed968bf73f501ef259eaa44a369ecddf6a3a62418133604051610ba4929190611701565b60405180910390a150565b6040518060e001604052806060815260200160608152602001600073ffffffffffffffffffffffffffffffffffffffff1681526020016000815260200160008152602001600073ffffffffffffffffffffffffffffffffffffffff1681526020016000151581525090565b6000604051905090565b600080fd5b600080fd5b6000819050919050565b610c4181610c2e565b8114610c4c57600080fd5b50565b600081359050610c5e81610c38565b92915050565b600060208284031215610c7a57610c79610c24565b5b6000610c8884828501610c4f565b91505092915050565b600073ffffffffffffffffffffffffffffffffffffffff82169050919050565b6000610cbc82610c91565b9050919050565b610ccc81610cb1565b82525050565b6000602082019050610ce76000830184610cc3565b92915050565b600080fd5b600080fd5b6000601f19601f8301169050919050565b7f4e487b7100000000000000000000000000000000000000000000000000000000600052604160045260246000fd5b610d4082610cf7565b810181811067ffffffffffffffff82111715610d5f57610d5e610d08565b5b80604052505050565b6000610d72610c1a565b9050610d7e8282610d37565b919050565b600067ffffffffffffffff821115610d9e57610d9d610d08565b5b610da782610cf7565b9050602081019050919050565b82818337600083830152505050565b6000610dd6610dd184610d83565b610d68565b905082815260208101848484011115610df257610df1610cf2565b5b610dfd848285610db4565b509392505050565b600082601f830112610e1a57610e19610ced565b5b8135610e2a848260208601610dc3565b91505092915050565b600080600060608486031215610e4c57610e4b610c24565b5b600084013567ffffffffffffffff811115610e6a57610e69610c29565b5b610e7686828701610e05565b935050602084013567ffffffffffffffff811115610e9757610e96610c29565b5b610ea386828701610e05565b9250506040610eb486828701610c4f565b9150509250925092565b600081519050919050565b600082825260208201905092915050565b60005b83811015610ef8578082015181840152602081019050610edd565b83811115610f07576000848401525b50505050565b6000610f1882610ebe565b610f228185610ec9565b9350610f32818560208601610eda565b610f3b81610cf7565b840191505092915050565b610f4f81610c2e565b82525050565b6000610f6082610c91565b9050919050565b610f7081610f55565b82525050565b60008115159050919050565b610f8b81610f76565b82525050565b600060e0820190508181036000830152610fab818a610f0d565b90508181036020830152610fbf8189610f0d565b9050610fce6040830188610cc3565b610fdb6060830187610f46565b610fe86080830186610f46565b610ff560a0830185610f67565b61100260c0830184610f82565b98975050505050505050565b7f436f6e747261637420646f6573206e6f74206578697374730000000000000000600082015250565b6000611044601883610ec9565b915061104f8261100e565b602082019050919050565b6000602082019050818103600083015261107381611037565b9050919050565b7f4e487b7100000000000000000000000000000000000000000000000000000000600052601160045260246000fd5b60006110b482610c2e565b91506110bf83610c2e565b9250828210156110d2576110d161107a565b5b828203905092915050565b7f4e487b7100000000000000000000000000000000000000000000000000000000600052603260045260246000fd5b7f4f6e6c792062757965722063616e20747261636b000000000000000000000000600082015250565b6000611142601483610ec9565b915061114d8261110c565b602082019050919050565b6000602082019050818103600083015261117181611135565b9050919050565b600060208201905061118d6000830184610f46565b92915050565b7f50726f647563742070726963652063616e6e6f74206265203000000000000000600082015250565b60006111c9601983610ec9565b91506111d482611193565b602082019050919050565b600060208201905081810360008301526111f8816111bc565b9050919050565b600061120a82610c2e565b915061121583610c2e565b9250817fffffffffffffffffffffffffffffffffffffffffffffffffffffffffffffffff048311821515161561124e5761124d61107a565b5b828202905092915050565b7f4e487b7100000000000000000000000000000000000000000000000000000000600052602260045260246000fd5b600060028204905060018216806112a057607f821691505b6020821081036112b3576112b2611259565b5b50919050565b60008190508160005260206000209050919050565b60006020601f8301049050919050565b600082821b905092915050565b60006008830261131b7fffffffffffffffffffffffffffffffffffffffffffffffffffffffffffffffff826112de565b61132586836112de565b95508019841693508086168417925050509392505050565b6000819050919050565b600061136261135d61135884610c2e565b61133d565b610c2e565b9050919050565b6000819050919050565b61137c83611347565b61139061138882611369565b8484546112eb565b825550505050565b600090565b6113a5611398565b6113b0818484611373565b505050565b5b818110156113d4576113c960008261139d565b6001810190506113b6565b5050565b601f821115611419576113ea816112b9565b6113f3846112ce565b81016020851015611402578190505b61141661140e856112ce565b8301826113b5565b50505b505050565b600082821c905092915050565b600061143c6000198460080261141e565b1980831691505092915050565b6000611455838361142b565b9150826002028217905092915050565b61146e82610ebe565b67ffffffffffffffff81111561148757611486610d08565b5b6114918254611288565b61149c8282856113d8565b600060209050601f8311600181146114cf57600084156114bd578287015190505b6114c78582611449565b86555061152f565b601f1984166114dd866112b9565b60005b82811015611505578489015182556001820191506020850194506020810190506114e0565b86831015611522578489015161151e601f89168261142b565b8355505b6001600288020188555050505b505050505050565b600061154282610c2e565b91507fffffffffffffffffffffffffffffffffffffffffffffffffffffffffffffffff82036115745761157361107a565b5b600182019050919050565b600060608201905081810360008301526115998186610f0d565b90506115a86020830185610f46565b6115b56040830184610f67565b949350505050565b7f4f6e6c79206d616e616765722063616e20646f20746869732100000000000000600082015250565b60006115f3601983610ec9565b91506115fe826115bd565b602082019050919050565b60006020820190508181036000830152611622816115e6565b9050919050565b7f706c656173652050617920746865206578616374207072696365000000000000600082015250565b600061165f601a83610ec9565b915061166a82611629565b602082019050919050565b6000602082019050818103600083015261168e81611652565b9050919050565b7f53656c6c65722063616e6e6f7420626520627579657200000000000000000000600082015250565b60006116cb601683610ec9565b91506116d682611695565b602082019050919050565b600060208201905081810360008301526116fa816116be565b9050919050565b60006040820190506117166000830185610f46565b6117236020830184610f67565b939250505056fea2646970667358221220c6d7d8ff1c31979d0b2588bba53c20e048598de3fa7893a5106e65420724a72664736f6c634300080f0033",
					"opcodes": "PUSH1 0x80 PUSH1 0x40 MSTORE PUSH1 0x1 DUP1 SSTORE PUSH1 0x0 PUSH1 0x2 PUSH1 0x14 PUSH2 0x100 EXP DUP2 SLOAD DUP2 PUSH1 0xFF MUL NOT AND SWAP1 DUP4 ISZERO ISZERO MUL OR SWAP1 SSTORE POP CALLVALUE DUP1 ISZERO PUSH2 0x2F JUMPI PUSH1 0x0 DUP1 REVERT JUMPDEST POP CALLER PUSH1 0x2 PUSH1 0x0 PUSH2 0x100 EXP DUP2 SLOAD DUP2 PUSH20 0xFFFFFFFFFFFFFFFFFFFFFFFFFFFFFFFFFFFFFFFF MUL NOT AND SWAP1 DUP4 PUSH20 0xFFFFFFFFFFFFFFFFFFFFFFFFFFFFFFFFFFFFFFFF AND MUL OR SWAP1 SSTORE POP PUSH2 0x1760 DUP1 PUSH2 0x80 PUSH1 0x0 CODECOPY PUSH1 0x0 RETURN INVALID PUSH1 0x80 PUSH1 0x40 MSTORE PUSH1 0x4 CALLDATASIZE LT PUSH2 0x59 JUMPI PUSH1 0x0 CALLDATALOAD PUSH1 0xE0 SHR DUP1 PUSH4 0x1144FD72 EQ PUSH2 0xA2 JUMPI DUP1 PUSH4 0x481C6A75 EQ PUSH2 0xCB JUMPI DUP1 PUSH4 0x4C900DC6 EQ PUSH2 0xF6 JUMPI DUP1 PUSH4 0x7ACC0B20 EQ PUSH2 0x11F JUMPI DUP1 PUSH4 0x83197EF0 EQ PUSH2 0x162 JUMPI DUP1 PUSH4 0xD96A094A EQ PUSH2 0x179 JUMPI PUSH2 0x5A JUMP JUMPDEST JUMPDEST CALLER PUSH20 0xFFFFFFFFFFFFFFFFFFFFFFFFFFFFFFFFFFFFFFFF AND PUSH2 0x8FC CALLVALUE SWAP1 DUP2 ISZERO MUL SWAP1 PUSH1 0x40 MLOAD PUSH1 0x0 PUSH1 0x40 MLOAD DUP1 DUP4 SUB DUP2 DUP6 DUP9 DUP9 CALL SWAP4 POP POP POP POP ISZERO DUP1 ISZERO PUSH2 0xA0 JUMPI RETURNDATASIZE PUSH1 0x0 DUP1 RETURNDATACOPY RETURNDATASIZE PUSH1 0x0 REVERT JUMPDEST STOP JUMPDEST CALLVALUE DUP1 ISZERO PUSH2 0xAE JUMPI PUSH1 0x0 DUP1 REVERT JUMPDEST POP PUSH2 0xC9 PUSH1 0x4 DUP1 CALLDATASIZE SUB DUP2 ADD SWAP1 PUSH2 0xC4 SWAP2 SWAP1 PUSH2 0xC64 JUMP JUMPDEST PUSH2 0x195 JUMP JUMPDEST STOP JUMPDEST CALLVALUE DUP1 ISZERO PUSH2 0xD7 JUMPI PUSH1 0x0 DUP1 REVERT JUMPDEST POP PUSH2 0xE0 PUSH2 0x3F1 JUMP JUMPDEST PUSH1 0x40 MLOAD PUSH2 0xED SWAP2 SWAP1 PUSH2 0xCD2 JUMP JUMPDEST PUSH1 0x40 MLOAD DUP1 SWAP2 SUB SWAP1 RETURN JUMPDEST CALLVALUE DUP1 ISZERO PUSH2 0x102 JUMPI PUSH1 0x0 DUP1 REVERT JUMPDEST POP PUSH2 0x11D PUSH1 0x4 DUP1 CALLDATASIZE SUB DUP2 ADD SWAP1 PUSH2 0x118 SWAP2 SWAP1 PUSH2 0xE33 JUMP JUMPDEST PUSH2 0x417 JUMP JUMPDEST STOP JUMPDEST CALLVALUE DUP1 ISZERO PUSH2 0x12B JUMPI PUSH1 0x0 DUP1 REVERT JUMPDEST POP PUSH2 0x146 PUSH1 0x4 DUP1 CALLDATASIZE SUB DUP2 ADD SWAP1 PUSH2 0x141 SWAP2 SWAP1 PUSH2 0xC64 JUMP JUMPDEST PUSH2 0x69E JUMP JUMPDEST PUSH1 0x40 MLOAD PUSH2 0x159 SWAP8 SWAP7 SWAP6 SWAP5 SWAP4 SWAP3 SWAP2 SWAP1 PUSH2 0xF91 JUMP JUMPDEST PUSH1 0x40 MLOAD DUP1 SWAP2 SUB SWAP1 RETURN JUMPDEST CALLVALUE DUP1 ISZERO PUSH2 0x16E JUMPI PUSH1 0x0 DUP1 REVERT JUMPDEST POP PUSH2 0x177 PUSH2 0x84D JUMP JUMPDEST STOP JUMPDEST PUSH2 0x193 PUSH1 0x4 DUP1 CALLDATASIZE SUB DUP2 ADD SWAP1 PUSH2 0x18E SWAP2 SWAP1 PUSH2 0xC64 JUMP JUMPDEST PUSH2 0x981 JUMP JUMPDEST STOP JUMPDEST PUSH1 0x2 PUSH1 0x14 SWAP1 SLOAD SWAP1 PUSH2 0x100 EXP SWAP1 DIV PUSH1 0xFF AND ISZERO PUSH2 0x1E5 JUMPI PUSH1 0x40 MLOAD PUSH32 0x8C379A000000000000000000000000000000000000000000000000000000000 DUP2 MSTORE PUSH1 0x4 ADD PUSH2 0x1DC SWAP1 PUSH2 0x105A JUMP JUMPDEST PUSH1 0x40 MLOAD DUP1 SWAP2 SUB SWAP1 REVERT JUMPDEST CALLER PUSH20 0xFFFFFFFFFFFFFFFFFFFFFFFFFFFFFFFFFFFFFFFF AND PUSH1 0x0 PUSH1 0x1 DUP4 PUSH2 0x20B SWAP2 SWAP1 PUSH2 0x10A9 JUMP JUMPDEST DUP2 SLOAD DUP2 LT PUSH2 0x21C JUMPI PUSH2 0x21B PUSH2 0x10DD JUMP JUMPDEST JUMPDEST SWAP1 PUSH1 0x0 MSTORE PUSH1 0x20 PUSH1 0x0 KECCAK256 SWAP1 PUSH1 0x6 MUL ADD PUSH1 0x5 ADD PUSH1 0x0 SWAP1 SLOAD SWAP1 PUSH2 0x100 EXP SWAP1 DIV PUSH20 0xFFFFFFFFFFFFFFFFFFFFFFFFFFFFFFFFFFFFFFFF AND PUSH20 0xFFFFFFFFFFFFFFFFFFFFFFFFFFFFFFFFFFFFFFFF AND EQ PUSH2 0x2A4 JUMPI PUSH1 0x40 MLOAD PUSH32 0x8C379A000000000000000000000000000000000000000000000000000000000 DUP2 MSTORE PUSH1 0x4 ADD PUSH2 0x29B SWAP1 PUSH2 0x1158 JUMP JUMPDEST PUSH1 0x40 MLOAD DUP1 SWAP2 SUB SWAP1 REVERT JUMPDEST PUSH1 0x1 PUSH1 0x0 PUSH1 0x1 DUP4 PUSH2 0x2B5 SWAP2 SWAP1 PUSH2 0x10A9 JUMP JUMPDEST DUP2 SLOAD DUP2 LT PUSH2 0x2C6 JUMPI PUSH2 0x2C5 PUSH2 0x10DD JUMP JUMPDEST JUMPDEST SWAP1 PUSH1 0x0 MSTORE PUSH1 0x20 PUSH1 0x0 KECCAK256 SWAP1 PUSH1 0x6 MUL ADD PUSH1 0x5 ADD PUSH1 0x14 PUSH2 0x100 EXP DUP2 SLOAD DUP2 PUSH1 0xFF MUL NOT AND SWAP1 DUP4 ISZERO ISZERO MUL OR SWAP1 SSTORE POP PUSH1 0x0 PUSH1 0x1 DUP3 PUSH2 0x2FD SWAP2 SWAP1 PUSH2 0x10A9 JUMP JUMPDEST DUP2 SLOAD DUP2 LT PUSH2 0x30E JUMPI PUSH2 0x30D PUSH2 0x10DD JUMP JUMPDEST JUMPDEST SWAP1 PUSH1 0x0 MSTORE PUSH1 0x20 PUSH1 0x0 KECCAK256 SWAP1 PUSH1 0x6 MUL ADD PUSH1 0x2 ADD PUSH1 0x0 SWAP1 SLOAD SWAP1 PUSH2 0x100 EXP SWAP1 DIV PUSH20 0xFFFFFFFFFFFFFFFFFFFFFFFFFFFFFFFFFFFFFFFF AND PUSH20 0xFFFFFFFFFFFFFFFFFFFFFFFFFFFFFFFFFFFFFFFF AND PUSH2 0x8FC PUSH1 0x0 PUSH1 0x1 DUP5 PUSH2 0x368 SWAP2 SWAP1 PUSH2 0x10A9 JUMP JUMPDEST DUP2 SLOAD DUP2 LT PUSH2 0x379 JUMPI PUSH2 0x378 PUSH2 0x10DD JUMP JUMPDEST JUMPDEST SWAP1 PUSH1 0x0 MSTORE PUSH1 0x20 PUSH1 0x0 KECCAK256 SWAP1 PUSH1 0x6 MUL ADD PUSH1 0x4 ADD SLOAD SWAP1 DUP2 ISZERO MUL SWAP1 PUSH1 0x40 MLOAD PUSH1 0x0 PUSH1 0x40 MLOAD DUP1 DUP4 SUB DUP2 DUP6 DUP9 DUP9 CALL SWAP4 POP POP POP POP ISZERO DUP1 ISZERO PUSH2 0x3B6 JUMPI RETURNDATASIZE PUSH1 0x0 DUP1 RETURNDATACOPY RETURNDATASIZE PUSH1 0x0 REVERT JUMPDEST POP PUSH32 0x4B5E4108167A669A2DA8B1EDEB1BF605987224CEC90EECA47F7F235104539F21 DUP2 PUSH1 0x40 MLOAD PUSH2 0x3E6 SWAP2 SWAP1 PUSH2 0x1178 JUMP JUMPDEST PUSH1 0x40 MLOAD DUP1 SWAP2 SUB SWAP1 LOG1 POP JUMP JUMPDEST PUSH1 0x2 PUSH1 0x0 SWAP1 SLOAD SWAP1 PUSH2 0x100 EXP SWAP1 DIV PUSH20 0xFFFFFFFFFFFFFFFFFFFFFFFFFFFFFFFFFFFFFFFF AND DUP2 JUMP JUMPDEST PUSH1 0x2 PUSH1 0x14 SWAP1 SLOAD SWAP1 PUSH2 0x100 EXP SWAP1 DIV PUSH1 0xFF AND ISZERO PUSH2 0x467 JUMPI PUSH1 0x40 MLOAD PUSH32 0x8C379A000000000000000000000000000000000000000000000000000000000 DUP2 MSTORE PUSH1 0x4 ADD PUSH2 0x45E SWAP1 PUSH2 0x105A JUMP JUMPDEST PUSH1 0x40 MLOAD DUP1 SWAP2 SUB SWAP1 REVERT JUMPDEST PUSH1 0x0 DUP2 GT PUSH2 0x4AA JUMPI PUSH1 0x40 MLOAD PUSH32 0x8C379A000000000000000000000000000000000000000000000000000000000 DUP2 MSTORE PUSH1 0x4 ADD PUSH2 0x4A1 SWAP1 PUSH2 0x11DF JUMP JUMPDEST PUSH1 0x40 MLOAD DUP1 SWAP2 SUB SWAP1 REVERT JUMPDEST PUSH2 0x4B2 PUSH2 0xBAF JUMP JUMPDEST DUP4 DUP2 PUSH1 0x0 ADD DUP2 SWAP1 MSTORE POP DUP3 DUP2 PUSH1 0x20 ADD DUP2 SWAP1 MSTORE POP PUSH8 0xDE0B6B3A7640000 DUP3 PUSH2 0x4D8 SWAP2 SWAP1 PUSH2 0x11FF JUMP JUMPDEST DUP2 PUSH1 0x80 ADD DUP2 DUP2 MSTORE POP POP CALLER DUP2 PUSH1 0x40 ADD SWAP1 PUSH20 0xFFFFFFFFFFFFFFFFFFFFFFFFFFFFFFFFFFFFFFFF AND SWAP1 DUP2 PUSH20 0xFFFFFFFFFFFFFFFFFFFFFFFFFFFFFFFFFFFFFFFF AND DUP2 MSTORE POP POP PUSH1 0x1 SLOAD DUP2 PUSH1 0x60 ADD DUP2 DUP2 MSTORE POP POP PUSH1 0x0 DUP2 SWAP1 DUP1 PUSH1 0x1 DUP2 SLOAD ADD DUP1 DUP3 SSTORE DUP1 SWAP2 POP POP PUSH1 0x1 SWAP1 SUB SWAP1 PUSH1 0x0 MSTORE PUSH1 0x20 PUSH1 0x0 KECCAK256 SWAP1 PUSH1 0x6 MUL ADD PUSH1 0x0 SWAP1 SWAP2 SWAP1 SWAP2 SWAP1 SWAP2 POP PUSH1 0x0 DUP3 ADD MLOAD DUP2 PUSH1 0x0 ADD SWAP1 DUP2 PUSH2 0x566 SWAP2 SWAP1 PUSH2 0x1465 JUMP JUMPDEST POP PUSH1 0x20 DUP3 ADD MLOAD DUP2 PUSH1 0x1 ADD SWAP1 DUP2 PUSH2 0x57C SWAP2 SWAP1 PUSH2 0x1465 JUMP JUMPDEST POP PUSH1 0x40 DUP3 ADD MLOAD DUP2 PUSH1 0x2 ADD PUSH1 0x0 PUSH2 0x100 EXP DUP2 SLOAD DUP2 PUSH20 0xFFFFFFFFFFFFFFFFFFFFFFFFFFFFFFFFFFFFFFFF MUL NOT AND SWAP1 DUP4 PUSH20 0xFFFFFFFFFFFFFFFFFFFFFFFFFFFFFFFFFFFFFFFF AND MUL OR SWAP1 SSTORE POP PUSH1 0x60 DUP3 ADD MLOAD DUP2 PUSH1 0x3 ADD SSTORE PUSH1 0x80 DUP3 ADD MLOAD DUP2 PUSH1 0x4 ADD SSTORE PUSH1 0xA0 DUP3 ADD MLOAD DUP2 PUSH1 0x5 ADD PUSH1 0x0 PUSH2 0x100 EXP DUP2 SLOAD DUP2 PUSH20 0xFFFFFFFFFFFFFFFFFFFFFFFFFFFFFFFFFFFFFFFF MUL NOT AND SWAP1 DUP4 PUSH20 0xFFFFFFFFFFFFFFFFFFFFFFFFFFFFFFFFFFFFFFFF AND MUL OR SWAP1 SSTORE POP PUSH1 0xC0 DUP3 ADD MLOAD DUP2 PUSH1 0x5 ADD PUSH1 0x14 PUSH2 0x100 EXP DUP2 SLOAD DUP2 PUSH1 0xFF MUL NOT AND SWAP1 DUP4 ISZERO ISZERO MUL OR SWAP1 SSTORE POP POP POP PUSH1 0x1 PUSH1 0x0 DUP2 SLOAD DUP1 SWAP3 SWAP2 SWAP1 PUSH2 0x654 SWAP1 PUSH2 0x1537 JUMP JUMPDEST SWAP2 SWAP1 POP SSTORE POP PUSH32 0x2F2D57060110E728629FCDCFD43A3B0F571B51CA1899668910D777E935601E3E DUP5 DUP3 PUSH1 0x60 ADD MLOAD CALLER PUSH1 0x40 MLOAD PUSH2 0x690 SWAP4 SWAP3 SWAP2 SWAP1 PUSH2 0x157F JUMP JUMPDEST PUSH1 0x40 MLOAD DUP1 SWAP2 SUB SWAP1 LOG1 POP POP POP POP JUMP JUMPDEST PUSH1 0x0 DUP2 DUP2 SLOAD DUP2 LT PUSH2 0x6AE JUMPI PUSH1 0x0 DUP1 REVERT JUMPDEST SWAP1 PUSH1 0x0 MSTORE PUSH1 0x20 PUSH1 0x0 KECCAK256 SWAP1 PUSH1 0x6 MUL ADD PUSH1 0x0 SWAP2 POP SWAP1 POP DUP1 PUSH1 0x0 ADD DUP1 SLOAD PUSH2 0x6D1 SWAP1 PUSH2 0x1288 JUMP JUMPDEST DUP1 PUSH1 0x1F ADD PUSH1 0x20 DUP1 SWAP2 DIV MUL PUSH1 0x20 ADD PUSH1 0x40 MLOAD SWAP1 DUP2 ADD PUSH1 0x40 MSTORE DUP1 SWAP3 SWAP2 SWAP1 DUP2 DUP2 MSTORE PUSH1 0x20 ADD DUP3 DUP1 SLOAD PUSH2 0x6FD SWAP1 PUSH2 0x1288 JUMP JUMPDEST DUP1 ISZERO PUSH2 0x74A JUMPI DUP1 PUSH1 0x1F LT PUSH2 0x71F JUMPI PUSH2 0x100 DUP1 DUP4 SLOAD DIV MUL DUP4 MSTORE SWAP2 PUSH1 0x20 ADD SWAP2 PUSH2 0x74A JUMP JUMPDEST DUP3 ADD SWAP2 SWAP1 PUSH1 0x0 MSTORE PUSH1 0x20 PUSH1 0x0 KECCAK256 SWAP1 JUMPDEST DUP2 SLOAD DUP2 MSTORE SWAP1 PUSH1 0x1 ADD SWAP1 PUSH1 0x20 ADD DUP1 DUP4 GT PUSH2 0x72D JUMPI DUP3 SWAP1 SUB PUSH1 0x1F AND DUP3 ADD SWAP2 JUMPDEST POP POP POP POP POP SWAP1 DUP1 PUSH1 0x1 ADD DUP1 SLOAD PUSH2 0x75F SWAP1 PUSH2 0x1288 JUMP JUMPDEST DUP1 PUSH1 0x1F ADD PUSH1 0x20 DUP1 SWAP2 DIV MUL PUSH1 0x20 ADD PUSH1 0x40 MLOAD SWAP1 DUP2 ADD PUSH1 0x40 MSTORE DUP1 SWAP3 SWAP2 SWAP1 DUP2 DUP2 MSTORE PUSH1 0x20 ADD DUP3 DUP1 SLOAD PUSH2 0x78B SWAP1 PUSH2 0x1288 JUMP JUMPDEST DUP1 ISZERO PUSH2 0x7D8 JUMPI DUP1 PUSH1 0x1F LT PUSH2 0x7AD JUMPI PUSH2 0x100 DUP1 DUP4 SLOAD DIV MUL DUP4 MSTORE SWAP2 PUSH1 0x20 ADD SWAP2 PUSH2 0x7D8 JUMP JUMPDEST DUP3 ADD SWAP2 SWAP1 PUSH1 0x0 MSTORE PUSH1 0x20 PUSH1 0x0 KECCAK256 SWAP1 JUMPDEST DUP2 SLOAD DUP2 MSTORE SWAP1 PUSH1 0x1 ADD SWAP1 PUSH1 0x20 ADD DUP1 DUP4 GT PUSH2 0x7BB JUMPI DUP3 SWAP1 SUB PUSH1 0x1F AND DUP3 ADD SWAP2 JUMPDEST POP POP POP POP POP SWAP1 DUP1 PUSH1 0x2 ADD PUSH1 0x0 SWAP1 SLOAD SWAP1 PUSH2 0x100 EXP SWAP1 DIV PUSH20 0xFFFFFFFFFFFFFFFFFFFFFFFFFFFFFFFFFFFFFFFF AND SWAP1 DUP1 PUSH1 0x3 ADD SLOAD SWAP1 DUP1 PUSH1 0x4 ADD SLOAD SWAP1 DUP1 PUSH1 0x5 ADD PUSH1 0x0 SWAP1 SLOAD SWAP1 PUSH2 0x100 EXP SWAP1 DIV PUSH20 0xFFFFFFFFFFFFFFFFFFFFFFFFFFFFFFFFFFFFFFFF AND SWAP1 DUP1 PUSH1 0x5 ADD PUSH1 0x14 SWAP1 SLOAD SWAP1 PUSH2 0x100 EXP SWAP1 DIV PUSH1 0xFF AND SWAP1 POP DUP8 JUMP JUMPDEST CALLER PUSH20 0xFFFFFFFFFFFFFFFFFFFFFFFFFFFFFFFFFFFFFFFF AND PUSH1 0x2 PUSH1 0x0 SWAP1 SLOAD SWAP1 PUSH2 0x100 EXP SWAP1 DIV PUSH20 0xFFFFFFFFFFFFFFFFFFFFFFFFFFFFFFFFFFFFFFFF AND PUSH20 0xFFFFFFFFFFFFFFFFFFFFFFFFFFFFFFFFFFFFFFFF AND EQ PUSH2 0x8DD JUMPI PUSH1 0x40 MLOAD PUSH32 0x8C379A000000000000000000000000000000000000000000000000000000000 DUP2 MSTORE PUSH1 0x4 ADD PUSH2 0x8D4 SWAP1 PUSH2 0x1609 JUMP JUMPDEST PUSH1 0x40 MLOAD DUP1 SWAP2 SUB SWAP1 REVERT JUMPDEST PUSH1 0x2 PUSH1 0x0 SWAP1 SLOAD SWAP1 PUSH2 0x100 EXP SWAP1 DIV PUSH20 0xFFFFFFFFFFFFFFFFFFFFFFFFFFFFFFFFFFFFFFFF AND PUSH20 0xFFFFFFFFFFFFFFFFFFFFFFFFFFFFFFFFFFFFFFFF AND PUSH2 0x8FC SELFBALANCE SWAP1 DUP2 ISZERO MUL SWAP1 PUSH1 0x40 MLOAD PUSH1 0x0 PUSH1 0x40 MLOAD DUP1 DUP4 SUB DUP2 DUP6 DUP9 DUP9 CALL SWAP4 POP POP POP POP ISZERO DUP1 ISZERO PUSH2 0x945 JUMPI RETURNDATASIZE PUSH1 0x0 DUP1 RETURNDATACOPY RETURNDATASIZE PUSH1 0x0 REVERT JUMPDEST POP PUSH1 0x2 PUSH1 0x0 SWAP1 SLOAD SWAP1 PUSH2 0x100 EXP SWAP1 DIV PUSH20 0xFFFFFFFFFFFFFFFFFFFFFFFFFFFFFFFFFFFFFFFF AND PUSH20 0xFFFFFFFFFFFFFFFFFFFFFFFFFFFFFFFFFFFFFFFF AND SELFDESTRUCT JUMPDEST PUSH1 0x2 PUSH1 0x14 SWAP1 SLOAD SWAP1 PUSH2 0x100 EXP SWAP1 DIV PUSH1 0xFF AND ISZERO PUSH2 0x9D1 JUMPI PUSH1 0x40 MLOAD PUSH32 0x8C379A000000000000000000000000000000000000000000000000000000000 DUP2 MSTORE PUSH1 0x4 ADD PUSH2 0x9C8 SWAP1 PUSH2 0x105A JUMP JUMPDEST PUSH1 0x40 MLOAD DUP1 SWAP2 SUB SWAP1 REVERT JUMPDEST CALLVALUE PUSH1 0x0 PUSH1 0x1 DUP4 PUSH2 0x9E1 SWAP2 SWAP1 PUSH2 0x10A9 JUMP JUMPDEST DUP2 SLOAD DUP2 LT PUSH2 0x9F2 JUMPI PUSH2 0x9F1 PUSH2 0x10DD JUMP JUMPDEST JUMPDEST SWAP1 PUSH1 0x0 MSTORE PUSH1 0x20 PUSH1 0x0 KECCAK256 SWAP1 PUSH1 0x6 MUL ADD PUSH1 0x4 ADD SLOAD EQ PUSH2 0xA44 JUMPI PUSH1 0x40 MLOAD PUSH32 0x8C379A000000000000000000000000000000000000000000000000000000000 DUP2 MSTORE PUSH1 0x4 ADD PUSH2 0xA3B SWAP1 PUSH2 0x1675 JUMP JUMPDEST PUSH1 0x40 MLOAD DUP1 SWAP2 SUB SWAP1 REVERT JUMPDEST CALLER PUSH20 0xFFFFFFFFFFFFFFFFFFFFFFFFFFFFFFFFFFFFFFFF AND PUSH1 0x0 PUSH1 0x1 DUP4 PUSH2 0xA6A SWAP2 SWAP1 PUSH2 0x10A9 JUMP JUMPDEST DUP2 SLOAD DUP2 LT PUSH2 0xA7B JUMPI PUSH2 0xA7A PUSH2 0x10DD JUMP JUMPDEST JUMPDEST SWAP1 PUSH1 0x0 MSTORE PUSH1 0x20 PUSH1 0x0 KECCAK256 SWAP1 PUSH1 0x6 MUL ADD PUSH1 0x2 ADD PUSH1 0x0 SWAP1 SLOAD SWAP1 PUSH2 0x100 EXP SWAP1 DIV PUSH20 0xFFFFFFFFFFFFFFFFFFFFFFFFFFFFFFFFFFFFFFFF AND PUSH20 0xFFFFFFFFFFFFFFFFFFFFFFFFFFFFFFFFFFFFFFFF AND SUB PUSH2 0xB03 JUMPI PUSH1 0x40 MLOAD PUSH32 0x8C379A000000000000000000000000000000000000000000000000000000000 DUP2 MSTORE PUSH1 0x4 ADD PUSH2 0xAFA SWAP1 PUSH2 0x16E1 JUMP JUMPDEST PUSH1 0x40 MLOAD DUP1 SWAP2 SUB SWAP1 REVERT JUMPDEST CALLER PUSH1 0x0 PUSH1 0x1 DUP4 PUSH2 0xB13 SWAP2 SWAP1 PUSH2 0x10A9 JUMP JUMPDEST DUP2 SLOAD DUP2 LT PUSH2 0xB24 JUMPI PUSH2 0xB23 PUSH2 0x10DD JUMP JUMPDEST JUMPDEST SWAP1 PUSH1 0x0 MSTORE PUSH1 0x20 PUSH1 0x0 KECCAK256 SWAP1 PUSH1 0x6 MUL ADD PUSH1 0x5 ADD PUSH1 0x0 PUSH2 0x100 EXP DUP2 SLOAD DUP2 PUSH20 0xFFFFFFFFFFFFFFFFFFFFFFFFFFFFFFFFFFFFFFFF MUL NOT AND SWAP1 DUP4 PUSH20 0xFFFFFFFFFFFFFFFFFFFFFFFFFFFFFFFFFFFFFFFF AND MUL OR SWAP1 SSTORE POP PUSH32 0xB575B1C878DC377BD63CE2BAED968BF73F501EF259EAA44A369ECDDF6A3A6241 DUP2 CALLER PUSH1 0x40 MLOAD PUSH2 0xBA4 SWAP3 SWAP2 SWAP1 PUSH2 0x1701 JUMP JUMPDEST PUSH1 0x40 MLOAD DUP1 SWAP2 SUB SWAP1 LOG1 POP JUMP JUMPDEST PUSH1 0x40 MLOAD DUP1 PUSH1 0xE0 ADD PUSH1 0x40 MSTORE DUP1 PUSH1 0x60 DUP2 MSTORE PUSH1 0x20 ADD PUSH1 0x60 DUP2 MSTORE PUSH1 0x20 ADD PUSH1 0x0 PUSH20 0xFFFFFFFFFFFFFFFFFFFFFFFFFFFFFFFFFFFFFFFF AND DUP2 MSTORE PUSH1 0x20 ADD PUSH1 0x0 DUP2 MSTORE PUSH1 0x20 ADD PUSH1 0x0 DUP2 MSTORE PUSH1 0x20 ADD PUSH1 0x0 PUSH20 0xFFFFFFFFFFFFFFFFFFFFFFFFFFFFFFFFFFFFFFFF AND DUP2 MSTORE PUSH1 0x20 ADD PUSH1 0x0 ISZERO ISZERO DUP2 MSTORE POP SWAP1 JUMP JUMPDEST PUSH1 0x0 PUSH1 0x40 MLOAD SWAP1 POP SWAP1 JUMP JUMPDEST PUSH1 0x0 DUP1 REVERT JUMPDEST PUSH1 0x0 DUP1 REVERT JUMPDEST PUSH1 0x0 DUP2 SWAP1 POP SWAP2 SWAP1 POP JUMP JUMPDEST PUSH2 0xC41 DUP2 PUSH2 0xC2E JUMP JUMPDEST DUP2 EQ PUSH2 0xC4C JUMPI PUSH1 0x0 DUP1 REVERT JUMPDEST POP JUMP JUMPDEST PUSH1 0x0 DUP2 CALLDATALOAD SWAP1 POP PUSH2 0xC5E DUP2 PUSH2 0xC38 JUMP JUMPDEST SWAP3 SWAP2 POP POP JUMP JUMPDEST PUSH1 0x0 PUSH1 0x20 DUP3 DUP5 SUB SLT ISZERO PUSH2 0xC7A JUMPI PUSH2 0xC79 PUSH2 0xC24 JUMP JUMPDEST JUMPDEST PUSH1 0x0 PUSH2 0xC88 DUP5 DUP3 DUP6 ADD PUSH2 0xC4F JUMP JUMPDEST SWAP2 POP POP SWAP3 SWAP2 POP POP JUMP JUMPDEST PUSH1 0x0 PUSH20 0xFFFFFFFFFFFFFFFFFFFFFFFFFFFFFFFFFFFFFFFF DUP3 AND SWAP1 POP SWAP2 SWAP1 POP JUMP JUMPDEST PUSH1 0x0 PUSH2 0xCBC DUP3 PUSH2 0xC91 JUMP JUMPDEST SWAP1 POP SWAP2 SWAP1 POP JUMP JUMPDEST PUSH2 0xCCC DUP2 PUSH2 0xCB1 JUMP JUMPDEST DUP3 MSTORE POP POP JUMP JUMPDEST PUSH1 0x0 PUSH1 0x20 DUP3 ADD SWAP1 POP PUSH2 0xCE7 PUSH1 0x0 DUP4 ADD DUP5 PUSH2 0xCC3 JUMP JUMPDEST SWAP3 SWAP2 POP POP JUMP JUMPDEST PUSH1 0x0 DUP1 REVERT JUMPDEST PUSH1 0x0 DUP1 REVERT JUMPDEST PUSH1 0x0 PUSH1 0x1F NOT PUSH1 0x1F DUP4 ADD AND SWAP1 POP SWAP2 SWAP1 POP JUMP JUMPDEST PUSH32 0x4E487B7100000000000000000000000000000000000000000000000000000000 PUSH1 0x0 MSTORE PUSH1 0x41 PUSH1 0x4 MSTORE PUSH1 0x24 PUSH1 0x0 REVERT JUMPDEST PUSH2 0xD40 DUP3 PUSH2 0xCF7 JUMP JUMPDEST DUP2 ADD DUP2 DUP2 LT PUSH8 0xFFFFFFFFFFFFFFFF DUP3 GT OR ISZERO PUSH2 0xD5F JUMPI PUSH2 0xD5E PUSH2 0xD08 JUMP JUMPDEST JUMPDEST DUP1 PUSH1 0x40 MSTORE POP POP POP JUMP JUMPDEST PUSH1 0x0 PUSH2 0xD72 PUSH2 0xC1A JUMP JUMPDEST SWAP1 POP PUSH2 0xD7E DUP3 DUP3 PUSH2 0xD37 JUMP JUMPDEST SWAP2 SWAP1 POP JUMP JUMPDEST PUSH1 0x0 PUSH8 0xFFFFFFFFFFFFFFFF DUP3 GT ISZERO PUSH2 0xD9E JUMPI PUSH2 0xD9D PUSH2 0xD08 JUMP JUMPDEST JUMPDEST PUSH2 0xDA7 DUP3 PUSH2 0xCF7 JUMP JUMPDEST SWAP1 POP PUSH1 0x20 DUP2 ADD SWAP1 POP SWAP2 SWAP1 POP JUMP JUMPDEST DUP3 DUP2 DUP4 CALLDATACOPY PUSH1 0x0 DUP4 DUP4 ADD MSTORE POP POP POP JUMP JUMPDEST PUSH1 0x0 PUSH2 0xDD6 PUSH2 0xDD1 DUP5 PUSH2 0xD83 JUMP JUMPDEST PUSH2 0xD68 JUMP JUMPDEST SWAP1 POP DUP3 DUP2 MSTORE PUSH1 0x20 DUP2 ADD DUP5 DUP5 DUP5 ADD GT ISZERO PUSH2 0xDF2 JUMPI PUSH2 0xDF1 PUSH2 0xCF2 JUMP JUMPDEST JUMPDEST PUSH2 0xDFD DUP5 DUP3 DUP6 PUSH2 0xDB4 JUMP JUMPDEST POP SWAP4 SWAP3 POP POP POP JUMP JUMPDEST PUSH1 0x0 DUP3 PUSH1 0x1F DUP4 ADD SLT PUSH2 0xE1A JUMPI PUSH2 0xE19 PUSH2 0xCED JUMP JUMPDEST JUMPDEST DUP2 CALLDATALOAD PUSH2 0xE2A DUP5 DUP3 PUSH1 0x20 DUP7 ADD PUSH2 0xDC3 JUMP JUMPDEST SWAP2 POP POP SWAP3 SWAP2 POP POP JUMP JUMPDEST PUSH1 0x0 DUP1 PUSH1 0x0 PUSH1 0x60 DUP5 DUP7 SUB SLT ISZERO PUSH2 0xE4C JUMPI PUSH2 0xE4B PUSH2 0xC24 JUMP JUMPDEST JUMPDEST PUSH1 0x0 DUP5 ADD CALLDATALOAD PUSH8 0xFFFFFFFFFFFFFFFF DUP2 GT ISZERO PUSH2 0xE6A JUMPI PUSH2 0xE69 PUSH2 0xC29 JUMP JUMPDEST JUMPDEST PUSH2 0xE76 DUP7 DUP3 DUP8 ADD PUSH2 0xE05 JUMP JUMPDEST SWAP4 POP POP PUSH1 0x20 DUP5 ADD CALLDATALOAD PUSH8 0xFFFFFFFFFFFFFFFF DUP2 GT ISZERO PUSH2 0xE97 JUMPI PUSH2 0xE96 PUSH2 0xC29 JUMP JUMPDEST JUMPDEST PUSH2 0xEA3 DUP7 DUP3 DUP8 ADD PUSH2 0xE05 JUMP JUMPDEST SWAP3 POP POP PUSH1 0x40 PUSH2 0xEB4 DUP7 DUP3 DUP8 ADD PUSH2 0xC4F JUMP JUMPDEST SWAP2 POP POP SWAP3 POP SWAP3 POP SWAP3 JUMP JUMPDEST PUSH1 0x0 DUP2 MLOAD SWAP1 POP SWAP2 SWAP1 POP JUMP JUMPDEST PUSH1 0x0 DUP3 DUP3 MSTORE PUSH1 0x20 DUP3 ADD SWAP1 POP SWAP3 SWAP2 POP POP JUMP JUMPDEST PUSH1 0x0 JUMPDEST DUP4 DUP2 LT ISZERO PUSH2 0xEF8 JUMPI DUP1 DUP3 ADD MLOAD DUP2 DUP5 ADD MSTORE PUSH1 0x20 DUP2 ADD SWAP1 POP PUSH2 0xEDD JUMP JUMPDEST DUP4 DUP2 GT ISZERO PUSH2 0xF07 JUMPI PUSH1 0x0 DUP5 DUP5 ADD MSTORE JUMPDEST POP POP POP POP JUMP JUMPDEST PUSH1 0x0 PUSH2 0xF18 DUP3 PUSH2 0xEBE JUMP JUMPDEST PUSH2 0xF22 DUP2 DUP6 PUSH2 0xEC9 JUMP JUMPDEST SWAP4 POP PUSH2 0xF32 DUP2 DUP6 PUSH1 0x20 DUP7 ADD PUSH2 0xEDA JUMP JUMPDEST PUSH2 0xF3B DUP2 PUSH2 0xCF7 JUMP JUMPDEST DUP5 ADD SWAP2 POP POP SWAP3 SWAP2 POP POP JUMP JUMPDEST PUSH2 0xF4F DUP2 PUSH2 0xC2E JUMP JUMPDEST DUP3 MSTORE POP POP JUMP JUMPDEST PUSH1 0x0 PUSH2 0xF60 DUP3 PUSH2 0xC91 JUMP JUMPDEST SWAP1 POP SWAP2 SWAP1 POP JUMP JUMPDEST PUSH2 0xF70 DUP2 PUSH2 0xF55 JUMP JUMPDEST DUP3 MSTORE POP POP JUMP JUMPDEST PUSH1 0x0 DUP2 ISZERO ISZERO SWAP1 POP SWAP2 SWAP1 POP JUMP JUMPDEST PUSH2 0xF8B DUP2 PUSH2 0xF76 JUMP JUMPDEST DUP3 MSTORE POP POP JUMP JUMPDEST PUSH1 0x0 PUSH1 0xE0 DUP3 ADD SWAP1 POP DUP2 DUP2 SUB PUSH1 0x0 DUP4 ADD MSTORE PUSH2 0xFAB DUP2 DUP11 PUSH2 0xF0D JUMP JUMPDEST SWAP1 POP DUP2 DUP2 SUB PUSH1 0x20 DUP4 ADD MSTORE PUSH2 0xFBF DUP2 DUP10 PUSH2 0xF0D JUMP JUMPDEST SWAP1 POP PUSH2 0xFCE PUSH1 0x40 DUP4 ADD DUP9 PUSH2 0xCC3 JUMP JUMPDEST PUSH2 0xFDB PUSH1 0x60 DUP4 ADD DUP8 PUSH2 0xF46 JUMP JUMPDEST PUSH2 0xFE8 PUSH1 0x80 DUP4 ADD DUP7 PUSH2 0xF46 JUMP JUMPDEST PUSH2 0xFF5 PUSH1 0xA0 DUP4 ADD DUP6 PUSH2 0xF67 JUMP JUMPDEST PUSH2 0x1002 PUSH1 0xC0 DUP4 ADD DUP5 PUSH2 0xF82 JUMP JUMPDEST SWAP9 SWAP8 POP POP POP POP POP POP POP POP JUMP JUMPDEST PUSH32 0x436F6E747261637420646F6573206E6F74206578697374730000000000000000 PUSH1 0x0 DUP3 ADD MSTORE POP JUMP JUMPDEST PUSH1 0x0 PUSH2 0x1044 PUSH1 0x18 DUP4 PUSH2 0xEC9 JUMP JUMPDEST SWAP2 POP PUSH2 0x104F DUP3 PUSH2 0x100E JUMP JUMPDEST PUSH1 0x20 DUP3 ADD SWAP1 POP SWAP2 SWAP1 POP JUMP JUMPDEST PUSH1 0x0 PUSH1 0x20 DUP3 ADD SWAP1 POP DUP2 DUP2 SUB PUSH1 0x0 DUP4 ADD MSTORE PUSH2 0x1073 DUP2 PUSH2 0x1037 JUMP JUMPDEST SWAP1 POP SWAP2 SWAP1 POP JUMP JUMPDEST PUSH32 0x4E487B7100000000000000000000000000000000000000000000000000000000 PUSH1 0x0 MSTORE PUSH1 0x11 PUSH1 0x4 MSTORE PUSH1 0x24 PUSH1 0x0 REVERT JUMPDEST PUSH1 0x0 PUSH2 0x10B4 DUP3 PUSH2 0xC2E JUMP JUMPDEST SWAP2 POP PUSH2 0x10BF DUP4 PUSH2 0xC2E JUMP JUMPDEST SWAP3 POP DUP3 DUP3 LT ISZERO PUSH2 0x10D2 JUMPI PUSH2 0x10D1 PUSH2 0x107A JUMP JUMPDEST JUMPDEST DUP3 DUP3 SUB SWAP1 POP SWAP3 SWAP2 POP POP JUMP JUMPDEST PUSH32 0x4E487B7100000000000000000000000000000000000000000000000000000000 PUSH1 0x0 MSTORE PUSH1 0x32 PUSH1 0x4 MSTORE PUSH1 0x24 PUSH1 0x0 REVERT JUMPDEST PUSH32 0x4F6E6C792062757965722063616E20747261636B000000000000000000000000 PUSH1 0x0 DUP3 ADD MSTORE POP JUMP JUMPDEST PUSH1 0x0 PUSH2 0x1142 PUSH1 0x14 DUP4 PUSH2 0xEC9 JUMP JUMPDEST SWAP2 POP PUSH2 0x114D DUP3 PUSH2 0x110C JUMP JUMPDEST PUSH1 0x20 DUP3 ADD SWAP1 POP SWAP2 SWAP1 POP JUMP JUMPDEST PUSH1 0x0 PUSH1 0x20 DUP3 ADD SWAP1 POP DUP2 DUP2 SUB PUSH1 0x0 DUP4 ADD MSTORE PUSH2 0x1171 DUP2 PUSH2 0x1135 JUMP JUMPDEST SWAP1 POP SWAP2 SWAP1 POP JUMP JUMPDEST PUSH1 0x0 PUSH1 0x20 DUP3 ADD SWAP1 POP PUSH2 0x118D PUSH1 0x0 DUP4 ADD DUP5 PUSH2 0xF46 JUMP JUMPDEST SWAP3 SWAP2 POP POP JUMP JUMPDEST PUSH32 0x50726F647563742070726963652063616E6E6F74206265203000000000000000 PUSH1 0x0 DUP3 ADD MSTORE POP JUMP JUMPDEST PUSH1 0x0 PUSH2 0x11C9 PUSH1 0x19 DUP4 PUSH2 0xEC9 JUMP JUMPDEST SWAP2 POP PUSH2 0x11D4 DUP3 PUSH2 0x1193 JUMP JUMPDEST PUSH1 0x20 DUP3 ADD SWAP1 POP SWAP2 SWAP1 POP JUMP JUMPDEST PUSH1 0x0 PUSH1 0x20 DUP3 ADD SWAP1 POP DUP2 DUP2 SUB PUSH1 0x0 DUP4 ADD MSTORE PUSH2 0x11F8 DUP2 PUSH2 0x11BC JUMP JUMPDEST SWAP1 POP SWAP2 SWAP1 POP JUMP JUMPDEST PUSH1 0x0 PUSH2 0x120A DUP3 PUSH2 0xC2E JUMP JUMPDEST SWAP2 POP PUSH2 0x1215 DUP4 PUSH2 0xC2E JUMP JUMPDEST SWAP3 POP DUP2 PUSH32 0xFFFFFFFFFFFFFFFFFFFFFFFFFFFFFFFFFFFFFFFFFFFFFFFFFFFFFFFFFFFFFFFF DIV DUP4 GT DUP3 ISZERO ISZERO AND ISZERO PUSH2 0x124E JUMPI PUSH2 0x124D PUSH2 0x107A JUMP JUMPDEST JUMPDEST DUP3 DUP3 MUL SWAP1 POP SWAP3 SWAP2 POP POP JUMP JUMPDEST PUSH32 0x4E487B7100000000000000000000000000000000000000000000000000000000 PUSH1 0x0 MSTORE PUSH1 0x22 PUSH1 0x4 MSTORE PUSH1 0x24 PUSH1 0x0 REVERT JUMPDEST PUSH1 0x0 PUSH1 0x2 DUP3 DIV SWAP1 POP PUSH1 0x1 DUP3 AND DUP1 PUSH2 0x12A0 JUMPI PUSH1 0x7F DUP3 AND SWAP2 POP JUMPDEST PUSH1 0x20 DUP3 LT DUP2 SUB PUSH2 0x12B3 JUMPI PUSH2 0x12B2 PUSH2 0x1259 JUMP JUMPDEST JUMPDEST POP SWAP2 SWAP1 POP JUMP JUMPDEST PUSH1 0x0 DUP2 SWAP1 POP DUP2 PUSH1 0x0 MSTORE PUSH1 0x20 PUSH1 0x0 KECCAK256 SWAP1 POP SWAP2 SWAP1 POP JUMP JUMPDEST PUSH1 0x0 PUSH1 0x20 PUSH1 0x1F DUP4 ADD DIV SWAP1 POP SWAP2 SWAP1 POP JUMP JUMPDEST PUSH1 0x0 DUP3 DUP3 SHL SWAP1 POP SWAP3 SWAP2 POP POP JUMP JUMPDEST PUSH1 0x0 PUSH1 0x8 DUP4 MUL PUSH2 0x131B PUSH32 0xFFFFFFFFFFFFFFFFFFFFFFFFFFFFFFFFFFFFFFFFFFFFFFFFFFFFFFFFFFFFFFFF DUP3 PUSH2 0x12DE JUMP JUMPDEST PUSH2 0x1325 DUP7 DUP4 PUSH2 0x12DE JUMP JUMPDEST SWAP6 POP DUP1 NOT DUP5 AND SWAP4 POP DUP1 DUP7 AND DUP5 OR SWAP3 POP POP POP SWAP4 SWAP3 POP POP POP JUMP JUMPDEST PUSH1 0x0 DUP2 SWAP1 POP SWAP2 SWAP1 POP JUMP JUMPDEST PUSH1 0x0 PUSH2 0x1362 PUSH2 0x135D PUSH2 0x1358 DUP5 PUSH2 0xC2E JUMP JUMPDEST PUSH2 0x133D JUMP JUMPDEST PUSH2 0xC2E JUMP JUMPDEST SWAP1 POP SWAP2 SWAP1 POP JUMP JUMPDEST PUSH1 0x0 DUP2 SWAP1 POP SWAP2 SWAP1 POP JUMP JUMPDEST PUSH2 0x137C DUP4 PUSH2 0x1347 JUMP JUMPDEST PUSH2 0x1390 PUSH2 0x1388 DUP3 PUSH2 0x1369 JUMP JUMPDEST DUP5 DUP5 SLOAD PUSH2 0x12EB JUMP JUMPDEST DUP3 SSTORE POP POP POP POP JUMP JUMPDEST PUSH1 0x0 SWAP1 JUMP JUMPDEST PUSH2 0x13A5 PUSH2 0x1398 JUMP JUMPDEST PUSH2 0x13B0 DUP2 DUP5 DUP5 PUSH2 0x1373 JUMP JUMPDEST POP POP POP JUMP JUMPDEST JUMPDEST DUP2 DUP2 LT ISZERO PUSH2 0x13D4 JUMPI PUSH2 0x13C9 PUSH1 0x0 DUP3 PUSH2 0x139D JUMP JUMPDEST PUSH1 0x1 DUP2 ADD SWAP1 POP PUSH2 0x13B6 JUMP JUMPDEST POP POP JUMP JUMPDEST PUSH1 0x1F DUP3 GT ISZERO PUSH2 0x1419 JUMPI PUSH2 0x13EA DUP2 PUSH2 0x12B9 JUMP JUMPDEST PUSH2 0x13F3 DUP5 PUSH2 0x12CE JUMP JUMPDEST DUP2 ADD PUSH1 0x20 DUP6 LT ISZERO PUSH2 0x1402 JUMPI DUP2 SWAP1 POP JUMPDEST PUSH2 0x1416 PUSH2 0x140E DUP6 PUSH2 0x12CE JUMP JUMPDEST DUP4 ADD DUP3 PUSH2 0x13B5 JUMP JUMPDEST POP POP JUMPDEST POP POP POP JUMP JUMPDEST PUSH1 0x0 DUP3 DUP3 SHR SWAP1 POP SWAP3 SWAP2 POP POP JUMP JUMPDEST PUSH1 0x0 PUSH2 0x143C PUSH1 0x0 NOT DUP5 PUSH1 0x8 MUL PUSH2 0x141E JUMP JUMPDEST NOT DUP1 DUP4 AND SWAP2 POP POP SWAP3 SWAP2 POP POP JUMP JUMPDEST PUSH1 0x0 PUSH2 0x1455 DUP4 DUP4 PUSH2 0x142B JUMP JUMPDEST SWAP2 POP DUP3 PUSH1 0x2 MUL DUP3 OR SWAP1 POP SWAP3 SWAP2 POP POP JUMP JUMPDEST PUSH2 0x146E DUP3 PUSH2 0xEBE JUMP JUMPDEST PUSH8 0xFFFFFFFFFFFFFFFF DUP2 GT ISZERO PUSH2 0x1487 JUMPI PUSH2 0x1486 PUSH2 0xD08 JUMP JUMPDEST JUMPDEST PUSH2 0x1491 DUP3 SLOAD PUSH2 0x1288 JUMP JUMPDEST PUSH2 0x149C DUP3 DUP3 DUP6 PUSH2 0x13D8 JUMP JUMPDEST PUSH1 0x0 PUSH1 0x20 SWAP1 POP PUSH1 0x1F DUP4 GT PUSH1 0x1 DUP2 EQ PUSH2 0x14CF JUMPI PUSH1 0x0 DUP5 ISZERO PUSH2 0x14BD JUMPI DUP3 DUP8 ADD MLOAD SWAP1 POP JUMPDEST PUSH2 0x14C7 DUP6 DUP3 PUSH2 0x1449 JUMP JUMPDEST DUP7 SSTORE POP PUSH2 0x152F JUMP JUMPDEST PUSH1 0x1F NOT DUP5 AND PUSH2 0x14DD DUP7 PUSH2 0x12B9 JUMP JUMPDEST PUSH1 0x0 JUMPDEST DUP3 DUP2 LT ISZERO PUSH2 0x1505 JUMPI DUP5 DUP10 ADD MLOAD DUP3 SSTORE PUSH1 0x1 DUP3 ADD SWAP2 POP PUSH1 0x20 DUP6 ADD SWAP5 POP PUSH1 0x20 DUP2 ADD SWAP1 POP PUSH2 0x14E0 JUMP JUMPDEST DUP7 DUP4 LT ISZERO PUSH2 0x1522 JUMPI DUP5 DUP10 ADD MLOAD PUSH2 0x151E PUSH1 0x1F DUP10 AND DUP3 PUSH2 0x142B JUMP JUMPDEST DUP4 SSTORE POP JUMPDEST PUSH1 0x1 PUSH1 0x2 DUP9 MUL ADD DUP9 SSTORE POP POP POP JUMPDEST POP POP POP POP POP POP JUMP JUMPDEST PUSH1 0x0 PUSH2 0x1542 DUP3 PUSH2 0xC2E JUMP JUMPDEST SWAP2 POP PUSH32 0xFFFFFFFFFFFFFFFFFFFFFFFFFFFFFFFFFFFFFFFFFFFFFFFFFFFFFFFFFFFFFFFF DUP3 SUB PUSH2 0x1574 JUMPI PUSH2 0x1573 PUSH2 0x107A JUMP JUMPDEST JUMPDEST PUSH1 0x1 DUP3 ADD SWAP1 POP SWAP2 SWAP1 POP JUMP JUMPDEST PUSH1 0x0 PUSH1 0x60 DUP3 ADD SWAP1 POP DUP2 DUP2 SUB PUSH1 0x0 DUP4 ADD MSTORE PUSH2 0x1599 DUP2 DUP7 PUSH2 0xF0D JUMP JUMPDEST SWAP1 POP PUSH2 0x15A8 PUSH1 0x20 DUP4 ADD DUP6 PUSH2 0xF46 JUMP JUMPDEST PUSH2 0x15B5 PUSH1 0x40 DUP4 ADD DUP5 PUSH2 0xF67 JUMP JUMPDEST SWAP5 SWAP4 POP POP POP POP JUMP JUMPDEST PUSH32 0x4F6E6C79206D616E616765722063616E20646F20746869732100000000000000 PUSH1 0x0 DUP3 ADD MSTORE POP JUMP JUMPDEST PUSH1 0x0 PUSH2 0x15F3 PUSH1 0x19 DUP4 PUSH2 0xEC9 JUMP JUMPDEST SWAP2 POP PUSH2 0x15FE DUP3 PUSH2 0x15BD JUMP JUMPDEST PUSH1 0x20 DUP3 ADD SWAP1 POP SWAP2 SWAP1 POP JUMP JUMPDEST PUSH1 0x0 PUSH1 0x20 DUP3 ADD SWAP1 POP DUP2 DUP2 SUB PUSH1 0x0 DUP4 ADD MSTORE PUSH2 0x1622 DUP2 PUSH2 0x15E6 JUMP JUMPDEST SWAP1 POP SWAP2 SWAP1 POP JUMP JUMPDEST PUSH32 0x706C656173652050617920746865206578616374207072696365000000000000 PUSH1 0x0 DUP3 ADD MSTORE POP JUMP JUMPDEST PUSH1 0x0 PUSH2 0x165F PUSH1 0x1A DUP4 PUSH2 0xEC9 JUMP JUMPDEST SWAP2 POP PUSH2 0x166A DUP3 PUSH2 0x1629 JUMP JUMPDEST PUSH1 0x20 DUP3 ADD SWAP1 POP SWAP2 SWAP1 POP JUMP JUMPDEST PUSH1 0x0 PUSH1 0x20 DUP3 ADD SWAP1 POP DUP2 DUP2 SUB PUSH1 0x0 DUP4 ADD MSTORE PUSH2 0x168E DUP2 PUSH2 0x1652 JUMP JUMPDEST SWAP1 POP SWAP2 SWAP1 POP JUMP JUMPDEST PUSH32 0x53656C6C65722063616E6E6F7420626520627579657200000000000000000000 PUSH1 0x0 DUP3 ADD MSTORE POP JUMP JUMPDEST PUSH1 0x0 PUSH2 0x16CB PUSH1 0x16 DUP4 PUSH2 0xEC9 JUMP JUMPDEST SWAP2 POP PUSH2 0x16D6 DUP3 PUSH2 0x1695 JUMP JUMPDEST PUSH1 0x20 DUP3 ADD SWAP1 POP SWAP2 SWAP1 POP JUMP JUMPDEST PUSH1 0x0 PUSH1 0x20 DUP3 ADD SWAP1 POP DUP2 DUP2 SUB PUSH1 0x0 DUP4 ADD MSTORE PUSH2 0x16FA DUP2 PUSH2 0x16BE JUMP JUMPDEST SWAP1 POP SWAP2 SWAP1 POP JUMP JUMPDEST PUSH1 0x0 PUSH1 0x40 DUP3 ADD SWAP1 POP PUSH2 0x1716 PUSH1 0x0 DUP4 ADD DUP6 PUSH2 0xF46 JUMP JUMPDEST PUSH2 0x1723 PUSH1 0x20 DUP4 ADD DUP5 PUSH2 0xF67 JUMP JUMPDEST SWAP4 SWAP3 POP POP POP JUMP INVALID LOG2 PUSH5 0x6970667358 0x22 SLT KECCAK256 0xC6 0xD7 0xD8 SELFDESTRUCT SHR BALANCE SWAP8 SWAP14 SIGNEXTEND 0x25 DUP9 0xBB 0xA5 EXTCODECOPY KECCAK256 0xE0 BASEFEE MSIZE DUP14 0xE3 STATICCALL PUSH25 0x93A5106E65420724A72664736F6C634300080F003300000000 "
				},
				"gasEstimates": {
					"creation": {
						"codeDepositCost": "1196800",
						"executionCost": "71930",
						"totalCost": "1268730"
					},
					"external": {
						"": "infinite",
						"buy(uint256)": "infinite",
						"delivery(uint256)": "infinite",
						"destroy()": "infinite",
						"manager()": "2514",
						"products(uint256)": "infinite",
						"registerProducts(string,string,uint256)": "infinite"
					}
				},
				"methodIdentifiers": {
					"buy(uint256)": "d96a094a",
					"delivery(uint256)": "1144fd72",
					"destroy()": "83197ef0",
					"manager()": "481c6a75",
					"products(uint256)": "7acc0b20",
					"registerProducts(string,string,uint256)": "4c900dc6"
				}
			},
			"storageLayout": {
				"storage": [
					{
						"astId": 20,
						"contract": "contracts/ecommerce.sol:ecommerce",
						"label": "products",
						"offset": 0,
						"slot": "0",
						"type": "t_array(t_struct(Product)16_storage)dyn_storage"
					},
					{
						"astId": 41,
						"contract": "contracts/ecommerce.sol:ecommerce",
						"label": "counter",
						"offset": 0,
						"slot": "1",
						"type": "t_uint256"
					},
					{
						"astId": 43,
						"contract": "contracts/ecommerce.sol:ecommerce",
						"label": "manager",
						"offset": 0,
						"slot": "2",
						"type": "t_address_payable"
					},
					{
						"astId": 46,
						"contract": "contracts/ecommerce.sol:ecommerce",
						"label": "destroyed",
						"offset": 20,
						"slot": "2",
						"type": "t_bool"
					}
				],
				"types": {
					"t_address": {
						"encoding": "inplace",
						"label": "address",
						"numberOfBytes": "20"
					},
					"t_address_payable": {
						"encoding": "inplace",
						"label": "address payable",
						"numberOfBytes": "20"
					},
					"t_array(t_struct(Product)16_storage)dyn_storage": {
						"base": "t_struct(Product)16_storage",
						"encoding": "dynamic_array",
						"label": "struct ecommerce.Product[]",
						"numberOfBytes": "32"
					},
					"t_bool": {
						"encoding": "inplace",
						"label": "bool",
						"numberOfBytes": "1"
					},
					"t_string_storage": {
						"encoding": "bytes",
						"label": "string",
						"numberOfBytes": "32"
					},
					"t_struct(Product)16_storage": {
						"encoding": "inplace",
						"label": "struct ecommerce.Product",
						"members": [
							{
								"astId": 3,
								"contract": "contracts/ecommerce.sol:ecommerce",
								"label": "title",
								"offset": 0,
								"slot": "0",
								"type": "t_string_storage"
							},
							{
								"astId": 5,
								"contract": "contracts/ecommerce.sol:ecommerce",
								"label": "description",
								"offset": 0,
								"slot": "1",
								"type": "t_string_storage"
							},
							{
								"astId": 7,
								"contract": "contracts/ecommerce.sol:ecommerce",
								"label": "seller",
								"offset": 0,
								"slot": "2",
								"type": "t_address_payable"
							},
							{
								"astId": 9,
								"contract": "contracts/ecommerce.sol:ecommerce",
								"label": "productId",
								"offset": 0,
								"slot": "3",
								"type": "t_uint256"
							},
							{
								"astId": 11,
								"contract": "contracts/ecommerce.sol:ecommerce",
								"label": "price",
								"offset": 0,
								"slot": "4",
								"type": "t_uint256"
							},
							{
								"astId": 13,
								"contract": "contracts/ecommerce.sol:ecommerce",
								"label": "buyer",
								"offset": 0,
								"slot": "5",
								"type": "t_address"
							},
							{
								"astId": 15,
								"contract": "contracts/ecommerce.sol:ecommerce",
								"label": "delivered",
								"offset": 20,
								"slot": "5",
								"type": "t_bool"
							}
						],
						"numberOfBytes": "192"
					},
					"t_uint256": {
						"encoding": "inplace",
						"label": "uint256",
						"numberOfBytes": "32"
					}
				}
			},
			"userdoc": {
				"kind": "user",
				"methods": {},
				"version": 1
			}
		}
	}
}