{
  "contractName": "ecommerce",
  "abi": [
    {
      "inputs": [],
      "stateMutability": "nonpayable",
      "type": "constructor"
    },
    {
      "anonymous": false,
      "inputs": [
        {
          "indexed": false,
          "internalType": "uint256",
          "name": "Productid",
          "type": "uint256"
        },
        {
          "indexed": false,
          "internalType": "address",
          "name": "buyer",
          "type": "address"
        }
      ],
      "name": "baught",
      "type": "event"
    },
    {
      "anonymous": false,
      "inputs": [
        {
          "indexed": false,
          "internalType": "uint256",
          "name": "Productid",
          "type": "uint256"
        }
      ],
      "name": "delivered",
      "type": "event"
    },
    {
      "anonymous": false,
      "inputs": [
        {
          "indexed": false,
          "internalType": "string",
          "name": "title",
          "type": "string"
        },
        {
          "indexed": false,
          "internalType": "uint256",
          "name": "priductId",
          "type": "uint256"
        },
        {
          "indexed": false,
          "internalType": "address",
          "name": "seller",
          "type": "address"
        }
      ],
      "name": "registered",
      "type": "event"
    },
    {
      "stateMutability": "payable",
      "type": "fallback"
    },
    {
      "inputs": [],
      "name": "manager",
      "outputs": [
        {
          "internalType": "address payable",
          "name": "",
          "type": "address"
        }
      ],
      "stateMutability": "view",
      "type": "function"
    },
    {
      "inputs": [
        {
          "internalType": "uint256",
          "name": "",
          "type": "uint256"
        }
      ],
      "name": "products",
      "outputs": [
        {
          "internalType": "string",
          "name": "title",
          "type": "string"
        },
        {
          "internalType": "string",
          "name": "description",
          "type": "string"
        },
        {
          "internalType": "address payable",
          "name": "seller",
          "type": "address"
        },
        {
          "internalType": "uint256",
          "name": "productId",
          "type": "uint256"
        },
        {
          "internalType": "uint256",
          "name": "price",
          "type": "uint256"
        },
        {
          "internalType": "address",
          "name": "buyer",
          "type": "address"
        },
        {
          "internalType": "bool",
          "name": "delivered",
          "type": "bool"
        }
      ],
      "stateMutability": "view",
      "type": "function"
    },
    {
      "inputs": [
        {
          "internalType": "string",
          "name": "_title",
          "type": "string"
        },
        {
          "internalType": "string",
          "name": "_desc",
          "type": "string"
        },
        {
          "internalType": "uint256",
          "name": "_price",
          "type": "uint256"
        }
      ],
      "name": "registerProducts",
      "outputs": [],
      "stateMutability": "nonpayable",
      "type": "function"
    },
    {
      "inputs": [
        {
          "internalType": "uint256",
          "name": "_productId",
          "type": "uint256"
        }
      ],
      "name": "buy",
      "outputs": [],
      "stateMutability": "payable",
      "type": "function"
    },
    {
      "inputs": [
        {
          "internalType": "uint256",
          "name": "_productId",
          "type": "uint256"
        }
      ],
      "name": "delivery",
      "outputs": [],
      "stateMutability": "nonpayable",
      "type": "function"
    },
    {
      "inputs": [],
      "name": "destroy",
      "outputs": [],
      "stateMutability": "nonpayable",
      "type": "function"
    }
  ],
  "bytecode": "0x6080604052600180556000600260146101000a81548160ff02191690831515021790555034801561002f57600080fd5b5033600260006101000a81548173ffffffffffffffffffffffffffffffffffffffff021916908373ffffffffffffffffffffffffffffffffffffffff160217905550611760806100806000396000f3fe6080604052600436106100595760003560e01c80631144fd72146100a2578063481c6a75146100cb5780634c900dc6146100f65780637acc0b201461011f57806383197ef014610162578063d96a094a146101795761005a565b5b3373ffffffffffffffffffffffffffffffffffffffff166108fc349081150290604051600060405180830381858888f193505050501580156100a0573d6000803e3d6000fd5b005b3480156100ae57600080fd5b506100c960048036038101906100c49190610c64565b610195565b005b3480156100d757600080fd5b506100e06103f1565b6040516100ed9190610cd2565b60405180910390f35b34801561010257600080fd5b5061011d60048036038101906101189190610e33565b610417565b005b34801561012b57600080fd5b5061014660048036038101906101419190610c64565b61069e565b6040516101599796959493929190610f91565b60405180910390f35b34801561016e57600080fd5b5061017761084d565b005b610193600480360381019061018e9190610c64565b610981565b005b600260149054906101000a900460ff16156101e5576040517f08c379a00000000000000000000000000000000000000000000000000000000081526004016101dc9061105a565b60405180910390fd5b3373ffffffffffffffffffffffffffffffffffffffff16600060018361020b91906110a9565b8154811061021c5761021b6110dd565b5b906000526020600020906006020160050160009054906101000a900473ffffffffffffffffffffffffffffffffffffffff1673ffffffffffffffffffffffffffffffffffffffff16146102a4576040517f08c379a000000000000000000000000000000000000000000000000000000000815260040161029b90611158565b60405180910390fd5b600160006001836102b591906110a9565b815481106102c6576102c56110dd565b5b906000526020600020906006020160050160146101000a81548160ff02191690831515021790555060006001826102fd91906110a9565b8154811061030e5761030d6110dd565b5b906000526020600020906006020160020160009054906101000a900473ffffffffffffffffffffffffffffffffffffffff1673ffffffffffffffffffffffffffffffffffffffff166108fc600060018461036891906110a9565b81548110610379576103786110dd565b5b9060005260206000209060060201600401549081150290604051600060405180830381858888f193505050501580156103b6573d6000803e3d6000fd5b507f4b5e4108167a669a2da8b1edeb1bf605987224cec90eeca47f7f235104539f21816040516103e69190611178565b60405180910390a150565b600260009054906101000a900473ffffffffffffffffffffffffffffffffffffffff1681565b600260149054906101000a900460ff1615610467576040517f08c379a000000000000000000000000000000000000000000000000000000000815260040161045e9061105a565b60405180910390fd5b600081116104aa576040517f08c379a00000000000000000000000000000000000000000000000000000000081526004016104a1906111df565b60405180910390fd5b6104b2610baf565b838160000181905250828160200181905250670de0b6b3a7640000826104d891906111ff565b81608001818152505033816040019073ffffffffffffffffffffffffffffffffffffffff16908173ffffffffffffffffffffffffffffffffffffffff1681525050600154816060018181525050600081908060018154018082558091505060019003906000526020600020906006020160009091909190915060008201518160000190816105669190611465565b50602082015181600101908161057c9190611465565b5060408201518160020160006101000a81548173ffffffffffffffffffffffffffffffffffffffff021916908373ffffffffffffffffffffffffffffffffffffffff160217905550606082015181600301556080820151816004015560a08201518160050160006101000a81548173ffffffffffffffffffffffffffffffffffffffff021916908373ffffffffffffffffffffffffffffffffffffffff16021790555060c08201518160050160146101000a81548160ff02191690831515021790555050506001600081548092919061065490611537565b91905055507f2f2d57060110e728629fcdcfd43a3b0f571b51ca1899668910d777e935601e3e848260600151336040516106909392919061157f565b60405180910390a150505050565b600081815481106106ae57600080fd5b90600052602060002090600602016000915090508060000180546106d190611288565b80601f01602080910402602001604051908101604052809291908181526020018280546106fd90611288565b801561074a5780601f1061071f5761010080835404028352916020019161074a565b820191906000526020600020905b81548152906001019060200180831161072d57829003601f168201915b50505050509080600101805461075f90611288565b80601f016020809104026020016040519081016040528092919081815260200182805461078b90611288565b80156107d85780601f106107ad576101008083540402835291602001916107d8565b820191906000526020600020905b8154815290600101906020018083116107bb57829003601f168201915b5050505050908060020160009054906101000a900473ffffffffffffffffffffffffffffffffffffffff16908060030154908060040154908060050160009054906101000a900473ffffffffffffffffffffffffffffffffffffffff16908060050160149054906101000a900460ff16905087565b3373ffffffffffffffffffffffffffffffffffffffff16600260009054906101000a900473ffffffffffffffffffffffffffffffffffffffff1673ffffffffffffffffffffffffffffffffffffffff16146108dd576040517f08c379a00000000000000000000000000000000000000000000000000000000081526004016108d490611609565b60405180910390fd5b600260009054906101000a900473ffffffffffffffffffffffffffffffffffffffff1673ffffffffffffffffffffffffffffffffffffffff166108fc479081150290604051600060405180830381858888f19350505050158015610945573d6000803e3d6000fd5b50600260009054906101000a900473ffffffffffffffffffffffffffffffffffffffff1673ffffffffffffffffffffffffffffffffffffffff16ff5b600260149054906101000a900460ff16156109d1576040517f08c379a00000000000000000000000000000000000000000000000000000000081526004016109c89061105a565b60405180910390fd5b3460006001836109e191906110a9565b815481106109f2576109f16110dd565b5b90600052602060002090600602016004015414610a44576040517f08c379a0000000000000000000000000000000000000000000000000000000008152600401610a3b90611675565b60405180910390fd5b3373ffffffffffffffffffffffffffffffffffffffff166000600183610a6a91906110a9565b81548110610a7b57610a7a6110dd565b5b906000526020600020906006020160020160009054906101000a900473ffffffffffffffffffffffffffffffffffffffff1673ffffffffffffffffffffffffffffffffffffffff1603610b03576040517f08c379a0000000000000000000000000000000000000000000000000000000008152600401610afa906116e1565b60405180910390fd5b336000600183610b1391906110a9565b81548110610b2457610b236110dd565b5b906000526020600020906006020160050160006101000a81548173ffffffffffffffffffffffffffffffffffffffff021916908373ffffffffffffffffffffffffffffffffffffffff1602179055507fb575b1c878dc377bd63ce2baed968bf73f501ef259eaa44a369ecddf6a3a62418133604051610ba4929190611701565b60405180910390a150565b6040518060e001604052806060815260200160608152602001600073ffffffffffffffffffffffffffffffffffffffff1681526020016000815260200160008152602001600073ffffffffffffffffffffffffffffffffffffffff1681526020016000151581525090565b6000604051905090565b600080fd5b600080fd5b6000819050919050565b610c4181610c2e565b8114610c4c57600080fd5b50565b600081359050610c5e81610c38565b92915050565b600060208284031215610c7a57610c79610c24565b5b6000610c8884828501610c4f565b91505092915050565b600073ffffffffffffffffffffffffffffffffffffffff82169050919050565b6000610cbc82610c91565b9050919050565b610ccc81610cb1565b82525050565b6000602082019050610ce76000830184610cc3565b92915050565b600080fd5b600080fd5b6000601f19601f8301169050919050565b7f4e487b7100000000000000000000000000000000000000000000000000000000600052604160045260246000fd5b610d4082610cf7565b810181811067ffffffffffffffff82111715610d5f57610d5e610d08565b5b80604052505050565b6000610d72610c1a565b9050610d7e8282610d37565b919050565b600067ffffffffffffffff821115610d9e57610d9d610d08565b5b610da782610cf7565b9050602081019050919050565b82818337600083830152505050565b6000610dd6610dd184610d83565b610d68565b905082815260208101848484011115610df257610df1610cf2565b5b610dfd848285610db4565b509392505050565b600082601f830112610e1a57610e19610ced565b5b8135610e2a848260208601610dc3565b91505092915050565b600080600060608486031215610e4c57610e4b610c24565b5b600084013567ffffffffffffffff811115610e6a57610e69610c29565b5b610e7686828701610e05565b935050602084013567ffffffffffffffff811115610e9757610e96610c29565b5b610ea386828701610e05565b9250506040610eb486828701610c4f565b9150509250925092565b600081519050919050565b600082825260208201905092915050565b60005b83811015610ef8578082015181840152602081019050610edd565b83811115610f07576000848401525b50505050565b6000610f1882610ebe565b610f228185610ec9565b9350610f32818560208601610eda565b610f3b81610cf7565b840191505092915050565b610f4f81610c2e565b82525050565b6000610f6082610c91565b9050919050565b610f7081610f55565b82525050565b60008115159050919050565b610f8b81610f76565b82525050565b600060e0820190508181036000830152610fab818a610f0d565b90508181036020830152610fbf8189610f0d565b9050610fce6040830188610cc3565b610fdb6060830187610f46565b610fe86080830186610f46565b610ff560a0830185610f67565b61100260c0830184610f82565b98975050505050505050565b7f436f6e747261637420646f6573206e6f74206578697374730000000000000000600082015250565b6000611044601883610ec9565b915061104f8261100e565b602082019050919050565b6000602082019050818103600083015261107381611037565b9050919050565b7f4e487b7100000000000000000000000000000000000000000000000000000000600052601160045260246000fd5b60006110b482610c2e565b91506110bf83610c2e565b9250828210156110d2576110d161107a565b5b828203905092915050565b7f4e487b7100000000000000000000000000000000000000000000000000000000600052603260045260246000fd5b7f4f6e6c792062757965722063616e20747261636b000000000000000000000000600082015250565b6000611142601483610ec9565b915061114d8261110c565b602082019050919050565b6000602082019050818103600083015261117181611135565b9050919050565b600060208201905061118d6000830184610f46565b92915050565b7f50726f647563742070726963652063616e6e6f74206265203000000000000000600082015250565b60006111c9601983610ec9565b91506111d482611193565b602082019050919050565b600060208201905081810360008301526111f8816111bc565b9050919050565b600061120a82610c2e565b915061121583610c2e565b9250817fffffffffffffffffffffffffffffffffffffffffffffffffffffffffffffffff048311821515161561124e5761124d61107a565b5b828202905092915050565b7f4e487b7100000000000000000000000000000000000000000000000000000000600052602260045260246000fd5b600060028204905060018216806112a057607f821691505b6020821081036112b3576112b2611259565b5b50919050565b60008190508160005260206000209050919050565b60006020601f8301049050919050565b600082821b905092915050565b60006008830261131b7fffffffffffffffffffffffffffffffffffffffffffffffffffffffffffffffff826112de565b61132586836112de565b95508019841693508086168417925050509392505050565b6000819050919050565b600061136261135d61135884610c2e565b61133d565b610c2e565b9050919050565b6000819050919050565b61137c83611347565b61139061138882611369565b8484546112eb565b825550505050565b600090565b6113a5611398565b6113b0818484611373565b505050565b5b818110156113d4576113c960008261139d565b6001810190506113b6565b5050565b601f821115611419576113ea816112b9565b6113f3846112ce565b81016020851015611402578190505b61141661140e856112ce565b8301826113b5565b50505b505050565b600082821c905092915050565b600061143c6000198460080261141e565b1980831691505092915050565b6000611455838361142b565b9150826002028217905092915050565b61146e82610ebe565b67ffffffffffffffff81111561148757611486610d08565b5b6114918254611288565b61149c8282856113d8565b600060209050601f8311600181146114cf57600084156114bd578287015190505b6114c78582611449565b86555061152f565b601f1984166114dd866112b9565b60005b82811015611505578489015182556001820191506020850194506020810190506114e0565b86831015611522578489015161151e601f89168261142b565b8355505b6001600288020188555050505b505050505050565b600061154282610c2e565b91507fffffffffffffffffffffffffffffffffffffffffffffffffffffffffffffffff82036115745761157361107a565b5b600182019050919050565b600060608201905081810360008301526115998186610f0d565b90506115a86020830185610f46565b6115b56040830184610f67565b949350505050565b7f4f6e6c79206d616e616765722063616e20646f20746869732100000000000000600082015250565b60006115f3601983610ec9565b91506115fe826115bd565b602082019050919050565b60006020820190508181036000830152611622816115e6565b9050919050565b7f706c656173652050617920746865206578616374207072696365000000000000600082015250565b600061165f601a83610ec9565b915061166a82611629565b602082019050919050565b6000602082019050818103600083015261168e81611652565b9050919050565b7f53656c6c65722063616e6e6f7420626520627579657200000000000000000000600082015250565b60006116cb601683610ec9565b91506116d682611695565b602082019050919050565b600060208201905081810360008301526116fa816116be565b9050919050565b60006040820190506117166000830185610f46565b6117236020830184610f67565b939250505056fea2646970667358221220ca3c16a8ee7b21ede72effee6eaa768824b675f6853a4125f1521b3bc49bf9a764736f6c634300080f0033",
  "immutableReferences": {},
  "source": "// SPDX-Licence-Identifier: UNLICENSED\r\n\r\npragma solidity ^0.8.15;\r\n\r\ncontract ecommerce {\r\n    // Creating a product data type\r\n    struct Product {\r\n        string title;\r\n        string description;\r\n        address payable seller;\r\n        uint256 productId;\r\n        uint256 price;\r\n        address buyer;\r\n        bool delivered;\r\n    }\r\n\r\n    Product[] public products;\r\n\r\n    event registered(string title, uint256 priductId, address seller);\r\n    event baught(uint256 Productid, address buyer);\r\n    event delivered(uint256 Productid);\r\n\r\n    // For assigning unique productID\r\n    uint256 counter = 1;\r\n\r\n    address payable public manager;\r\n\r\n    bool destroyed = false;\r\n\r\n    modifier isDestoryed() {\r\n        require(!destroyed, \"Contract does not exists\");\r\n        _;\r\n    }\r\n\r\n    constructor() {\r\n        manager = payable(msg.sender);\r\n    }\r\n\r\n    function registerProducts(\r\n        string memory _title,\r\n        string memory _desc,\r\n        uint256 _price\r\n    ) public isDestoryed {\r\n        require(_price > 0, \"Product price cannot be 0\");\r\n        Product memory tempProduct;\r\n        tempProduct.title = _title;\r\n        tempProduct.description = _desc;\r\n        tempProduct.price = _price * 10**18;\r\n        tempProduct.seller = payable(msg.sender);\r\n        tempProduct.productId = counter;\r\n        products.push(tempProduct);\r\n        counter++;\r\n        emit registered(_title, tempProduct.productId, msg.sender);\r\n    }\r\n\r\n    function buy(uint256 _productId) public payable isDestoryed {\r\n        require(\r\n            products[_productId - 1].price == msg.value,\r\n            \"please Pay the exact price\"\r\n        );\r\n        require(\r\n            products[_productId - 1].seller != msg.sender,\r\n            \"Seller cannot be buyer\"\r\n        );\r\n        products[_productId - 1].buyer = msg.sender;\r\n        emit baught(_productId, msg.sender);\r\n    }\r\n\r\n    function delivery(uint256 _productId) public isDestoryed {\r\n        require(\r\n            products[_productId - 1].buyer == msg.sender,\r\n            \"Only buyer can track\"\r\n        );\r\n        products[_productId - 1].delivered = true;\r\n        products[_productId - 1].seller.transfer(\r\n            products[_productId - 1].price\r\n        );\r\n        emit delivered(_productId);\r\n    }\r\n\r\n    function destroy() public {\r\n        require(manager == msg.sender, \"Only manager can do this!\");\r\n        manager.transfer(address(this).balance);\r\n        selfdestruct(manager);\r\n        destroyed = true;\r\n    }\r\n\r\n    fallback() external payable {\r\n        payable(msg.sender).transfer(msg.value);\r\n    }\r\n}\r\n",
  "sourcePath": "C:\\Users\\Hp\\OneDrive\\My Code\\Blockchain\\Solidity\\Ecommerce_Smart_contract\\contracts\\ecommerce.sol",
  "compiler": {
    "name": "solc",
    "version": "0.8.15+commit.e14f2714.Emscripten.clang"
  },
  "schemaVersion": "3.4.8",
  "updatedAt": "2022-08-05T20:07:26.167Z",
  "devdoc": {
    "kind": "dev",
    "methods": {},
    "version": 1
  },
  "userdoc": {
    "kind": "user",
    "methods": {},
    "version": 1
  }
}